:020000040800F2
:10000000A00E0020010100083D1400083F14000864
:1000100043140008471400084B14000800000000B7
:100020000000000000000000000000004F14000865
:100030005114000800000000531400086714000861
:100040001701000817010008170100081701000830
:10005000170100081701000817010008BD1A000861
:100060001701000817010008170100081701000810
:100070001701000817010008170100081701000800
:1000800017010008170100081701000817010008F0
:1000900017010008170100081701000817010008E0
:1000A00017010008170100081701000817010008D0
:1000B000811A000817010008571A000817010008E4
:1000C00017010008170100081701000817010008B0
:1000D000170100081701000817010008311C00086B
:1000E000170100081701000817010008DFF80CD0FD
:1000F00004F0A8FC0048004741130008A00E0020AF
:1001000005480047FEE7FEE7FEE7FEE7FEE7FEE7FD
:10011000FEE7FEE7FEE7FEE7ED000008FD4AFE49C8
:10012000C0E90021FD4AFE49C0E90221FD4AFE491D
:10013000C0E9042100228261C261002101624162A2
:100140000163416300238363C36302644264836485
:10015000C36470472DE9F04F8BB0824616461F46A8
:10016000DDE91645DAE908834246DDE9140104F0C9
:100170004AF9CAE90A01DAE90A83424620462946D1
:1001800004F047F9CDE90801DAE90683424604F0B4
:1001900099F8CAE90601DAE912834246204629465F
:1001A00004F037F9CDE90001DAE90E83424604F0A4
:1001B0002AF9CDE90201DAE91083424604F023F975
:1001C000CDE90401DAE90083424604F07BF82246D7
:1001D0002B46CDE9060104F01CF9CDE90801DAE966
:1001E0000C83424604F06EF8CAE90C01DAE9128386
:1001F00042462046294604F00CF9CDE90801DAE927
:100200000E83424604F002F9CAE90E01DAE91283CC
:1002100042462046294604F0FCF8CDE90801DAE917
:100220001083424604F0F2F8CAE9100122462B4638
:10023000DAE90281404604F0ECF8CDE90801DAE998
:100240001283424604F03EF8CAE91201DAE9048357
:100250004246DAE90CB1584604F034F8CAE91A010A
:10026000DAE91A834246DAE90CB1584604F043F958
:10027000CAE91401DAE91A834246DAE910B15846AC
:1002800004F039F9CAE91601DAE906834246304634
:10029000394604F0B8F8CAE91801DAE91883424689
:1002A000DAE914B1584604F0B4F8CDE90801DAE906
:1002B0000683424604F006F8CAE90601DAE9188323
:1002C0004246DAE916B1584604F0A3F8CDE9080130
:1002D000DAE90883424603F0F5FFCAE90801DAE9E2
:1002E0000C834246DAE914B1584604F092F8CDE99D
:1002F0000801DAE90C83424604F088F8CAE90C01E7
:10030000DAE90E834246DAE914B1584604F081F87E
:10031000CDE90801DAE90E83424604F077F8CAE92C
:100320000E01DAE90C834246DAE916B1584604F0C8
:1003300070F8CDE90801DAE91083424604F066F866
:10034000CAE91001DAE90EB35A46DAE916814046E5
:1003500004F05FF8CDE90801DAE91283424604F0BF
:1003600055F8CAE91201DAE906010BB0BDE8F08FD1
:10037000C0E9062370470246D2E90A017047C0E986
:1003800000237047C0E902237047C0E90423704787
:100390000246D2E9000170470246D2E902017047E5
:1003A0000246D2E90401704760480068604908606D
:1003B0005E4840685F4908605F4800785F490860B0
:1003C00000205F4908600AE000205E495C4A12682C
:1003D00041F822005A480068401C594908605848B2
:1003E0000068FF28F0DB0020554908600AE0002182
:1003F0005548534A126840F8221051480068401C82
:100400004F4908604E4800680828F0DB00204C493E
:1004100008600AE000204D49494A126841F822006C
:1004200047480068401C4649086045480068042861
:10043000F0DB7047F0B50024454D2C60454D2C6035
:100440003F4D2C60CAE0444C414D2D6854F82510B6
:100450000020B6E03C4C3A4D2D6854F825503E4EF5
:100460003B4C2468641C56F82440A5420BDB364CF8
:10047000334D2D6854F82550354C2468241D56F80A
:100480002440A5420ADD0025324C26682468641CFD
:10049000304F3C602B4C44F826508CE02A4C284DC1
:1004A0002D6854F825502C4E294C2468E41C56F82D
:1004B0002440A54216DC244C214D2D6854F82550CB
:1004C000234C2468A41C56F82440A5420ADB5A2673
:1004D000204C25682468641C1E4F3C60194C44F86D
:1004E000256068E0184C164D2D6854F825501A4EBA
:1004F000174C2468A41C56F82440A5423FDA124C3D
:100500000F4D2D6854F82550114C2468641C56F882
:10051000244023E0FCA9F1D24D62503FFA7E6ABC30
:100520007493683FB81E85EB51B89E3F740000205D
:10053000180300201C030020200200202C030020B0
:100540002803002074040020700800209008002078
:100550002003002024030020880000202C1BFE4DD7
:100560002D686D1D56F825506C43FC4D2E682D6886
:100570006D1CFA4F3D60FA4D45F826401BE0F94DE1
:10058000F54C2468241D55F82440F74DF74E366885
:1005900055F82650641BF34EEF4D2D68AD1D56F8EF
:1005A00025506C43ED4D2E682D686D1CEB4F3D6062
:1005B000EB4D45F82640E84C2468A41DE64D2C6020
:1005C000401C8842FFF646AFE34C2468641CE24DB1
:1005D0002C60E64C2468641CE44D2C60E34C2468D9
:1005E000E34D2D68AC42FFF62EAFDB4C2268DB4CAE
:1005F00023680024DD4D2C601DE0DA4CD64D2D68BB
:1006000054F8251000200FE00025D44C26682468FB
:10061000641CD24F3C60D24C44F82650CE4C246827
:10062000641CCD4D2C60401C8842EDDBCF4C24680F
:10063000641CCE4D2C60CD4C2468CE4D2D68AC4250
:10064000DBDBC54C2260C54C2360F0BD10B5012238
:100650000023C64C236040E05A2116E0C64B9B683D
:10066000012B0BD1BE4B53F820308B4203DABC4B2D
:1006700053F8203000E00B46194606E0B84B53F81B
:1006800020304B435A2493FBF4F11346521CBB4CCD
:10069000E35C1846FF2BE1D113E0B74BDB68012B7D
:1006A00008D1AF4B53F820308B420ADAAC4B43F8F9
:1006B000201006E0AA4B53F820300B44A84C44F815
:1006C00020301346521CAD4CE35C1846FF2BE4D19E
:1006D000A64B1B685B1CA54C2360A44B1B68A84C55
:1006E0002468A342B8DB10BDF0B500259F4E3560ED
:1006F0005AE000210023984D2E682D686D1C964FFE
:100700003D60984D55F826209B4D2D69012D21D136
:10071000002015E0914D2E682D686D1C8F4F3D60B7
:100720008F4D55F8264021448B4D2E682D686D1C49
:10073000894F3D608B4D55F8265005FB0433401C16
:100740009042E7DB93FBF1F58E4E884F3F6846F809
:10075000275024E0002020E0804D2E682D686D1C7D
:100760007E4F3D607E4D55F8261099420FDD0B46B9
:10077000794D2E682D686D1C774F3D60794D55F889
:100780002650804E794F3F6846F8275004E0724D5E
:100790002D686D1C704E3560401C9042DCDB734D43
:1007A0002D686D1C714E3560704D2D68714E366828
:1007B000B5429EDBF0BD10B50022734B734903C9EF
:1007C00003F09AFF03D850206749086005E06F499D
:1007D00003C903F046FF644908606D48006803F0F0
:1007E00013FF6149486010BD10B566480468006891
:1007F000002803DD01206749086006E061480068C1
:10080000002802DA0020634908605E49096800296F
:1008100002DD5C49096802E05A4909684942084614
:1008200003F0D8FE5C49086010BD2DE9F04F89B097
:100830005A48006803F034FF8046894658480068EB
:1008400003F02EFF824642464B4604F015FC064656
:10085000544A554B03F0DDFD044603F065FF534950
:1008600008604E480168006803F0BCFC02904C48E8
:100870000168006803F0B6FC0190029903F05AFC8D
:10088000039003F00DFF064604F0B6FCCDE9060127
:100890004748006880F00046304603F001FFCDE98C
:1008A0000401DDE9062303F026FE044604F0D4FA31
:1008B00080463C4A3C4B03F0ACFD824603F034FFDB
:1008C0003C49086009B0BDE8F08F00B587B04FF42F
:1008D000C06003F005F827208DF8040000208DF893
:1008E00005008DF8060001208DF80700272000F094
:1008F0001F0201219140304A430942F8231000BFF2
:1009000001A802F0F2FF272000F01F020121914010
:100910004209920002F1E022C2F8001100BF4FF438
:100920008060ADF8180003208DF81A0018208DF8AB
:100930001B0006A9214801F0DDFA4FF40060ADF874
:10094000180004208DF81B0006A91C4801F0D2FAFB
:100950004FF41650029033E02003002024030020BF
:100960007404002088000020700800202803002064
:10097000180300201C030020740000202002002027
:100980002C03002090080020000054403800002074
:10099000640000206C000020680000200800002097
:1009A00004000020F8C1631ADCA54C4018000020A8
:1009B000000000201C00002080E200E0000C01404C
:1009C0000020ADF80C00ADF80E00ADF81000ADF849
:1009D00014000C20ADF8120002A9FE4802F02DF818
:1009E000012240F22551FB4802F0A1F80121F9480B
:1009F00002F091F807B000BD10B501F0ABFB4FF469
:100A0000803001F0C6FB01F003FC0446012C1ED12E
:100A1000002001F042FC002001F051FCA00201F096
:100A200045FC4FF4E011200401F01AFC012001F014
:100A300023FC00BF392001F0CFFB0028FAD00220B0
:100A400001F01DFC00BF01F023FC0828FBD10121AF
:100A5000C80201F0EBFC0121084601F0F4FC012181
:100A6000022001F0F0FC0121042001F0ECFC012146
:100A70000D2001F0DBFC0121880401F0E4FC10BD35
:100A800008B50121D44801F006FB4FF48150ADF8C0
:100A9000000003208DF8020010208DF80300694645
:100AA000CE4801F027FA1320ADF8000003208DF89E
:100AB000020010208DF803006946C84801F01AFAB8
:100AC00048F20C00ADF8000003208DF80200102061
:100AD0008DF803006946C24801F00CFA0820ADF811
:100AE000000003208DF8020018208DF803006946ED
:100AF000BB4801F0FFF94FF48070ADF8000003200F
:100B00008DF8020018208DF803006946B34801F003
:100B1000F1F908BD08B500214FF0006002F017FFA1
:100B20004FF4C06002F0DCFE1C208DF800000020B5
:100B30008DF8010001208DF802008DF80300684651
:100B400002F0D3FE08BD08B500214FF0006002F0AE
:100B5000FEFE4FF4C06002F0C3FE1E208DF80000C0
:100B600001208DF801008DF802008DF80300684621
:100B700002F0BBFE08BD0EB56320ADF8040041F6DF
:100B80001F40ADF800000020ADF80200694695480E
:100B900002F02DF901220221480702F0C9FB0121D0
:100BA000880702F0AAFB0EBD0EB50920ADF80400BF
:100BB00040F26710ADF800000020ADF80200694671
:100BC000894802F014F901220221874802F0B0FBA3
:100BD0000121854802F091FB0EBD2DE9F0418348CB
:100BE000006873214843C0098049086008460068CE
:100BF00041F6AA11884203D900207D49086002E02D
:100C000001207B49086001F048FE044603F0E2FC45
:100C10007849086000217748006803F0A1FD00D101
:100C200065E07448006803F03BFD064672480CC856
:100C3000304603F0E8FB044603F076FD6D4908609A
:100C400001F03EFE044603F0C5FC6C49086000213B
:100C50006A48006803F084FD00D148E067480068F6
:100C600003F01EFD064666480CC8304603F0CBFB79
:100C7000044603F059FD6149086001F034FE044662
:100C800003F0A8FC5F49086000215E48006803F09B
:100C900067FD00D12BE001F039FE044603F09AFC19
:100CA0005949086000215848006803F059FD00D1F7
:100CB0001DE001F03EFE044603F08CFC5349086041
:100CC00000215248006803F04BFD00D10FE001F015
:100CD00043FE044603F07EFC4D49086000214C4869
:100CE000006803F03DFD00D101E0BDE8F0813F4820
:100CF000006864303D49086000BFF6E72DE9F04127
:100D0000002414E001F0C9FD804603F063FC0746AF
:100D1000294603F00FFA054601F0D2FD804603F0A4
:100D200059FC0746314603F005FA0646641C642C5C
:100D3000E8DB3849284603F087FA074603F0B0FCA1
:100D40002D4A03C23349304603F07EFA074603F0CA
:100D5000A7FC2B4A03C2BDE8F08170B5FFF7CEFFB8
:100D6000FFF73BFFFFF761FD2B48006803F098FC9D
:100D7000044622460B462948FFF7FAFA264800683F
:100D8000274908602448006803F08AFC254A03C20A
:100D90002548006803F084FC044622460B4623489D
:100DA000FFF7E6FA20480068214908601E480068FD
:100DB00003F076FC1F4A03C2FFF7F6FA194903C98C
:100DC00003F04FFC1C4908601C48006803F01CFC41
:100DD000194935E00048004000023000000C014095
:100DE00000080140002C01400008004030030020B2
:100DF00070000020000000204800002004000020B7
:100E000050000020080000200C00002010000020EE
:100E1000140000200000C8421800002080030020B9
:100E200020000020300000201C000020F0030020E3
:100E300024000020380000207008002060000020FE
:100E4000486070BD2DE9F04F87B0DFF80094FFF7E0
:100E5000C4FEFFF7EAFCFE48006803F021FC0746E9
:100E6000FC4AFD4B03F047FB054603F05DFC069092
:100E7000FA48006803F014FC0746F64AF64B03F004
:100E80003AFB054603F050FC0446069803F008FCC4
:100E90000746F34AF34B03F0BCFA054603F044FC63
:100EA000F1490860204603F0FBFB0746EC4AED4B96
:100EB00003F0AFFA054603F037FCEC490860EC4953
:100EC000EC48006803F04CFC05D2EB49EB480068A5
:100ED00003F050FC0BD3E849E648006803F04AFCF5
:100EE0001ED2E349E548006803F03AFC18D2E14815
:100EF000006803F0D5FB05462A460B46E048FFF79D
:100F000037FADC48006803F0CBFBDE4A03C2D9485D
:100F10000068DA490860D7480068DB4908601EE0CD
:100F2000484603F0BDFB82468B46069803F0B8FBAB
:100F3000CDE90401CF48006803F0B2FB05460B463B
:100F4000CDE902ABDDE904012A46CDE90001CC4838
:100F5000FFF700F9074603F0E7FBC8490860C748F8
:100F6000006803F09DFB21F0004105460022C74BBD
:100F700003F0C2FB01D284F00044484603F090FB2A
:100F800082468B46204603F08BFBCDE90401C04826
:100F9000006803F085FB05460B46CDE902ABDDE9B1
:100FA00004012A46CDE90001BA48FFF7D3F8074605
:100FB00003F0BAFBB84908604946069803F012F9F5
:100FC0000546B1480168284603F0B4F8AE49086008
:100FD0004946204603F006F90546B0480168284610
:100FE00003F0A8F8AD490860A248006803F058FB78
:100FF0000546AB4AAB4B03F00CFA82468B4649469A
:10100000069803F0EFF8039003F04AFB07469D486B
:101010000CC8384603F056F90546A34AA34B03F023
:10102000F8F952465B46CDE9040103F04BF9954AC5
:1010300003C29748006803F033FB0546984A994B72
:1010400003F0E7F982468B464946204603F0CAF88A
:10105000039003F025FB074695480CC8384603F07B
:1010600031F90546904A914B03F0D3F952465B465D
:10107000CDE9040103F026F98D4A03C28D49824867
:10108000006803F06DFB05D38B497F48006803F0CF
:1010900071FB03D2794800687B49086085497F4825
:1010A000006803F05DFB05D383497C48006803F0CA
:1010B00061FB03D278480068784908607C4903C91D
:1010C00003F0CFFA002804DD794903C903F0C9FA17
:1010D00004E0774903C903F0C4FA4042502812DD06
:1010E00000221346724903C903F006FB01D8012010
:1010F00001E04FF0FF3000EB80000501284603F0CF
:1011000072FA6B4A03C25948006803F07DFA05463B
:10111000674903C903F0A5FA06465A4903C903F013
:10112000A0FA07462B463246394664A003F0C8FCB5
:1011300007B0BDE8F08F08B5C020ADF8000018205A
:101140008DF8030003208DF8020069466B4800F01B
:10115000D1FE08BD30B587B000240025022540F23D
:101160009A20ADF81400ADF810500020ADF816002C
:10117000ADF8120004A9624801F039FE6020ADF814
:1011800000000120ADF80200ADF806400020ADF8E7
:10119000080069465A4801F043FE0120ADF80200FC
:1011A000ADF806406946564801F071FE08215448E2
:1011B00002F0D4F90821524802F0D9F9012150482F
:1011C00002F09CF901214E4802F097F807B030BDBB
:1011D00010B5FFF7B0FFFFF7BDFF10BD0EB54FF61E
:1011E000FF70ADF8040040F2CF20ADF80000002001
:1011F000ADF802006946434801F0F9FD01220221E1
:10120000404802F095F801213E4802F076F80EBD04
:101210001FB50220ADF80C0004208DF80F0003204C
:101220008DF80E0003A9384800F064FE4FF4C0604A
:1012300002F056FB07208DF8080001208DF8090008
:1012400002208DF80A00012060E000000AD7233C4C
:101250000C000020FCA9F1D24D62304010000020AB
:101260009A9999999999B93F6000002064000020EB
:101270000000B4C2180000200000B4422800002082
:101280008003002030000020200000200080564015
:101290001C000020F00300202C000020240000206F
:1012A0007B14AE47E17A943F5C8FC2F5285CEF3F38
:1012B00038000020000034C300003443636F6D70B9
:1012C000416E676C6558203D202564202C20636F9B
:1012D0006D70416E676C6559203D202564202C207F
:1012E000595F416E67756C61725F76656C6F63699B
:1012F0007479203D2025640A00000000000C0140A4
:1013000000080040002C0140000801408DF80B004F
:1013100002A802F0EAFA0121002000F0F1FE02200A
:10132000009000208DF804000C208DF805000120AD
:101330008DF80600684602F04FFBFFF74FFF1FBD18
:101340000EB502F0CDFE00F00FFDFFF755FBFFF7E5
:1013500097FBFFF7BAFA01F095FA01F072FAFFF77E
:10136000FCFC284B00222849284802F014FE0020EB
:1013700026490860FFF7CEFBFFF7FDFBFFF7E3FB15
:10138000FFF712FCFFF724FF02F062FD39E002F0E4
:1013900019FC02F033FC00200090019002901C49DF
:1013A00003C903F05EF9044623461AA21BA168464E
:1013B00003F096FB6A460021084602F027FD002054
:1013C000009001900290174817A214A10368684684
:1013D00003F086FB6A460C21002002F017FD002076
:1013E000009001900290124812A20CA10368684676
:1013F00003F076FB6A461821002002F007FD02F098
:10140000BEFBC4E7000070C10000F0406004002093
:1014100038000020416E676C653A00002573256432
:10142000000000006C0000204469723A00000000D7
:101430003C03002050574D3A00000000704700BFA9
:10144000FEE700BFFEE700BFFEE700BFFEE7704714
:1014500070477047FE48006820B1FD480068401E94
:10146000FB490860704700B5FFF7F4FF00BD2DE9A8
:10147000F04F8BB0F748006888B1F6480068401C10
:1014800003F0B1F881464A460B460020F24903F0CA
:1014900032F8074603F048F9F049086003E04FF0DE
:1014A0007E50EE490860EE48007808B3ED4903C964
:1014B00003F03AF90746EC4839460268EB4802F077
:1014C00072FD0646002E01DD304600E07042044603
:1014D000E7A003F0F5FAEB480078312801D104F5D4
:1014E000C874E8480078352801D104F5AF747DE16F
:1014F0000021DD48006803F03DF902D2DA480068B7
:1015000004E0D9480168E04802F06CFE0746DF4974
:1015100003F026F97DD20021DD48006803F020F9B0
:1015200075D0DB48006803F0BBF800221346CDE914
:101530000201CC4903C903F0DFF802D2C94903C94B
:1015400005E0C8480CC80020D24902F062FFCDE98E
:101550000001DDE9022302F05CFF81460022CE4B50
:1015600002F0B0FE07460022134603F0C5F820D271
:10157000C748006803F094F800221346CDE9020141
:10158000B84903C903F0B8F802D2B64903C905E067
:10159000B4480CC80020BF4902F03BFF8146DDE99A
:1015A000022302F036FF07460022BB4B02F08AFE00
:1015B00025E0B748006803F073F800221346CDE930
:1015C0000201A84903C903F097F802D2A54903C94B
:1015D00005E0A4480CC80020AE4902F01AFF002222
:1015E000AC4BCDE9000102F014FF8146DDE9022396
:1015F00002F00FFF07460022A74B02F063FECDE981
:10160000040103F02EF80446E5E002E0FFE70024C1
:10161000E1E00022A14B934903C903F06DF829D200
:1016200000219148006803F0A5F823D297498E481D
:10163000006802F0D7FD834603F032F8CDE90401DB
:101640009348006803F02CF8CDE9020185480CC8E6
:10165000029802F0DEFE0746DDE9042302F0D3FE25
:10166000814602F0FEFF0546002D01DD284600E020
:10167000684204460022894B7A4903C903F024F8E2
:101680003AD200217848006803F074F834D28449D3
:101690007548006802F0A6FD834603F001F8CDE925
:1016A00004017B48006802F0FBFF00221346CDE9ED
:1016B00002016C4903C903F01FF802D2694903C94A
:1016C00005E068480CC80020724902F0A2FECDE98E
:1016D0000001DDE9022302F09CFE8146DDE90423DE
:1016E00002F0F0FD074602F0BCFF0546002D01DDCB
:1016F000284600E0684204460022684B594903C965
:1017000002F0FAFF25D200215748006803F028F8BC
:101710001FD263495448006802F064FD834602F01A
:10172000BFFF074688465A48006802F0B9FFCDE976
:1017300002014C480CC8029802F06BFE3A46434640
:10174000CDE9040102F0BEFD814602F08AFF0546A4
:101750002C460022514B434903C902F0B5FF3AD24F
:1017600000214148006802F0FBFF34D24C493E485A
:10177000006802F037FD834602F092FFCDE90401D4
:101780004348006802F08CFF00221346CDE90201B5
:10179000344903C902F0B0FF02D2324903C905E05F
:1017A00030480CC800203B4902F033FECDE900016F
:1017B000DDE9022302F02DFE8146DDE9042302F07B
:1017C00022FE074602F04DFF0546002D01DD2846AA
:1017D00000E068420446214632A003F071F940F26D
:1017E0009A20844201DA002C00DA002400213348D8
:1017F000006802F0B5FF02D93148006800B9002442
:10180000304804600021304801F077FD6020ADF8D9
:1018100018000120ADF81A00204602F0DBFE8046D9
:101820000E480168404602F0DDFC074602F005FF65
:1018300080B2ADF81E000020ADF8200006A92248B5
:1018400001F0EEFA0120ADF81A0020463EE000005B
:101850005C030020380300200000F03F4C03002010
:1018600035030020380000206400002060040020C0
:101870004040404040404040404040404040400A9E
:101880000000000034030020000080BF0000204161
:10189000680000200000F0BF000044400000244029
:1018A0000000A040636F756E7465725F6E756D6247
:1018B0006572203D2025640A000000000800002019
:1018C000700000203C0300200008004002F082FE6F
:1018D0008046F5480168404602F084FC074602F065
:1018E000ACFE80B2ADF81E0006A9F04801F0CFFAB8
:1018F0000821EE4801F032FE0821EC4801F037FEE5
:101900000121EA4801F0FAFD0121E84801F0F5FC67
:101910000BB0BDE8F08F10B5E5480068E5490968EF
:1019200088420DD1E4480068401EE349086008463B
:10193000006868B9642008600020E049086007E09A
:101940006420DD490860DD480068401CDB49086010
:10195000D8480068D6490860D9480078002848D09F
:10196000D8480078002844D0D54800783138082875
:1019700037D2DFE800F0041A1B1C1D333435102168
:10198000D14800F064FB2021CF4800F062FB4FF407
:101990008051CD4800F05BFB4FF40041CB4800F094
:1019A00058FBCBA003F08CF822E021E020E01FE000
:1019B0001021C54800F04DFB2021C34800F047FB33
:1019C0004FF48051C04800F044FB4FF40041BF4841
:1019D00000F03DFBC1A003F073F809E008E007E068
:1019E00006E0C1A003F06CF80020B549087000BF04
:1019F00000BFB0480068A0B9B248007888B910218B
:101A0000B14800F024FB2021AF4800F022FB4FF446
:101A10008051AD4800F01BFB4FF40041AB4800F093
:101A200018FBA4480068012814D1A648007888B99A
:101A30001021A54800F00DFB2021A34800F007FB72
:101A40004FF48051A04800F004FB4FF400419F4840
:101A500000F0FDFA10BD08B5002000900221934867
:101A600001F029FF58B1FFF756FFFFF700FD8F483F
:101A700001F002FF009002218C4801F02DFF08BD0B
:101A800008B5002000900221480701F014FFA0B122
:101A9000FFF7D8F9FEF78FFEFEF7CCFCFEF7D6FD78
:101AA000FEF722FEFEF7A0FE4FF0804001F0E4FEBC
:101AB00000900221480701F00FFF08BD2DE9F04F0B
:101AC0008BB04FF0000A00200990022001F0FAFFCD
:101AD00000287DD0864801F0DCFE099001E00AF183
:101AE000010A84488245FADB0221784800F095FA21
:101AF0000028EED08048006802F06CFD04467F4864
:101B00000168204602F02CFE7AD17948008800F066
:101B1000010030B90121764801F0EFFB0BB0BDE8C0
:101B2000F08FBDF8240042F21071884203DCBDF84A
:101B30002400FA2804DA00216D4801F089FEEDE75F
:101B4000BDF824106EA002F0BBFF71480068BDF81C
:101B5000241008446E4908600021654801F078FEB1
:101B60006C480068401C6B4908600846006802F039
:101B70003AFD06460F466648006802F034FD3246DC
:101B80003B46CDE9000102F0B6FC80460022624BE4
:101B900002F0B1FC02460B46CDE9020100205F498C
:101BA00002F0A9FC00225E4BCDE9040102F0A3FC87
:101BB000044600225B4B02F02CFCCDE9060102F04A
:101BC00050FD83465348006802F00DFD044600E0D6
:101BD00023E00D464E48006802F005FD0646224609
:101BE0002B4602F088FC804602F03BFD5B46024635
:101BF0000890484801684CA002F062FF0DE0FFE742
:101C0000002044490860424908600021384801F03A
:101C100074FB0021364801F01BFE3848006802F0D2
:101C2000F3FC35490860022001F05DFF00BF75E755
:101C300010B50020234908704021454801F02AF8DA
:101C400018B14021424801F057F82021404801F0E6
:101C500021F838B320213E4801F04EF83C4800F00E
:101C6000C6FF3C49087008460078D8B1084600789D
:101C7000302803D10020134908700AE03548007865
:101C8000312806DB33480078382802DC01200D4972
:101C900008703048017830A002F012FF2D4800781B
:101CA0000749087010BD00004C03002000080040E8
:101CB000540300206C000020500300203803002053
:101CC0003403002035030020000C014000080140CF
:101CD000666F72776172640A000000006261636B74
:101CE000776172640A00000073746F700A0000006C
:101CF000002C0140A086010048030020680000205D
:101D000063617074757265203D2025640A000000CF
:101D10004403002040030020006AF8400000F03F28
:101D200000002A4000004E404379636C65203D204E
:101D3000256C64202C50524D5F696E76203D202525
:101D400064202C52504D203D2025640A00000000E4
:101D500000480040580300204765744461746120C6
:101D60003D2025630A00000030B52149B1F1807F94
:101D700001D301201DE021F07F40401E4FF0E02202
:101D8000506150170F22002807DA13071D0E194B58
:101D900000F00F04241F1D5503E013071C0E164B03
:101DA0001C5400BF00204FF0E0229061072010611A
:101DB000002008B100BFFEE74FF0E020006920F0EE
:101DC00001004FF0E021086130BD01B50B490098DA
:101DD00008604FF0E020006940F001004FF0E02182
:101DE000086100BF054800680028FBD108BD00005D
:101DF0004019010018ED00E000E400E05C03002061
:101E0000074A126802F0807242B100BF4FF0604290
:101E10001268002AFAD04FF0604318707047000033
:101E2000FCED00E010B50446C649601A8C422FD084
:101E300009DCC548204480B1B0F5806F16D0B0F5FC
:101E4000006F4AD11BE0B0F5806F2AD0B0F5006F6B
:101E500030D0B0F5406F40D135E00121042000F0D2
:101E6000FFFA0021042000F0FBFA37E001210820EE
:101E700000F0F6FA0021082000F0F2FA2EE001212D
:101E8000102000F0EDFA0021102000F0E9FA25E022
:101E90000121202000F0E4FA0021202000F0E0FAE7
:101EA0001CE00121402000F0DBFA0021402000F07E
:101EB000D7FA13E00121802000F0D2FA002180201F
:101EC00000F0CEFA0AE00121080200F0C9FA002170
:101ED0004FF4807000F0C4FA00E000BF00BF10BDF6
:101EE00010B50121084600F0BBFA0021012000F0E6
:101EF000B7FA10BD2DE9F04102460025002600206A
:101F000000230024002791F803C00CF00F0591F87E
:101F100003C00CF0100CBCF1000F03D091F802C00C
:101F20004CEA050591F800C0BCF1000F31D01468EF
:101F300000202BE04FF0010C0CFA00F3B1F800C0C8
:101F40000CEA03069E4220D183004FF00F0C0CFADE
:101F500003F7BC4305FA03FC4CEA040491F803C000
:101F6000BCF1280F06D14FF0010C0CFA00FCC2F8AE
:101F700014C00AE091F803C0BCF1480F05D14FF03E
:101F8000010C0CFA00FCC2F810C0401C0828D1D388
:101F90001460B1F800C0BCF1FF0F34DD54680020BC
:101FA0002EE000F1080C4FF0010808FA0CF3B1F82C
:101FB00000C00CEA03069E4221D183004FF00F0CB3
:101FC0000CFA03F7BC4305FA03FC4CEA040491F84D
:101FD00003C0BCF1280F05D100F1080C08FA0CF879
:101FE000C2F8148091F803C0BCF1480F07D100F18A
:101FF000080C4FF0010808FA0CF8C2F81080401CD9
:102000000828CED35460BDE8F0814FF6FF710180FF
:10201000022181700421C17070470246002093683C
:102020000B400BB1012000E000207047014688689A
:1020300080B2704702460020D3680B400BB10120EC
:1020400000E0002070470146C86880B27047016117
:102050007047416170470AB1016100E0416170471A
:10206000C16070474FF480320A43826181618261AE
:1020700082698269704702460020344B18684FF627
:102080008073184040EA02100843304B18607047D4
:102090002F49C8617047F0B50A460023002400218B
:1020A00000252A4E7168C0F3034583B200F4401640
:1020B000B6F5401F08D121F07061244E766826F0F5
:1020C0007066224F7E6012E000F48016B6F5801F25
:1020D00006D1032606FA05F4A14341F0706106E03B
:1020E000460D360103FA06F6B14341F0706122B1A4
:1020F000460D360103FA06F63143144E7160F0BD09
:1021000030B500228B071C0F0F2303FA04F20F4B8C
:1021100008338C1053F8243093430C4C08348D1042
:1021200044F8253023468C1053F824308C07240FB4
:1021300000FA04F42343054C08348D1044F825308C
:1021400030BD00000014014000F8FEBF0000014057
:1021500000002042DE48006840F00100DC490860D1
:1021600008464068DB490840D9494860084600688D
:10217000D9490840D64908600846006820F4802004
:1021800008600846406820F4FE004860002088602F
:102190007047CF49096821F48031CD4A116011465A
:1021A000096821F480211160B0F5803F03D0B0F5BB
:1021B000802F0ED106E0C649096841F48031C44A37
:1021C000116007E0C249096841F4A021C04A1160CA
:1021D00000E000BF00BF704710B501460022002399
:1021E00000204A11012A02D1B94C236806E0022AD4
:1021F00002D1B74C236A01E0B54C636A01F01F02BB
:10220000012494401C400CB1012000E0002010BDCE
:1022100038B5002000900024002500BF3120FFF7D2
:10222000DBFF05460098401C00901DB90098B0F5F2
:10223000A06FF3D13120FFF7CFFF08B1012400E0F8
:102240000024204638BD01460020A14A106820F035
:10225000F80040EAC10010607047A049086070476C
:10226000024600209A4B586820F47C1042EA010391
:102270001843974B58607047984908667047014665
:102280000020934A506820F00300084350607047D4
:102290008F48406800F00C007047014600208C4ACF
:1022A000506820F0F000084350607047014600205D
:1022B000874A506820F4E060084350607047014648
:1022C0000020834A506820F4605040EAC10050600A
:1022D000704729B17E4A527A02437D4B5A7204E01C
:1022E0007B4A527A82437A4B5A7270477B49D83183
:1022F0000860704701460020754A506820F440404D
:102300000843506070470021714A20321170704AB2
:1023100082F82010012802D004280AD104E001210B
:102320006B4A2032117005E00521694A2032117094
:1023300000E000BF00BF704769490860704764490A
:10234000096A0143624A116270476549443908606D
:10235000704730B500210022002400235C4D6D68D9
:1023600005F00C0121B1042905D0082923D105E08D
:102370005C4D056022E05B4D05601FE0544D6D68CB
:1023800005F47012022505EB9242514D6D6805F47B
:1023900080341CB9544D554305600BE04C4D6D68BD
:1023A00005F400351DB1504D5543056002E04D4D1B
:1023B0005543056002E04B4D056000BF00BF444D32
:1023C0006D6805F0F0010909484D6B5C0568DD405A
:1023D00045603F4D6D6805F4E061090A434D6B5C53
:1023E0004568DD4085603A4D6D6805F46051C90A65
:1023F0003E4D6B5C4568DD40C560354D6D6805F44C
:102400004041890B3A4D6B5CC568B5FBF3F505613E
:1024100030BD29B12E4A526902432D4B5A6104E066
:102420002B4A526982432A4B5A61704729B1284A84
:1024300092690243264B9A6104E0254A92698243DD
:10244000234B9A61704729B1214AD2690243204B3C
:10245000DA6104E01E4AD26982431D4BDA6170479B
:1024600029B11B4AD2680243194BDA6004E0184ACA
:10247000D2688243164BDA60704729B1144A126958
:102480000243134B1A6104E0114A12698243104B54
:102490001A61704712494039086070470F49C86493
:1024A00070470B49C87170470948406A40F0807016
:1024B00007494862704701460020054A92680A4071
:1024C0000AB1012000E0002070470149887270477E
:1024D000001002400000FFF8FFFFF6FE000042423D
:1024E0008004424200127A0000093D006803002087
:1024F0007803002001460022C448814201D1042211
:1025000021E0C248814201D104221CE0C04881423E
:1025100001D1082217E0BF48814201D1102212E008
:10252000BD48814201D120220DE0BC48814201D149
:10253000402208E0BA48814201D1802203E0B94834
:10254000814200D1821590B270472DE9F8430746C9
:102550000C4615461E464FF00008C1463846FFF7A8
:10256000C9FF80462846FFF7C5FF81460121404646
:10257000FFF75CFF01214846FFF758FFADF8004028
:1025800003208DF8020014208DF8030069463846B8
:10259000FFF7B0FCADF8006003208DF802001420B6
:1025A0008DF8030069462846FFF7A4FC4FF400614C
:1025B0009648FFF74CFD4FF480519448FFF747FDD4
:1025C000BDE8F883052000BF0100A0F10100FBD1A8
:1025D000704710B54FF400618C48FFF738FDFFF7E6
:1025E000F1FF4FF480518948FFF731FDFFF7EAFF13
:1025F00086480830006800F4006008B9012010BD6A
:102600004FF400618148FFF724FDFFF7DBFF4FF433
:1026100080517E48FFF71DFDFFF7D4FF7B4808304F
:10262000006800F40060012801D10220E7E70020E3
:10263000E5E710B54FF400617448FFF70AFDFFF7B6
:10264000C1FF4FF480517148FFF701FDFFF7BAFF5A
:102650004FF400616D48FFF7FAFCFFF7B3FF10BDC0
:1026600010B54FF400616948FFF7F3FCFFF7AAFFCC
:102670004FF480516548FFF7EAFCFFF7A3FF4FF4E2
:1026800080516248FFF7E5FCFFF79CFF10BD10B5D5
:102690004FF400615D48FFF7DAFCFFF793FF4FF45A
:1026A00080515A48FFF7D3FCFFF78CFF4FF480515D
:1026B0005648FFF7CEFCFFF785FF10BD70B5044606
:1026C0004FF480515148FFF7C4FC002521E004F08D
:1026D000800028B14FF400614C48FFF7B8FC04E0DB
:1026E0004FF400614948FFF7B4FC6006040EFFF7A1
:1026F00069FF4FF480514548FFF7A9FCFFF762FFDF
:102700004FF480514148FFF7A4FCFFF75BFF681CC2
:10271000C5B2082DDBDB4FF400613C48FFF797FCA6
:10272000FFF750FF4FF480513848FFF790FCFFF758
:1027300049FF36480830006800F4006030B14FF4BB
:1027400080513248FFF785FC002070BD4FF4805166
:102750002E48FFF77EFC0120F7E770B500244FF408
:1027600000612A48FFF773FC4FF480512748FFF7B8
:1027700070FC00BF002519E04FF480512348FFF79B
:1027800066FCFFF71FFF6006040E20480830006853
:1027900000F4006008B144F001044FF480511B487C
:1027A000FFF757FCFFF70EFF681CC5B2082DE3DBEF
:1027B000204670BD70B506460C461546FFF709FF6A
:1027C0003046FFF77BFF2046FFF778FF2846FFF7EC
:1027D00075FFFFF72EFF70BD70B504460D46FFF77D
:1027E000F8FE2046FFF76AFF2846FFF767FFFFF76E
:1027F000F0FE611CC8B2FFF761FFFFF7AEFF0646AF
:10280000FFF745FFFFF715FF304670BD0008014098
:10281000000C01400010014000140140001801406C
:10282000001C014000200140002107E0002200E0E0
:10283000521C47F230539A42FADB491C8142F5DBC5
:10284000704710B56420FFF7EFFF00226B21D02006
:10285000FFF7B0FF07221921D020FFF7ABFF0622B8
:102860001A21D020FFF7A6FF18221B21D020FFF746
:10287000A1FF01221C21D020FFF79CFF6420FFF75D
:10288000D3FF10BD10B54FF48053464AD114104603
:10289000FFF75BFEFFF7D5FF10BD70B500240025E4
:1028A00000263B21D020FFF797FF05463C21D02092
:1028B000FFF792FF064646EA052004B2204670BDA7
:1028C00070B50024002500263D21D020FFF784FFAD
:1028D00005463E21D020FFF77FFF064646EA052049
:1028E00004B2204670BD70B50024002500263F21AB
:1028F000D020FFF771FF05464021D020FFF76CFF85
:10290000064646EA052004B2204670BD70B5002494
:10291000002500264321D020FFF75EFF0546432116
:10292000D020FFF759FF064646EA052004B22046AC
:1029300070BD70B50024002500264521D020FFF78A
:102940004BFF05464521D020FFF746FF064646EAE5
:10295000052004B2204670BD70B500240025002675
:102960004721D020FFF738FF05464721D020FFF749
:1029700033FF064646EA052004B2204670BD70B516
:102980000024002500264121D020FFF725FF054621
:102990004221D020FFF720FF064646EA052004B278
:1029A000204670BD0008014010B50446D749601AA2
:1029B0008C422BD006DCD648204498B1B0F5806F0D
:1029C00038D119E0B0F5806F2AD0B0F56C4F31D115
:1029D00001218803FFF744FD00214FF48040FFF7F9
:1029E0003FFD28E001214804FFF747FD00214FF497
:1029F0000030FFF742FD1EE001218804FFF73DFD96
:102A000000214FF48020FFF738FD14E00121C804B5
:102A1000FFF733FD00214FF40020FFF72EFD0AE001
:102A200001210805FFF729FD00214FF48010FFF771
:102A300024FD00E000BF00BF10BD2DE9F04786B0C7
:102A400005460E460024A24600BF00BF00272F46C1
:102A50002C8A4CF6FF700440F08804432C82AC8929
:102A60004EF6F3100440B088318908437189084359
:102A70000443AC81AC8A4FF6FF400440B089044364
:102A8000AC8201A8FFF765FCA248874202D1DDF8BD
:102A900010A001E0DDF80CA00AEBCA0000EB0A1060
:102AA00031688900B0FBF1F86420B8FBF0F0040154
:102AB0002009642101FB1089322000EB0910B0FBD2
:102AC000F1F000F00F0004432C8106B0BDE8F08760
:102AD0004FF41651016000218180C18001810C21D9
:102AE000418100218181704710B502460020108A83
:102AF0004FF2FF0318400B884C8823438C882343F4
:102B0000CC8823431843108210BD002101804180EE
:102B10008180C180704721B1828942F40052828154
:102B200004E082894DF6FF731A4082817047F0B548
:102B3000034600240026002500201846C1F3421455
:102B400001F01F06012707FA06F5012C01D10C3010
:102B500004E0022C01D1103000E014301AB10768F3
:102B60002F43076002E00768AF430760F0BD1AB16A
:102B7000838A0B43838202E0838A8B43838270477C
:102B8000028A4FF6F0731A400282028A0A430282D6
:102B9000704782894FF2FF731A40828182890A430B
:102BA0008281704721B1828942F00202828104E071
:102BB00082894FF6FD731A4082817047028A4FF670
:102BC000DF731A400282028A0A430282704721B1EF
:102BD000028A42F48042028204E0028A4BF6FF73CA
:102BE0001A4002827047C1F3080282807047014692
:102BF0008888C0F308007047818941F00101818114
:102C00007047028BD2B20283028B42EA0122028316
:102C10007047028B02F47F420283028B0A430283D5
:102C2000704721B1828A42F02002828204E0828AC7
:102C30004FF6DF731A408282704721B1828A42F0D8
:102C40001002828204E0828A4FF6EF731A40828279
:102C5000704721B1828A42F00802828204E0828AAF
:102C60004FF6F7731A4082827047828A4FF6FB73E1
:102C70001A408282828A0A438282704721B1828A04
:102C800042F00202828204E0828A4FF6FD731A400B
:102C9000828270470246002013880B400BB101204E
:102CA00000E000207047CA430280704770B50246BA
:102CB0000B460024002100250020C3F3421503F039
:102CC0001F01012606FA01F1012D02D1968931403A
:102CD00006E0022D02D1168A314001E0968A314089
:102CE0001C12012606FA04F41688344011B10CB106
:102CF000012000E0002070BD10B5002200230A1260
:102D000001249440A3B2DC43048010BD004C004079
:102D100000BCFFBF0038014010B50446F749601AF7
:102D20008C4245D00CDCB4F1804F1DD0F4482044D7
:102D300018B3B0F5806F29D0B0F5006F54D12EE0F4
:102D4000B0F5806F3DD0B0F58E3F03D0B0F5923F27
:102D50004AD13FE00121C802FFF782FB00214FF476
:102D60000060FFF77DFB40E001210846FFF785FB8F
:102D700000210120FFF781FB37E001210220FFF74E
:102D80007CFB00210220FFF778FB2EE001210420CC
:102D9000FFF773FB00210420FFF76FFB25E0012103
:102DA0000820FFF76AFB00210820FFF766FB1CE004
:102DB00001211020FFF761FB00211020FFF75DFBD0
:102DC00013E001212020FFF758FB00212020FFF70E
:102DD00054FB0AE001214803FFF742FB00214FF4B6
:102DE0000050FFF73DFB00E000BF00BF10BD0288B0
:102DF00002F08F020280CA884B881A4303881A4364
:102E000002808A8882850A880285BE4A904202D062
:102E1000BD4A904201D10A7A02860122828270471D
:102E200070B5002400220023058C4FF6FE76354055
:102E30000584028C8388048B4FF68F752C400D8897
:102E40002C43751E2A400D892A434D882A43CD887C
:102E50008586AC4DA84202D0AB4DA84213D14FF6A7
:102E6000F7752A404D892A434FF6FB752A408D8815
:102E70002A4347F6FF652B4047F6FF552B408D89C7
:102E80002B43CD892B4383800483028470BD70B5AE
:102E9000002400220023058C4FF6EF763540058490
:102EA000028C8388048B48F6FF752C400D884FF602
:102EB000FF7606EA05252C434FF6DF752A400D897B
:102EC00006EA05152A434D8806EA05152A43CD88EA
:102ED00005878C4DA84202D08B4DA8421DD14FF6DC
:102EE0007F752A404D894FF6FF7606EA05152A437D
:102EF0004FF6BF752A408D8806EA05152A4347F626
:102F0000FF352B4047F2FF752B408D8906EA85057A
:102F10002B43CD8906EA85052B43838004830284F5
:102F200070BD70B5002400220023058C4FF6FF66AB
:102F300035400584028C8388848B4FF68F752C4036
:102F40000D882C434FF6FF552A400D894FF6FF762A
:102F500006EA05252A434D8806EA05252A43CD8839
:102F60008587684DA84202D0674DA8421DD14FF217
:102F7000FF752A404D894FF6FF7606EA05252A435C
:102F80004FF6FF352A408D8806EA05252A4346F686
:102F9000FF752B4045F6FF752B408D8906EA051518
:102FA0002B43CD8906EA05152B4383808483028455
:102FB00070BD70B5002400220023058C4EF6FF760C
:102FC00035400584028C8388848B48F6FF752C403D
:102FD0000D884FF6FF7606EA05252C434DF6FF7562
:102FE0002A400D8906EA05352A434D8806EA05354B
:102FF0002A43CD88A0F84050424DA84202D0424D0D
:10300000A84207D1C3F30D038D894FF6FF7606EA78
:1030100085152B4383808483028470BD828B4FF29D
:10302000FF331A408283828B4FF6FF7303EA01233A
:103030001A4382837047F0B50C46154600210022E2
:103040000026078C4EF6FF7C07EA0C070784818B6D
:10305000028C4FF6FF7707EA043640F6FF47394007
:103060004FF6FF7707EA05274FF6FF7C0CEA033C93
:1030700047EA0C0739434DF6FF773A4046F480574C
:103080003A4381830284F0BD828B4FF6F3731A407A
:103090008283828B0A4382837047F0B50C461546C3
:1030A000002100220026078C4FF6FF6C07EA0C0770
:1030B0000784818B028C4FF6FF7707EA04264FF6D0
:1030C0000C7739404FF6FF7707EA03172F43394350
:1030D0004FF6FF573A4046F480773A4381830284A3
:1030E000F0BD028B4FF2FF331A400283028B4FF682
:1030F000FF7303EA01231A43028370470010004064
:1031000000FCFFBF002C014000340140F0B50C462C
:103110001546002100220026078C4FF6EF7C07EAB7
:103120000C070784018B028C4FF6FF7707EA041621
:1031300040F6FF4739404FF6FF7707EA0337394338
:103140004FF6FF7707EA052739434FF6DF773A4016
:1031500046F010073A4301830284F0BD028B4FF61C
:10316000F3731A400283028B0A4302837047F0B55F
:103170000C46154600210022068C4FF6FE773E4095
:103180000684018B028C4FF60C7631407E1C06EAD9
:1031900003162E4331437E1E324044F00106324373
:1031A00001830284F0BD70B505460C46208850B9F5
:1031B0002389A28861882846FFF7D9FFE18828463D
:1031C000FFF7CCFF25E0208804280AD12389A288B4
:1031D00061882846FFF79AFFE1882846FFF781FFBC
:1031E00017E0208808280AD12389A2886188284608
:1031F000FFF753FFE1882846FFF746FF09E02389E0
:10320000A28861882846FFF716FFE1882846FFF765
:1032100005FF70BD2DE9F04105460C46002601274B
:10322000608808B9022600E00026A088012801D1A4
:10323000022700E001272088A0B92389A28861889D
:103240002846FFF794FFE1882846FFF787FF238988
:103250003A4631462846FFF759FFE1882846FFF7EE
:1032600040FF13E02389A28861882846FFF74EFFBC
:10327000E1882846FFF735FF23893A46314628463C
:10328000FFF775FFE1882846FFF768FFBDE8F0818A
:103290000A884B881A438B881A43CB881A430B89B8
:1032A0001A434B891A438B891A43A0F8442070476C
:1032B0004FF6FF71818000210180C1804180017241
:1032C00070470021018041808180C180018141815E
:1032D0008181C1817047002101804180012181806D
:1032E0000021C180018170470021018041808180DF
:1032F000C180018141818181704721B1028842F002
:103300000102028004E0028840F2FE331A4002808B
:10331000704731B1B0F8442042F40042A0F8442094
:1033200005E0B0F84420C2F30E02A0F84420704734
:103330001AB183890B43838102E083898B438381A4
:1033400070478182704741EA0203A0F84830704715
:103350001AB183890B43838102E083898B43838184
:10336000704701894FF6F8721140018170470A4693
:10337000002101894FF68F73194011430181704775
:1033800030B504460D4629462046FFF7F0FF208958
:1033900040F00700208130BD2DE9F04104460D4684
:1033A00016461F46602D06D13B4601223146204677
:1033B000FFF7ACFE05E03B46012231462046FFF711
:1033C000D6FE29462046FFF7D2FF208940F00700AD
:1033D0002081BDE8F08170B50C4600210189C9B299
:1033E00044EA02054FF6FF7606EA032635432943F1
:1033F000018170BD2DE9F04105460E4617469846FD
:10340000002443463A4631462846FFF7E4FF2C891C
:103410004FF6F870044044F007044FF68F700440F4
:1034200044F070042C81BDE8F081F0B504460D46EF
:1034300016461F463B46324629462046FFF7CBFF3D
:10344000208940F480402081F0BD01858282704750
:103450000A460021018840F28F3319401143018050
:103460007047F0B50C4615461E4600210022002389
:103470000189028B038C4FF6F877394021434FF6D0
:10348000FC473A4040F201173A434FF6DD773B40A4
:103490004FF6FF7707EA06172F433B43018102836C
:1034A0000384F0BD0A460021018B4FF68F7319404B
:1034B0001143018370470A460021018B48F6FF73D0
:1034C00019404FF6FF7303EA022319430183704743
:1034D0000A460021818B4FF68F7319401143818377
:1034E00070470A460021818B48F6FF7319404FF65A
:1034F000FF7303EA022319438183704721B10288D5
:1035000042F08002028004E0028840F27F331A40D9
:103510000280704721B1828842F00402828004E078
:1035200082884FF6FB731A408280704721B18288EF
:1035300042F00802828004E082884FF6F7731A4056
:103540008280704721B1828842F00102828004E0CB
:1035500082884FF6FE731A40828070470A46002127
:10356000018B4FF6F77319401143018370470A46E8
:103570000021018B4FF2FF7319404FF6FF7303EAEE
:1035800002231943018370470A460021818B4FF6BD
:10359000F77319401143818370470A460021818BDC
:1035A0004FF2FF7319404FF6FF7303EA02231943EA
:1035B000818370470A460021018B4FF6FB73194047
:1035C0001143018370470A460021018B4FF6FF33F8
:1035D00019404FF6FF7303EA022319430183704732
:1035E0000A460021818B4FF6FB73194011438183FA
:1035F00070470A460021818B4FF6FF3319404FF682
:10360000FF7303EA02231943818370470A460021AE
:10361000018B4FF67F7319401143018370470A46AF
:103620000021018BC1F30E014FF6FF7303EA022361
:103630001943018370470A460021818B4FF67F733F
:1036400019401143818370470A460021818BC1F3E1
:103650000E014FF6FF7303EA02231943818370477B
:103660000A460021018C4FF6FD7319401143018475
:1036700070470A460021018C4FF6F7731940114339
:10368000018470470A460021018C4FF6DF73194010
:103690004FF6FF7303EA02131943018470470A4689
:1036A0000021018C4FF67F7319404FF6FF7303EA38
:1036B00002131943018470470A460021018C4FF61A
:1036C000FF5319404FF6FF7303EA022319430184A5
:1036D00070470A460021018C4FF2FF7319404FF6E4
:1036E000FF7303EA02231943018470470A4600214D
:1036F000018C4DF6FF7319404FF6FF7303EA023356
:1037000019430184704710B5038C01248C40A343F6
:103710000384038C02FA01F4A4B22343038410BD92
:1037200010B5038C04248C40A3430384038C02FA59
:1037300001F4A4B22343038410BD30B5038C0124EB
:103740008C40A343038409B1082918D100F1180360
:1037500003EB61031B684FF68F74234000F11804DC
:1037600004EB6104236000F1180303EB61031B68A1
:10377000134300F1180404EB610423601FE00B1FE6
:10378000C3F34E0400F118031B5948F6FF7423409D
:103790000C1FC4F34E0500F1180463510B1FC3F353
:1037A0004E0400F118031B594FF6FF7404EA02247B
:1037B00023430C1FC4F34E0500F11804635130BDC0
:1037C00021B1028842F00202028004E0028840F245
:1037D000FD331A400280704721B1028842F0040292
:1037E000028004E0028840F2FB331A4002807047F6
:1037F00021B1828842F08002828004E082884FF604
:103800007F731A4082807047028840F2F7331A4073
:10381000028002880A430280704782884FF68F73C5
:103820001A40828082880A438280704702894FF65C
:10383000F8731A40028102890A43028170470289A3
:103840004FF67F731A40028102890A430281704752
:1038500081847047818570478186704701877047F2
:1038600081877047A0F8401070470288D2B202806A
:1038700002880A43028070470146888E70470146DD
:10388000088F70470146888F70470146B1F84000A5
:1038900070470146888C70470146088D7047024684
:1038A0000020138A0B400BB1012000E0002070477C
:1038B000CA430282704730B502460020002300242C
:1038C000158A05EA0103958905EA010413B10CB1D3
:1038D000012000E0002030BDCA4302827047000092
:1038E00031490143314A1160704770B5002100230E
:1038F0000F22C47804B32D4C246804F4E064C4F5AA
:10390000E064210AC1F10403CA40447804FA03F1D7
:103910008478144021430901254C0678A155047888
:1039200004F01F050124AC4005786D11AD0005F1D0
:10393000E025C5F8004109E0047804F01F050124E2
:10394000AC401C4D0678761145F8264070BD1A4AE9
:103950000A400243154B1B1F1A60704739B1134AC6
:10396000121D12680243114B1B1D1A6006E00F4A1C
:10397000121D126882430D4B1B1D1A6070470428EC
:1039800008D14FF0E021096941F004014FF0E02235
:10399000116107E04FF0E021096921F004014FF0C7
:1039A000E0221161704700000000FA050CED00E014
:1039B00000E400E080E100E080FFFF1F00204C49B0
:1039C0000860091D0860091D0860091D0860494854
:1039D00047491431086070478179002946D044492D
:1039E000096802689143424A1160111D0968026822
:1039F00091433F4A121D116001793F4A1144D1F8A9
:103A000000140268114302793B4B1A44C2F80014B7
:103A100037490831096802689143354A0832116014
:103A2000111D096802689143314A0C3211604179D5
:103A300010290ED1111F0968026811432C4A08325F
:103A40001160111D096802681143294A0C32116086
:103A500018E04179284A1144D1F800140268114352
:103A60004279254B1A44C2F800140BE00179224A2E
:103A70001144D1F800140268914302791E4B1A4494
:103A8000C2F8001470470021016001710C214171DE
:103A90000021817170471649103109680143144AA9
:103AA00010321160704701460020114A143212682A
:103AB0000A400AB1012000E0002070470C4914318F
:103AC00008607047014600200022094B1B6803EA8A
:103AD0000102074B14331B680B4013B10AB10120DC
:103AE00000E0002070470249143108607047000070
:103AF00000040140FFFF07000000014001464906A5
:103B0000FE4A926942F00102FC4B9A61FC4A5268FB
:103B100022F0E062FA4B5A601A4652680A435A6031
:103B2000704770B504460E4626B10121F548FEF7F0
:103B30008EFA03E00121F348FEF78BFA002517E027
:103B40000821F148FEF785FA04F0800020B1042135
:103B5000ED48FEF77CFA03E00421EB48FEF779FA22
:103B60000821E948FEF773FA6006040E681CC5B226
:103B7000082DE5DB0121E348FEF769FA70BD70B559
:103B800000241CE004F1B001C8B20021FFF7C9FF16
:103B900000210846FFF7C5FF00211020FFF7C1FFF5
:103BA000002508E0D94901EBC501085D0121FFF7B7
:103BB000B8FF681CC5B2802DF4DB601CC4B2082CB1
:103BC000E0DB70BD10B500218D20FFF7AAFF0021BA
:103BD0001420FFF7A6FF0021AF20FFF7A2FF10BDC2
:103BE00010B500218D20FFF79CFF00211020FFF76A
:103BF00098FF0021AE20FFF794FF10BD70B50024A0
:103C00000CE0002506E00020C04901EBC501085585
:103C1000681CC5B2802DF6DB601CC4B2082CF0DB3A
:103C2000FFF7ADFF70BDF0B5144600267F2801DC1C
:103C30003F2900DDF0BD0B46CF1701EB5777FF1092
:103C4000C7F10707FAB2CF1701EB5777FF10A1EBC7
:103C5000C707FDB2C5F107070123BB40DEB24CB177
:103C6000AA4B03EBC0039B5C3343A84F07EBC00791
:103C7000BB5408E0A54B03EBC0039B5CB343A34FCD
:103C800007EBC007BB5400BFD4E72DE9F047064659
:103C90000F4690469946DDF820A034460CE03D469C
:103CA00006E0524629462046FFF7BDFF681CC5B214
:103CB0004D45F6DD601CC4B24445F0DDFFF75FFF03
:103CC000BDE8F0872DE9F04F80460C4615461E46AC
:103CD000A346A5F12000C5B200273EE00C2E07D177
:103CE00005EB45008A4901EB800010F8079004E0DD
:103CF000884800EB051010F807904FF0000A26E006
:103D000009F0800028B121464046099AFFF78BFF51
:103D100009E0099808B9012000E000200246214688
:103D20004046FFF780FF4FEA49604FEA1069601C88
:103D3000C4B2A4EB0B00B04205D15C4608F101000F
:103D400000F0FF0806E00AF1010000F0FF0ABAF1F6
:103D5000080FD5DB00BF781CC7B2B742BEDBBDE899
:103D6000F08F10B50246012000E050430B00A1F196
:103D70000104E1B2F9D110BD2DE9FF4F81B0074632
:103D800091461E460E9D4FF0000A002439E0301B7C
:103D9000401EC1B20A20FFF7E4FFB9FBF0F00A2190
:103DA000B0FBF1F201FB1208BAF1000F16D1701E40
:103DB000A04213DDB8F1000F0ED10120AB4605EB98
:103DC000DB71491001FB04710090C8B22B46202220
:103DD0000299FFF777FF12E04FF0010A0120AB468E
:103DE00005EBDB71491001FB04710090C8B208F1CA
:103DF0003001CAB22B460299FFF764FF00BF601C76
:103E0000C4B2B442C3DB05B0BDE8F08FF8B50546D7
:103E10000E46144618E07A2D03DD002506F1100049
:103E2000C6B23A2E04DD002005460646FFF7E6FE40
:103E30000120009022780C2331462846FFF742FFEC
:103E400005F10800C5B2641C20780028E3D1F8BD54
:103E500010B52A48806940F0040028498861084666
:103E6000806940F0080088612648006820F0FF0063
:103E7000244908600846006840F023000860224892
:103E8000006820F47F40204908600846006840F43C
:103E90000C50086002211B48FEF7DBF86420FDF798
:103EA00094FF02211748FEF7D2F80021AE20FFF759
:103EB00038FE0021D520FFF734FE00215020FFF707
:103EC00030FE0021A820FFF72CFE00213F20FFF745
:103ED00028FE0021D320FFF724FE00210846FFF72B
:103EE00020FE00214020FFF71CFE00218D20FFF75F
:103EF00018FE00211420FFF714FE0DE00010024010
:103F000000000140000C014000080140A008002012
:103F100044520008B856000800212020FFF701FE97
:103F200000210220FFF7FDFD0021A120FFF7F9FD90
:103F30000021C020FFF7F5FD0021DA20FFF7F1FD99
:103F400000211220FFF7EDFD00218120FFF7E9FDA0
:103F50000021EF20FFF7E5FD0021D920FFF7E1FD6B
:103F60000021F120FFF7DDFD0021DB20FFF7D9FD67
:103F700000213020FFF7D5FD0021A420FFF7D1FD5F
:103F80000021A620FFF7CDFD0021AF20FFF7C9FDDE
:103F9000FFF734FE10BD10B500240460446081605A
:103FA000C260036110BD2DE9F84F04460E46154668
:103FB0003146206800F010F900906068009900F028
:103FC000B9F860602946206900F00CF98146616803
:103FD000E06800F007F98246A068009900F002F955
:103FE0008346514600F0A6F88046494600F0A2F804
:103FF000074600F009FBBDE8F88F00000CB5002073
:10400000019000904748006840F4803045490860BE
:1040100000BF4448006800F4003000900198401C44
:104020000190009818B90198B0F5A06FF1D13D4802
:10403000006800F4003010B10120009001E0002081
:1040400000900098012844D13748006840F01000E3
:10405000354908600846006820F0030008600846FB
:10406000006840F0020008602E4840682D49486012
:104070000846406848600846406840F480604860F0
:104080000846406820F47C1048600846406840F4C8
:10409000E81048600846006840F08070086000BF83
:1040A0002048006800F000700028F9D01D484068E2
:1040B00020F003001B4948600846406840F00200B9
:1040C000486000BF1748406800F00C000828F9D18C
:1040D00001E000BFFEE70CBD10B5FFF78FFF10BD7C
:1040E00010B51048006840F001000E49086008460D
:1040F00040680E4908400B494860084600680C4972
:104100000840084908600846006820F480200860DC
:104110000846406820F4FE00486000208860FFF7F1
:10412000DBFF10BD00100240002002400000FFF83D
:10413000FFFFF6FEF0B480EA0102D40F4200B2EBBA
:10414000410F02D20246084611464A0042D0C30D32
:10415000DDB2C1F3C752AD1A202D35DAC1F3160115
:1041600041F4000204B15242C5F1200602FA06F100
:104170002A411044B3EBD05F23D0C4B1012DA0EB92
:10418000C35009DCF0BC4FF0004202EAC352DBB27C
:1041900000F5000000F063BB400000F1807000EB10
:1041A000C350A0F1807040EAD170490009E049088D
:1041B00041EAC071A0EBC35000F50000400800EBDD
:1041C000C350F0BC00F042BB6142012202EB41014E
:1041D000001BF6E7F0BC704781F00041AAE780F0D1
:1041E0000040A7E780EA010210B502F0004340005A
:1041F00022D04A001FD0010E01EB1261C0F356001D
:10420000C2F3560240F4000042F40002A0FB022078
:1042100000047F39140400D0401C50EA124001D43D
:104220004000491EC2B20C0604EBD010401C4008EE
:10423000802A02D003E0002010BD20F001000029F8
:1042400000DA0020184310BD30B480EA010202F009
:10425000004530F0004221F0004013D090B1C30D72
:10426000D40DC2F31601C0F31600E41A41F40001A4
:1042700040F400027D34914201D3641C00E0490007
:10428000002C02DA30BC002070474FF400000023FD
:10429000914201D3891A034340084FEA4101F7D103
:1042A00051B1914202D14FF0004105E002D24FF0EE
:1042B000010101E06FF0010103EBC450284430BC60
:1042C00000F0C4BA2DE9FE4F804681EA0300C00F1A
:1042D0000C46009021F0004123F00045B8EB0200AD
:1042E000A94105D24046214690461C460B4602464F
:1042F00023F00040104347D0270DC7F30A00C3F353
:104300000A510290401A019040286BDAC3F313005F
:1043100040F4801B0098924620B10023D2EB030AA0
:1043200063EB0B0B01985946C0F14002504600F078
:104330005CFA06460D4650465946019A00F074FA5A
:1043400010EB08006141002487EA115284EAE77308
:104350001A4340D0009A62B3019A012A4FEA0752E9
:1043600015DC001B61EB02014FF0004202EA07522C
:10437000CDE90042001C41F5801132462B4600F089
:10438000ABFA03B0BDE8F08F40462146F9E7001BC9
:1043900061EB0201001C41F5801300185B412018FD
:1043A000A2F5001747EB030140EAD570B6196D413D
:1043B00011E06D084FEA360645EAC0754FEA07522C
:1043C000001B61EB0201001C41F5801149084FEA16
:1043D00030000019514132462B4603B0BDE8F04F82
:1043E00000F06BBA0098012240000023D0EB0202DB
:1043F00063EBE073009821464FEAE074B8EB0000ED
:1044000061EB0401E9E783F000435BE781F00041E1
:1044100058E72DE9FE4F81EA030404F0004421F03F
:10442000004100944FF0000B23F0004350EA0104D8
:104430005ED052EA03045BD0C3F30A54C1F30A55B9
:104440002C44A4F2F3340194A0FB0254C1F31301F1
:1044500041F48011C3F3130343F4801301FB0244BE
:1044600000FB034E840A970A44EA815447EA8357C3
:10447000A4FB076802958D0A05FB07854FEA932C7C
:1044800004FB0C542705029D4FEA065847EA1637ED
:10449000B5EB08056EEB070C870E920E47EA811705
:1044A00042EA8312A7FB0201B6EB0B0164EB0004A6
:1044B0002B0D43EA0C335E1844EB1C50DA46514690
:1044C000E7FB0201C5F313044FEA0B3343EA14532D
:1044D0004FEA0432019C43EA0603A4F10C0402945F
:1044E000009CCDE900B400F0F7F903B0BDE8F08F0F
:1044F00000200146F9E72DE9F04D81EA030404F0BC
:10450000004B21F0004514464FF0000A23F0004113
:1045100050EA050220D054EA01021DD0C5F30A5723
:104520000246C5F31303C1F31300C1F30A5640F466
:10453000801543F48013A7EB0608101BD64608F23B
:10454000FD3873EB050002D308F1010801E0921871
:104550005B41B8F1000F03DA00200146BDE8F08DA1
:1045600000204FF48011064684460EE0171B73EBC3
:10457000050705D3121B63EB050306434CEA010C48
:1045800049084FEA300092185B4150EA0107EDD12B
:1045900052EA030012D082EA040083EA05010843CC
:1045A00005D0101BAB4106D20122002306E00022F9
:1045B0004FF0004302E06FF0010253101AEB0600C7
:1045C0004CEB085110EB0A0041EB0B01BDE8F04D3C
:1045D00000F073B9C10F80EAE0700844CA0796235F
:1045E000002100F03CB90EB5C10F80EAE07008442C
:1045F000CA07002140F233438DE80E000A460B46FD
:1046000000F06AF903B000BD00F0004220F0004065
:10461000C10DC0F3160040F400007F2901DA00202C
:104620007047962903DCC1F19601C84001E0963934
:104630008840002AF4D04042704720F00040C10D6D
:10464000C0F3160040F400007F2901DA0020704713
:10465000962903DCC1F19601C8407047963988401D
:10466000704770B5C1F30A5201F000450024C1F350
:10467000130140F2FF3341F480119A4201DA002025
:1046800070BD40F233439A42A2F2334203DC5242FD
:1046900000F0BAF800E090402C43F1D0404270BDE9
:1046A00000F0004230F000400AD0C10D01F5607109
:1046B000C0F3160042EA0151C20840071143704797
:1046C000002001467047000030B5041E71F100045F
:1046D00004DB4FF00044404264EB0101141E73F10F
:1046E000000405DB1C464FF00043524263EB040319
:1046F0008B4208BF824230BD30B5041E71F1000408
:1047000004DB4FF00044404264EB0101141E73F1DE
:10471000000405DB1C464FF00043524263EB0403E8
:10472000994208BF904230BD01F0004330B421F0FF
:10473000004150EA010206D00A0DA2F56072C1F3F1
:104740001301002A02DC30BC00207047440F44EA09
:10475000C104C100E01830BC00EBC25000F076B8D4
:10476000002801DBC0F10040002901DBC1F100415C
:1047700081427047002801DBC0F10040002901DBC5
:10478000C1F10041884270472DE9F05F05460020E5
:1047900092469B4688460646814640241BE02846B2
:1047A00041464746224600F02FF853465A46C01A63
:1047B000914110D311461846224600F016F82D1AE2
:1047C00067EB01084F4622460120002100F00DF85A
:1047D00017EB00094E41201EA4F10104DFDC48461E
:1047E00031462A464346BDE8F09F202A04DB203AA2
:1047F00000FA02F1002070479140C2F1200320FA34
:1048000003F3194390407047202A04DB203A21FA31
:1048100002F00021704721FA02F3D040C2F12002D9
:104820009140084319467047202A06DBCB17203AEF
:1048300041FA02F043EAE07306E041FA02F3D040A5
:10484000C2F1200291400843194670470029A8BFD1
:104850007047401C490008BF20F00100704710B4A9
:10486000B0FA80FC00FA0CF050EA010404BF10BC5E
:10487000704749B1CCF1200421FA04F411FA0CF18B
:1048800018BF012121430843A3EB0C01CB1D4FEAC4
:1048900000614FEA102042BF002010BC704700EBBF
:1048A000C35010440029A4BF10BC7047401C4900ED
:1048B00008BF20F0010010BC704710B5141E73F142
:1048C000000408DA401C41F1000192185B411A43D0
:1048D00001D120F0010010BD2DE9F04D92469B461C
:1048E00011B1B1FA81F202E0B0FA80F220329046C2
:1048F000FFF77BFF04460F4640EA0A0041EA0B013E
:1049000053465A46084313D0114653EA010019D0C2
:10491000C8F140025046FFF777FF05460E46504665
:1049200059464246FFF761FF084305D0012004E0E5
:1049300020463946BDE8F08D0020054346EAE07682
:104940002C4337430A986305E40AA0EB08000022D1
:10495000FD0A44EA47540A3002D500200146E9E73F
:10496000010510196941DDE9084500196941BDE8F3
:10497000F04DA2E770B521F0004303430CD0C1F322
:104980000A550024D5EB040564EB0403D617AD1AD1
:10499000B34102DB0020014670BD201841EB0251FB
:1049A00070BD2DE9F04D00231A461B1A8A4103DB26
:1049B00000200146BDE8F08DC1F30A52C1F3130196
:1049C00041F480154FF0000BD10702D100186D4162
:1049D000521E0027044640F2FF11384601EB620ADE
:1049E0003E468046024600204FF48011FFF70CFF40
:1049F000C2197141BB1846EB0100B4EB030C75EB17
:104A0000000C04D3E41A65EB000517460E46241982
:104A100008F101006D4180463428E3DDF91946EBC9
:104A20000600091BA84103D24FF0FF32134601E0F4
:104A3000002213461BEB070046EB0A51BDE8F04D80
:104A4000FFF73BBF064C074D06E0E06840F001036E
:104A500094E8070098471034AC42F6D3FBF74AFBC2
:104A6000485D0008685D000870B58C1810F8015B9F
:104A700015F0070301D110F8013B2A1106D110F8F7
:104A8000012B03E010F8016B01F8016B5B1EF9D1FB
:104A90002B0705D40023521E0DD401F8013BFAE781
:104AA00010F8013BCB1A921C03E013F8015B01F8EC
:104AB000015B521EF9D5A142D8D3002070BD000081
:104AC0000FB4054B10B503A9044A029800F0A8F8EA
:104AD00010BC5DF814FB0000011E000860030020FC
:104AE0000FB4084B10B504A902AA039800F098F877
:104AF000044602A9002000F0A9F9204610BC5DF888
:104B000014FB00004D4E0008490050EAC12018BFB8
:104B100004204A0D18BF40F0010040F2FF72B2EBD2
:104B2000515F08BF40F00200012808BF0520704710
:104B30002DE9F0414F1E00EBC7010446D1E9000109
:104B400015461E4637F006020DD02A463346FFF7BB
:104B500060FC7F1E04EBC703D3E90023FFF7B2FB21
:104B600037F00602F1D1022F25D0042F13D0062FE3
:104B700018BFBDE8F0812A463346FFF74AFCD4E966
:104B80000A23FFF79FFB2A463346FFF742FCD4E98E
:104B90000823FFF797FB2A463346FFF73AFCD4E990
:104BA0000623FFF78FFB2A463346FFF732FCD4E992
:104BB0000423FFF787FB2A463346FFF72AFCD4E994
:104BC0000223FFF77FFB2A463346FFF722FCD4E996
:104BD0000023BDE8F041FFF775BB0122FFF7CABE15
:104BE000FFF770BB024A00201107FFF7C3BE0000A9
:104BF00001FDFFFF02E008C8121F08C1002AFAD118
:104C000070477047002001E001C1121F002AFBD14C
:104C10007047000001490860704700007C030020D5
:104C20002DE9FF4F8BB09A460F460446002606E05A
:104C300025280BD052460D999047641C761C20788D
:104C40000028F5D10FB03046BDE8F08F0025A94609
:104C500001227D4900E0054314F8013F203B02FAA0
:104C600003F00842F7D120782E2817D114F8010F4D
:104C700045F004052A280ED06FF02F022078A0F10D
:104C8000300109290AD809EB890102EB410100EB47
:104C90000109641CF2E757F8049B641C20786C2817
:104CA0000DD004DC4C2812D06A2811D104E07428FD
:104CB0000DD07A280CD10AE045F4001507E06178A0
:104CC00045F48015814202D1641C05F58015641CF1
:104CD000207869283ED006DC0028B3D063280BD0AA
:104CE000642804D136E0732810D075285CD0524671
:104CF0000D999047761CA5E017F8040B8DF800007D
:104D000000208DF80100E846012003E057F8048BED
:104D10004FF0FF3069074FF0000501D40AE06D1C29
:104D20004D450DDA8542FADB18F805100029F6D159
:104D300006E06D1C8542FCDB18F805100029F8D14F
:104D40002E4404E018F8010B52460D9990476D1E51
:104D5000F8D277E000200A90C5F302504FF00A0B1A
:104D600002280CD001CFC117021E71F100020CDA2B
:104D70000023D0EB030063EB01012D2208E0FF1DAF
:104D800027F00707F7E80201EEE72A0504D52B22F2
:104D90008DF82420012203E0EA070FD02022F7E754
:104DA0000DF12008089218E000200A90C5F3025087
:104DB0004FF00A0B022803D001CF00210022EFE7B9
:104DC000FF1D27F00707F7E80201F7E75A460A9B9D
:104DD000FFF7DAFC303208F8012D50EA0102F5D174
:104DE000ADEB080000F1200B680701D44FF001097A
:104DF000D94502DDA9EB0B0000E00020814600252B
:104E000006E009A85246405D0D9990476D1C761C3E
:104E100008988542F5DB04E0302052460D99904712
:104E2000761CB9F10001A9F10109F5DC05E018F8DB
:104E3000010B52460D999047761CBBF10001ABF176
:104E4000010BF4DC641CFAE6092801000A68531C13
:104E50000B601070704700002DE9F84F04460D46B6
:104E600021F0004000917349814211DC724988426F
:104E700001DC06D12CB120462946BDE8F84FFFF7EA
:104E8000ACBE6E48002DCCBF6D496E49BDE8F88FB1
:104E90006D49814211DD6D498142D8BF4FF0FF3627
:104EA0006DDD20462946FFF72FFE042808BFFFF7D7
:104EB00099FE20462946BDE8F88F6549654F25F0E3
:104EC0000045814233DD6449814219DD00263246C6
:104ED0004FF0804320462946FFF7F4F980468A4682
:104EE000012220462946FFF745FD00223B46FFF7F9
:104EF0008AFA42465346FFF7FEFA04460D463EE064
:104F000001260022BA463B4620462946FFF7DAF939
:104F100080460F460022534620462946FFF773FA83
:104F200042463B46FFF7E7FA04460D4627E04B4969
:104F300081421BDDDFF828A10226002253462046CD
:104F40002946FFF766FA00223B46FFF7BBF9804689
:104F50000F460022534620462946FFF754FA4246A0
:104F60003B46FFF7C8FA04460D4608E003262246F2
:104F70002B4600203B49FFF7BEFA04460D46224669
:104F80002B4610461946FFF744FA8B4682460246E6
:104F90000B46FFF73EFA07460246334888460B4663
:104FA00006217844FFF7C4FD52465B46FFF731FA0D
:104FB00082462E488B463A46434605217844FFF701
:104FC000B7FD3A464346FFF724FA02460B46002E49
:104FD000504659460CDAFFF775F922462B46FFF783
:104FE00018FA01B022462B46BDE8F04FFFF70EBA83
:104FF000FFF768F922462B46FFF70BFA1C4A7A4462
:1050000002EBC603D3E90023FFF7FDF922462B4646
:10501000FFF7F9F9174A7A4402EBC603D3E90023F4
:10502000FFF7F4F9009A002AB8BF81F00041BDE80B
:10503000F88F0000000010440000F07F182D445449
:10504000FB21F93FFB21F9BF0000DC3F0000203EBF
:105050000000F33F0000F03F0000E63F0080034007
:105060000000F83F0000F0BF6A0D0000280D0000AE
:10507000C60C00008E0C00002DE9F04D9446CCF1DA
:10508000000423F000464CEA0404524F46EAD4746C
:105090009A46884621F00042BC4206D8454240EA82
:1050A000050442EAD474BC4204D9BDE8F04D62461E
:1050B000FFF796BDAAF14055A5F17F6555EA0C04AE
:1050C0000BD0022404EAAA74434DDFF810E144EA4D
:1050D000D87452EA000B04D00CE0BDE8F04DFFF7A5
:1050E000BBBE002C14BF012CBDE8F08D022C30D0CB
:1050F000032C32D056EA0C0B0AD0BE4220D1BA4261
:1051000009D126F0804622F080423346114617E04E
:1051100000291ADB25E0DFF8C8B0FB44002C04BFEF
:10512000DBE90001BDE8F08D012C02BFDBE90001E5
:1051300081F00041BDE8F08D022C0AD0032C0CD088
:10514000BA4212D1B8F1000F0BDA23482549BDE865
:10515000F08D28462449BDE8F08D28467146BDE80B
:10516000F08D1D482149BDE8F08D921B12153C2A97
:10517000C4BF19481D490EDCBAF1000FBEBF12F1C1
:105180003C0F0020014606DB6246FFF7B4F921F030
:105190000041FFF761FE002C08BFBDE8F08D012C37
:1051A00004BF81F00041BDE8F08D114A114B022C83
:1051B00007D0FFF728F92A46BDE8F04D0A4BFFF764
:1051C00022B9FFF720F92A46BDE8F04D064BFFF75C
:1051D0001DB900000000F07F182D4454FB2109C0C8
:1051E000220C0000FB21F9BFFB210940FB21F93F04
:1051F000075C143326A6A13C2DE9F04106460F4674
:10520000FFF7CFFB04000D4618BF0120284320F014
:105210000040C0F17F6000F1E040C00F0ED0301CB4
:1052200018BF0120384320F00040C0F17F6000F13A
:10523000E040C00F04BF0120FFF7ECFC20462946E8
:10524000BDE8F08100000000000000000000000048
:10525000000000003F40000000000000000030009F
:10526000400030004000000009000BC03D000BC0B2
:105270003D00090018C024407FE02240318000003A
:10528000180024C01B000D803240018003801C40A8
:1052900027401C8007400040100060000000000014
:1052A000000000000000000000001F80204040209F
:1052B0000000402020401F80000000000900060080
:1052C0001F80060009000000040004003F80040065
:1052D000040000000010006000000000000000005A
:1052E000040004000400040004000000000000406A
:1052F0000000000000000000002001C0060038008F
:10530000400000001F802040204020401F800000FF
:10531000000010403FC000400000000018C02140C5
:1053200022402440184000001080204024402440A7
:105330001B80000002000D0011003FC00140000072
:105340003C80244024402440238000001F802440CF
:1053500024403440038000003000200027C0380083
:10536000200000001B802440244024401B800000BB
:105370001C0022C0224022401F80000000000000CC
:105380000840000000000000000000000460000071
:1053900000000000000004000A00110020804040CE
:1053A0000900090009000900090000000000404050
:1053B000208011000A00040018002000234024006F
:1053C000180000001F802040274029401F40000097
:1053D000004007C039000F0001C0004020403FC01E
:1053E000244024401B8000001F802040204020409B
:1053F0003080000020403FC0204020401F8000003F
:1054000020403FC024402E4030C0000020403FC01C
:1054100024402E00300000000F0010802040224069
:105420003380020020403FC0040004003FC0204001
:10543000204020403FC0204020400000006020204D
:1054400020203FC02000200020403FC024400B000F
:1054500030C0204020403FC020400040004000C0FD
:105460003FC03C0003C03C003FC0000020403FC0A4
:105470000C4023003FC020001F80204020402040DF
:105480001F80000020403FC024402400180000007E
:105490001F802140214020E01FA0000020403FC08D
:1054A0002440260019C0004018C024402440224057
:1054B00031800000300020403FC02040300000001C
:1054C00020003F80004000403F80200020003E0040
:1054D00001C0070038002000380007C03C0007C0AA
:1054E00038000000204039C0060039C020400000CC
:1054F0002000384007C0384020000000304021C064
:105500002640384020C00000000000007FE040201E
:1055100040200000000070000C00038000400000EC
:105520000000402040207FE000000000000020003C
:1055300040002000000000000010001000100010CB
:1055400000100010000000004000000000000000FB
:10555000000002800540054003C0004020003FC01D
:105560000440044003800000000003800440044025
:105570000640000000000380044024403FC000407B
:105580000000038005400540034000000000044087
:105590001FC0244024402000000002E005500550B8
:1055A0000650042020403FC00440040003C00040D7
:1055B0000000044027C00040000000000010001060
:1055C000041027E00000000020403FC00140070019
:1055D00004C00440204020403FC000400040000084
:1055E00007C0040007C0040003C00000044007C057
:1055F0000440040003C00040000003800440044055
:1056000003800000041007F00450044003800000F1
:10561000000003800440045007F00010044007C05D
:105620000240040004000000000006400540054060
:1056300004C00000000004001F800440004000007F
:10564000040007800040044007C000400400070039
:1056500004C0018006000400060001C0070001C06C
:1056600006000000044006C0010006C0044000001F
:105670000410071004E0018006000400000004404C
:1056800005C00640044000000000000004007BE06C
:1056900040200000000000000000FFF000000000BB
:1056A000000040207BE0040000000000400080007B
:1056B000400020002000400000000000000000002A
:1056C00000000000000000000000000000001FCCEF
:1056D000000C000000000000000008003000600026
:1056E0000800300060000000022003FC1E200220A1
:1056F00003FC1E200220000000000E1811043FFFD2
:1057000010840C78000000000F0010840F3800C0D7
:10571000077818840078000000780F8410C41124E2
:105720000E9800E400840008080068007000000083
:10573000000000000000000000000000000007E082
:10574000181820044002000000004002200418182D
:1057500007E00000000000000240024001800FF05E
:1057600001800240024000000080008000800FF8AD
:1057700000800080008000000001000D000E00008D
:105780000000000000000000000000800080008099
:1057900000800080008000800000000C000C0000F1
:1057A000000000000000000000000006001800607B
:1057B0000180060018002000000007F0080810040F
:1057C0001004080807F000000000080408041FFC8B
:1057D000000400040000000000000E0C101410244F
:1057E000104411840E0C000000000C181004110469
:1057F000110412880C700000000000E00320042453
:1058000008241FFC0024000000001F9810841104CD
:105810001104108810700000000007F008881104BF
:10582000110418880070000000001C00100010FC1B
:1058300013001C001000000000000E3811441084FA
:10584000108411440E38000000000700088C10443A
:105850001044088807F00000000000000000030C5E
:10586000030C000000000000000000000001010621
:105870000000000000000000000000800140022045
:105880000410080810040000022002200220022058
:10589000022002200220000000001004080804106A
:1058A000022001400080000000000E001200100CD9
:1058B000106C10800F00000003E00C1813E4142497
:1058C00017C4082807D000000004003C03C41C4093
:1058D000074000E4001C000410041FFC1104110424
:1058E00011040E880070000003E00C18100410046E
:1058F000100410081C10000010041FFC10041004F9
:105900001004080807F0000010041FFC1104110423
:1059100017C410040818000010041FFC1104110023
:1059200017C010000800000003E00C181004100459
:1059300010441C780040000010041FFC10840080FC
:10594000008010841FFC10040000100410041FFCD1
:1059500010041004000000000003000110011001F9
:105960001FFE10001000000010041FFC1104038033
:105970001464181C1004000010041FFC1004000420
:1059800000040004000C000010041FFC1F0000FCB9
:105990001F001FFC1004000010041FFC0C04030077
:1059A00000E010181FFC100007F008081004100495
:1059B0001004080807F0000010041FFC1084108079
:1059C000108010800F00000007F008181024102429
:1059D000101C080A07F2000010041FFC110411003B
:1059E00011C011300E0C000400000E1C11041084B4
:1059F000108410441C3800001800100010041FFC14
:105A0000100410001800000010001FF8100400041B
:105A1000000410041FF8100010001E0011E0001C0C
:105A2000007013801C0010001FC0103C00E01F001D
:105A300000E0103C1FC000001004180C163401C018
:105A400001C01634180C100410001C00130400FCD4
:105A500013041C00100000000804101C10641084C3
:105A600013041C04101800000000000000007FFE5A
:105A70004002400240020000000030000C000380A1
:105A80000060001C000300000000400240024002D1
:105A90007FFE000000000000000000002000400029
:105AA0004000400020000000000100010001000152
:105AB0000001000100010001000040004000200042
:105AC00000000000000000000000009801240144D4
:105AD0000144014400FC000410001FFC0088010484
