:020000040800F2
:10000000880A002001010008A9120008AB120008AC
:10001000AF120008B3120008B71200080000000079
:10002000000000000000000000000000BB120008FB
:10003000BD12000800000000BF120008D312000823
:100040001701000817010008170100081701000830
:100050001701000817010008170100087B1A0008A3
:100060001701000817010008170100081701000810
:100070001701000817010008170100081701000800
:1000800017010008170100081701000817010008F0
:1000900017010008170100081701000817010008E0
:1000A00017010008170100081701000817010008D0
:1000B0003F1A000817010008151A00081701000868
:1000C00017010008170100081701000817010008B0
:1000D00017010008631C0008170100081701000839
:1000E000170100081701000817010008DFF80CD0FD
:1000F00004F0FAF900480047D3110008880A0020EC
:1001000005480047FEE7FEE7FEE7FEE7FEE7FEE7FD
:10011000FEE7FEE7FEE7FEE7ED000008FD4AFE49C8
:10012000C0E90021FD4AFE49C0E90221FD4AFE491D
:10013000C0E9042100228261C261002101624162A2
:100140000163416300238363C36302644264836485
:10015000C36470472DE9F04F8BB0824616461F46A8
:10016000DDE91645DAE908834246DDE9140103F0CA
:10017000B4FECAE90A01DAE90A8342462046294662
:1001800003F0B1FECDE90801DAE90683424603F047
:1001900003FECAE90601DAE91283424620462946EF
:1001A00003F0A1FECDE90001DAE90E83424603F037
:1001B00094FECDE90201DAE91083424603F08DFE98
:1001C000CDE90401DAE90083424603F0E5FD224669
:1001D0002B46CDE9060103F086FECDE90801DAE9F8
:1001E0000C83424603F0D8FDCAE90C01DAE9128318
:1001F00042462046294603F076FECDE90801DAE9B9
:100200000E83424603F06CFECAE90E01DAE912835E
:1002100042462046294603F066FECDE90801DAE9A8
:100220001083424603F05CFECAE9100122462B46C9
:10023000DAE90281404603F056FECDE90801DAE929
:100240001283424603F0A8FDCAE91201DAE90483E9
:100250004246DAE90CB1584603F09EFDCAE91A019C
:10026000DAE91A834246DAE90CB1584603F0ADFEEA
:10027000CAE91401DAE91A834246DAE910B15846AC
:1002800003F0A3FECAE91601DAE9068342463046C6
:10029000394603F022FECAE91801DAE9188342461A
:1002A000DAE914B1584603F01EFECDE90801DAE997
:1002B0000683424603F070FDCAE90601DAE91883B5
:1002C0004246DAE916B1584603F00DFECDE90801C1
:1002D000DAE90883424603F05FFDCAE90801DAE97A
:1002E0000C834246DAE914B1584603F0FCFDCDE92F
:1002F0000801DAE90C83424603F0F2FDCAE90C0179
:10030000DAE90E834246DAE914B1584603F0EBFD10
:10031000CDE90801DAE90E83424603F0E1FDCAE9BE
:100320000E01DAE90C834246DAE916B1584603F0C9
:10033000DAFDCDE90801DAE91083424603F0D0FD89
:10034000CAE91001DAE90EB35A46DAE916814046E5
:1003500003F0C9FDCDE90801DAE91283424603F052
:10036000BFFDCAE91201DAE906010BB0BDE8F08F62
:10037000C0E9062370470246D2E90A017047C0E986
:1003800000237047C0E902237047C0E90423704787
:100390000246D2E9000170470246D2E902017047E5
:1003A0000246D2E90401704760480068604908606D
:1003B0005E4840685F4908605F4800785F490860B0
:1003C00000205F4908600AE000205E495C4A12682C
:1003D00041F822005A480068401C594908605848B2
:1003E0000068FF28F0DB0020554908600AE0002182
:1003F0005548534A126840F8221051480068401C82
:100400004F4908604E4800680828F0DB00204C493E
:1004100008600AE000204D49494A126841F822006C
:1004200047480068401C4649086045480068042861
:10043000F0DB7047F0B50024454D2C60454D2C6035
:100440003F4D2C60CAE0444C414D2D6854F82510B6
:100450000020B6E03C4C3A4D2D6854F825503E4EF5
:100460003B4C2468641C56F82440A5420BDB364CF8
:10047000334D2D6854F82550354C2468241D56F80A
:100480002440A5420ADD0025324C26682468641CFD
:10049000304F3C602B4C44F826508CE02A4C284DC1
:1004A0002D6854F825502C4E294C2468E41C56F82D
:1004B0002440A54216DC244C214D2D6854F82550CB
:1004C000234C2468A41C56F82440A5420ADB5A2673
:1004D000204C25682468641C1E4F3C60194C44F86D
:1004E000256068E0184C164D2D6854F825501A4EBA
:1004F000174C2468A41C56F82440A5423FDA124C3D
:100500000F4D2D6854F82550114C2468641C56F882
:10051000244023E0FCA9F1D24D62503FFA7E6ABC30
:100520007493683FB81E85EB51B89E3F7000002061
:1005300014030020180300201C02002028030020C0
:1005400024030020580400205408002074080020D0
:100550001C03002020030020840000202C1BFE4DE3
:100560002D686D1D56F825506C43FC4D2E682D6886
:100570006D1CFA4F3D60FA4D45F826401BE0F94DE1
:10058000F54C2468241D55F82440F74DF74E366885
:1005900055F82650641BF34EEF4D2D68AD1D56F8EF
:1005A00025506C43ED4D2E682D686D1CEB4F3D6062
:1005B000EB4D45F82640E84C2468A41DE64D2C6020
:1005C000401C8842FFF646AFE34C2468641CE24DB1
:1005D0002C60E64C2468641CE44D2C60E34C2468D9
:1005E000E34D2D68AC42FFF62EAFDB4C2268DB4CAE
:1005F00023680024DD4D2C601DE0DA4CD64D2D68BB
:1006000054F8251000200FE00025D44C26682468FB
:10061000641CD24F3C60D24C44F82650CE4C246827
:10062000641CCD4D2C60401C8842EDDBCF4C24680F
:10063000641CCE4D2C60CD4C2468CE4D2D68AC4250
:10064000DBDBC54C2260C54C2360F0BD10B5012238
:100650000023C64C236040E05A2116E0C64B9B683D
:10066000012B0BD1BE4B53F820308B4203DABC4B2D
:1006700053F8203000E00B46194606E0B84B53F81B
:1006800020304B435A2493FBF4F11346521CBB4CCD
:10069000E35C1846FF2BE1D113E0B74BDB68012B7D
:1006A00008D1AF4B53F820308B420ADAAC4B43F8F9
:1006B000201006E0AA4B53F820300B44A84C44F815
:1006C00020301346521CAD4CE35C1846FF2BE4D19E
:1006D000A64B1B685B1CA54C2360A44B1B68A84C55
:1006E0002468A342B8DB10BDF0B500259F4E3560ED
:1006F0005AE000210023984D2E682D686D1C964FFE
:100700003D60984D55F826209B4D2D69012D21D136
:10071000002015E0914D2E682D686D1C8F4F3D60B7
:100720008F4D55F8264021448B4D2E682D686D1C49
:10073000894F3D608B4D55F8265005FB0433401C16
:100740009042E7DB93FBF1F58E4E884F3F6846F809
:10075000275024E0002020E0804D2E682D686D1C7D
:100760007E4F3D607E4D55F8261099420FDD0B46B9
:10077000794D2E682D686D1C774F3D60794D55F889
:100780002650804E794F3F6846F8275004E0724D5E
:100790002D686D1C704E3560401C9042DCDB734D43
:1007A0002D686D1C714E3560704D2D68714E366828
:1007B000B5429EDBF0BD10B5734903C903F0BBFC25
:1007C000694908607148006803F088FC6649486020
:1007D00010BD70B56B4804680068002803DD012077
:1007E0006B49086006E067480068002802DA0020CC
:1007F0006749086063490968002902DD61490968A1
:1008000002E0604909684942084603F04DFC61492D
:1008100008600846006803F061FC05462A465C480B
:1008200001685DA003F09EFE70BD2DE9F04F89B018
:100830006148006803F09EFC804689465F48006876
:1008400003F098FC824642464B4604F04DF90646BA
:100850005B4A5C4B03F047FB044603F0B7FC5A4984
:10086000086055480168006803F026FA0290534872
:100870000168006803F020FA0190029903F0C4F9BE
:10088000039003F077FC064604F0EEF9CDE906018B
:100890004E48006880F00046304603F06BFCCDE91E
:1008A0000401DDE9062303F090FB044604F00CF894
:1008B0008046434A434B03F016FB824603F086FC16
:1008C0004349086009B0BDE8F08F00B587B04FF428
:1008D000C06002F0EFFF25208DF8040000208DF8A5
:1008E00005008DF8060001208DF80700252000F096
:1008F0001F0201219140374A430942F8231000BFEB
:1009000001A802F0DCFF252000F01F020121914028
:100910004209920002F1E022C2F8001100BF012159
:1009200044F2040001F06CFD4FF40070ADF81800C3
:1009300018208DF81B0003208DF81A0006A9264800
:1009400001F0C2FA4FF48060ADF8180004208DF871
:100950001B0006A9204841E01C03002020030020C2
:1009600058040020840000205408002024030020A4
:100970001403002018030020700000201C02002037
:1009800028030020740800203800002060000020A8
:100990006C00002068000020446972656374696F10
:1009A0006E203D202564202C2044757479203D2044
:1009B0002564200A00000000080000200400002038
:1009C000F8C1631ADCA54C4018000020000000208C
:1009D0001C00002080E200E00008014001F074FAF1
:1009E0004FF4165002900020ADF80C00ADF80E0048
:1009F000ADF81000ADF814000C20ADF8120002A9FB
:100A0000FE4802F004F8012240F22551FB4802F0B2
:100A100078F80121F94802F068F807B000BD10B578
:100A200001F082FB4FF4803001F09DFB01F0DAFB16
:100A30000446012C1ED1002001F019FC002001F019
:100A400028FCA00201F01CFC4FF4E011200401F08E
:100A5000F1FB012001F0FAFB00BF392001F0A6FBF9
:100A60000028FAD0022001F0F4FB00BF01F0FAFBED
:100A70000828FBD10121C80201F0C2FC012108466F
:100A800001F0CBFC0121022001F0C7FC0121042070
:100A900001F0C3FC01210D2001F0B2FC012188040A
:100AA00001F0BBFC10BD08B50121D54801F0DDFA0D
:100AB0004FF48150ADF8000003208DF802001020A3
:100AC0008DF803006946CF4801F0FEF91020ADF81B
:100AD000000003208DF8020010208DF80300694605
:100AE000C84801F0F1F94FF40040ADF800000320D0
:100AF0008DF8020010208DF803006946C24801F00D
:100B0000E3F90820ADF8000003208DF8020018205A
:100B10008DF803006946BC4801F0D6F94FF48070A7
:100B2000ADF8000003208DF8020018208DF80300B6
:100B30006946B44801F0C8F908BD08B500214FF076
:100B4000006002F0EEFE4FF4C06002F0B3FE1C2025
:100B50008DF8000000208DF8010001208DF80200C2
:100B60008DF80300684602F0AAFE08BD08B5002112
:100B70004FF0006002F0D5FE4FF4C06002F09AFE24
:100B80001E208DF8000001208DF801008DF8020074
:100B90008DF80300684602F092FE08BD0EB5632092
:100BA000ADF8040041F61F40ADF800000020ADF89C
:100BB00002006946954802F004F901220221480723
:100BC00002F0A0FB0121880702F081FB0EBD0EB5EB
:100BD0000920ADF8040040F2CF20ADF8000000205D
:100BE000ADF8020069468A4802F0EBF801220221C2
:100BF000874802F087FB0121854802F068FB0EBDA3
:100C00002DE9F04101F033FE804603F056FA064626
:100C100080480CC8304603F060F9044603F0D6FA69
:100C20007D49086001F036FE804603F046FA06462C
:100C30007A480CC8304603F050F9044603F0C6FA6F
:100C40007749086001F039FE044603F02DFA754932
:100C5000086001F045FE044603F026FA7249086078
:100C600001F051FE044603F01FFA7049086001F0DC
:100C70005DFE044603F018FA6D490860BDE8F08196
:100C80002DE9F041002414E001F0F1FD804603F06D
:100C90000BFA0746294602F0B7FF054601F0FAFDB8
:100CA000804603F001FA0746314602F0ADFF0646E2
:100CB000641C642CE8DB5F49284603F02FF80746E4
:100CC00003F058FA534A03C25A49304603F026F853
:100CD000074603F04FFA514A03C2BDE8F08170B5F0
:100CE000FFF7CEFFFFF78CFFFFF79FFD524800682C
:100CF00003F040FA044622460B465048FFF738FB03
:100D00004D4800684E4908604B48006803F032FACD
:100D10004C4A03C24C48006803F02CFA04462246B1
:100D20000B464A48FFF724FB4748006848490860DB
:100D30004548006803F01EFA464A03C2FFF734FB39
:100D4000404903C903F0F7F9434908604348006884
:100D500003F0C4F94049486070BD2DE9F04F87B0F9
:100D6000DFF8FC90FFF74CFFFFF75FFD2E480068AF
:100D700003F000FA07463B4A3B4B03F026F90546D1
:100D800003F024FA06902948006803F0F3F90746B7
:100D9000344A354B03F019F9054603F017FA0446B7
:100DA000069803F0E7F90746304A314B03F09BF809
:100DB000054603F00BFA29490860204603F0DAF9EA
:100DC00007462A4A2A4B03F08EF8054603F0FEF93F
:100DD0002849086028491848006803F013FA05D22A
:100DE00026492748006803F017FA50D323491248D0
:100DF000006803F011FA63D21F4943E00038014054
:100E000000023000000C014000080140002C0140AD
:100E10000008004048000020000000205000002092
:100E200004000020080000200C000020100000201A
:100E3000140000200000C8421800002078030020A1
:100E400020000020300000201C000020E8030020CB
:100E500024000020380000205408002060000020FA
:100E60000AD7233CFCA9F1D24D6230409A99999956
:100E70009999B93F640000200000B4C20000B44258
:100E800028000020E248006803F0BCF918D2E148CD
:100E9000006803F06FF905462A460B46DE48FFF767
:100EA00067FADC48006803F065F9DC4A03C2D948F8
:100EB0000068D7490860D7480068D94908601DE034
:100EC000484603F057F905460E46069803F052F9D6
:100ED00007468846CF48006803F04CF902460B46A7
:100EE000CDE90078CDE90256CDE90401CA48FFF703
:100EF00031F9824603F06AF9C5490860C4480068C0
:100F000003F038F921F0004105460022C54B03F0FB
:100F100045F901D284F00044484603F02BF982469B
:100F20008B46204603F026F9CDE90401BE4800684F
:100F300003F020F905460B46CDE902ABDDE90401DB
:100F40002A46CDE90001B948FFF704F9074603F046
:100F50003DF9B74908604946069802F0ADFE0546DE
:100F6000AF480168284602F04FFEAD490860494687
:100F7000204602F0A1FE0546AE480168284602F070
:100F800043FEAC490860A348006803F0F3F8054647
:100F9000A94AAA4B02F0A7FF82468B46494606980B
:100FA00002F08AFE039003F0E5F805469B480CC862
:100FB000284602F0F1FE0746A14AA24B02F093FF39
:100FC00052465B46CDE9040102F0E6FE934A03C2B5
:100FD0009548006803F0CEF80546974A974B02F013
:100FE00082FF82468B464946204602F065FE03900A
:100FF00003F0C0F8074694480CC8384602F0CCFE0F
:1010000005468F4A8F4B02F06EFF52465B46CDE994
:10101000040102F0C1FE8C4A03C28C49804800687A
:1010200003F0F0F805D38A497D48006803F0F4F82E
:1010300003D2774800687A49086084497D4800688F
:1010400003F0E0F805D382497A48006803F0E4F839
:1010500003D277480068774908607E48006803F04B
:101060003DF80546784903C903F065F806466B4923
:1010700003C903F060F807462B463246394676A08E
:1010800003F070FA07B0BDE8F08F08B5C020ADF8E6
:10109000000018208DF8030003208DF80200694637
:1010A0007D4800F011FF08BD30B587B040F24D1407
:1010B0000025022540F29920ADF81400ADF810503B
:1010C0000020ADF81600ADF8120004A9734801F035
:1010D00078FE6020ADF800000120ADF80200ADF808
:1010E00006400020ADF8080069466C4801F082FE19
:1010F0000120ADF80200ADF806406946674801F0EE
:10110000B0FE0821654802F013FA0821634802F096
:1011100018FA0121614802F0DBF901215F4802F071
:10112000D6F807B030BD10B5FFF7AFFFFFF7BCFF33
:1011300010BD0EB54FF6FF70ADF8040040F2CF20A1
:10114000ADF800000020ADF802006946544801F0F7
:1011500038FE01220221524802F0D4F80121504801
:1011600002F0B5F80EBD1FB50220ADF80C0004204A
:101170008DF80F0003208DF80E0003A9494800F0F8
:10118000A3FE4FF4C06002F095FB07208DF8080025
:1011900001208DF8090002208DF80A0001208DF849
:1011A0000B0002A802F08BFB0121002000F092FF4F
:1011B0000220009000208DF804000C208DF805001E
:1011C00001208DF80600684602F0F0FBFFF7B1FF42
:1011D0001FBD02F0EFFC00F0B1FDFFF720FCFFF7B0
:1011E00062FCFFF772FB01F037FB01F014FBFFF725
:1011F00076FDFFF7A2FCFFF7D1FCFFF7B7FCFFF786
:10120000E6FCFFF790FFFFF7AEFF00BFFEE7000030
:101210002800002018000020780300203000002063
:1012200020000020008056401C000020E803002021
:101230002C000020240000207B14AE47E17A943F6C
:101240005C8FC2F5285CEF3F38000020000034C3FB
:101250000000344364000020636F6D70416E676C62
:101260006558203D202564202C20636F6D70416EF1
:10127000676C6559203D202564202C20595F416E04
:1012800067756C61725F76656C6F63697479203D18
:101290002025640A00000000000C01400008004006
:1012A000002C014000080140704700BFFEE700BF6E
:1012B000FEE700BFFEE700BFFEE7704770477047DC
:1012C000F848006820B1F7480068401EF5490860FA
:1012D000704700B5FFF7F4FF00BD1FB5F248006886
:1012E00058B1F1480068401C012191FBF0F4204600
:1012F00002F0DAFEED49086003E04FF07E50EB4962
:101300000860EB48007818B14FF07E50E94908605A
:101310004FF07E51E748006802F074FF3AD1602038
:10132000ADF800000120ADF80200E0480168E24895
:1013300002F0C2FC044602F0EAFE80B2ADF80600FC
:101340000020ADF808006946DC4801F053FD01209B
:10135000ADF80200D5480168D74802F0ADFC04465C
:1013600002F0D5FE80B2ADF806006946D34801F020
:1013700078FD0821D14802F0DBF80821CF4802F0BF
:10138000E0F80121CD4802F0A3F80121CB4801F09B
:101390009EFF9CE24FF08041C648006802F032FF99
:1013A0003AD16020ADF800000120ADF80200BF483E
:1013B0000168C34802F080FC044602F0A8FE80B237
:1013C000ADF806000020ADF808006946BB4801F002
:1013D00011FD0120ADF80200B4480168B84802F0E0
:1013E0006BFC044602F093FE80B2ADF8060069463D
:1013F000B24801F036FD0821B04802F099F8082102
:10140000AE4802F09EF80121AC4802F061F80121DB
:10141000AA4801F05CFF5AE2AA49A648006802F017
:10142000F1FE3AD16020ADF800000120ADF80200D5
:101430009E480168A44802F03FFC044602F067FEA3
:1014400080B2ADF806000020ADF8080069469B4860
:1014500001F0D0FC0120ADF80200944801689A48E0
:1014600002F02AFC044602F052FE80B2ADF80600FB
:101470006946924801F0F5FC0821904802F058F8BE
:1014800008218E4802F05DF801218C4802F020F816
:1014900001218A4801F01BFF19E24FF08141854884
:1014A000006802F0AFFE3AD16020ADF800000120E4
:1014B000ADF802007D480168844802F0FDFB044657
:1014C00002F025FE80B2ADF806000020ADF808005D
:1014D00069467A4801F08EFC0120ADF8020073489D
:1014E00001687A4802F0E8FB044602F010FE80B280
:1014F000ADF806006946714801F0B3FC08216F4859
:1015000002F016F808216D4802F01BF801216B4823
:1015100001F0DEFF0121694801F0D9FED7E16C49F5
:101520006448006802F06EFE3AD16020ADF8000019
:101530000120ADF802005D480168664802F0BCFB7E
:10154000044602F0E4FD80B2ADF806000020ADF8DC
:1015500008006946594801F04DFC0120ADF8020031
:10156000524801685B4802F0A7FB044602F0CFFD39
:1015700080B2ADF806006946504801F072FC0821BF
:101580004E4801F0D5FF08214C4801F0DAFF012157
:101590004A4801F09DFF0121484801F098FE96E17C
:1015A0004D494448006802F02DFE3AD16020ADF864
:1015B00000000120ADF802003C480168474802F0F5
:1015C0007BFB044602F0A3FD80B2ADF806000020CC
:1015D000ADF808006946394801F00CFC0120ADF86F
:1015E0000200324801683D4802F066FB044602F002
:1015F0008EFD80B2ADF806006946304801F031FC3E
:1016000008212E4801F094FF08212C4801F099FF91
:1016100001212A4801F05CFF0121284801F057FE12
:1016200055E12F492348006802F0ECFD5CD16020B1
:10163000ADF800000120ADF802001C4801682948FF
:1016400002F03AFB044602F062FD80B2ADF80600FB
:101650000020ADF808006946184801F0CBFB0120D6
:10166000ADF80200114801681E4802F025FB04464F
:1016700002F04DFD80B2ADF8060069460F4801F05A
:10168000F0FB08210D4801F053FF08210B4801F041
:1016900058FF0121094801F01BFF0121074801F013
:1016A00016FE14E150030020300300204003002008
:1016B0002D03002068000020000084420008004044
:1016C00000000543000040400000484300008543FF
:1016D0000000A0400080A6430000C0400000C843B6
:1016E0000000E0400000E9434FF08241FC48006800
:1016F00002F088FD3AD16020ADF800000120ADF87D
:101700000200F8480168F84802F0D6FA044602F0F0
:10171000FEFC80B2ADF806000020ADF80800694676
:10172000F24801F067FB0120ADF80200ED480168C6
:10173000ED4802F0C1FA044602F0E9FC80B2ADF8CF
:1017400006006946E94801F08CFB0821E74801F0F2
:10175000EFFE0821E54801F0F4FE0121E34801F025
:10176000B7FE0121E14801F0B2FDB0E0E049DC48FC
:10177000006802F047FD3AD16020ADF8000001207A
:10178000ADF80200D7480168DA4802F095FA04463D
:1017900002F0BDFC80B2ADF806000020ADF80800F4
:1017A0006946D24801F026FB0120ADF80200CD4881
:1017B0000168D04802F080FA044602F0A8FC80B22A
:1017C000ADF806006946C94801F04BFB0821C7483F
:1017D00001F0AEFE0821C54801F0B3FE0121C34867
:1017E00001F076FE0121C14801F071FD6FE0C249B0
:1017F000BB48006802F006FD3AD16020ADF8000059
:101800000120ADF80200B7480168BC4802F054FA64
:10181000044602F07CFC80B2ADF806000020ADF872
:1018200008006946B14801F0E5FA0120ADF8020070
:10183000AC480168B14802F03FFA044602F067FC88
:1018400080B2ADF806006946A84801F00AFB0821FD
:10185000A64801F06DFE0821A44801F072FE0121A6
:10186000A24801F035FE0121A04801F030FD2EE034
:1018700000219B48006802F0C5FC28D16020ADF82B
:1018800000000120ADF802000020ADF80600ADF820
:1018900008006946954801F0ADFA0120ADF8020054
:1018A0000020ADF806006946904801F0DAFA0821F8
:1018B0008E4801F03DFE08218C4801F042FE0121D6
:1018C0008A4801F005FE0121884801F000FD1FBD96
:1018D00010B58B4800688B49096888420ED18A4848
:1018E0000068401E884908600846006878B94FF4CF
:1018F000AF70086000208549086008E04FF4AF70C1
:101900008149086081480068401C804908607D4822
:1019100000687B4908607E480078002848D07D48F0
:101920000078002844D07A4800783138082837D227
:10193000DFE800F0041A1B1C1D33343510217648F3
:1019400000F06FFB2021744800F06DFB4FF48051D4
:10195000714800F066FB4FF40041704800F063FBF3
:101960006FA002F0FFFD22E021E020E01FE0102147
:10197000694800F058FB2021674800F052FB4FF403
:101980008051654800F04FFB4FF40041634800F080
:1019900048FB66A002F0E6FD09E008E007E006E08B
:1019A00065A002F0DFFD00205949087000BF00BFAC
:1019B00054480068A0B95748007888B910215648A3
:1019C00000F02FFB2021544800F02DFB4FF48051F4
:1019D000514800F026FB4FF40041504800F023FB33
:1019E00048480068012814D14A48007888B9102175
:1019F000494800F018FB2021474800F012FB4FF443
:101A00008051454800F00FFB4FF40041434800F07F
:101A100008FB10BD08B5002000900221334801F0FA
:101A200034FF58B1FFF754FFFFF757FC2F4801F080
:101A30000DFF009002212D4801F038FF08BD08B5C8
:101A4000002000900221480701F01FFFA0B1FFF71E
:101A500084F9FEF7B0FEFEF7EDFCFEF7F7FDFEF7AA
:101A600043FEFEF7B6FE4FF0804001F0EFFE00901F
:101A70000221480701F01AFF08BD2DE9F04F8BB095
:101A80004FF0000A00200990022002F005F800281B
:101A90007DD02B4801F0E7FE099001E00AF1010A30
:101AA00028488245FADB02211C4800F0A0FA0028F1
:101AB000EED02548006802F0F7FA044608480168AD
:101AC000204602F09FFB7DD11D48008800F00100F8
:101AD000E0BB01211A4801F0FAFB0BB0BDE8F08F22
:101AE000680000204003002000400544000800403A
:101AF0000000104100C01544000020410080264431
:101B0000480300206C000020440300203003002024
:101B10002C0300202D030020000C01400008014090
:101B2000666F72776172640A000000006261636B25
:101B3000776172640A00000073746F700A0000001D
:101B4000002C0140A08601003C030020FFE7BDF807
:101B5000240042F21071884203DCBDF82400FA2808
:101B600006DA00215A4801F05DFE0BB0BDE8F08FA7
:101B7000BDF8241057A002F0F5FC5A480068BDF8E3
:101B800024100844574908600021514800E05DE0F6
:101B900001F048FE54480068401C5349086008465C
:101BA000006802F08AFA06460F464E48006802F0C6
:101BB00084FA32463B46CDE9000102F006FA80463F
:101BC000002200E035E0494B02F0FFF902460B46E7
:101BD000CDE902010020464902F0F7F90022454B09
:101BE000CDE9040102F0F1F904460022424B02F073
:101BF0007AF9CDE9060102F09EFA83463A48006878
:101C000002F05BFA04460D463648006802F055FAC9
:101C1000064622462B4602F0D8F9804602F08BFA9F
:101C20005B46024608903048016834A002F09AFCF6
:101C30000CE000202C4908602A4908600021244853
:101C400001F045FB0021224801F0ECFD3548006819
:101C500002F044FA34490860022001F02EFF00BF70
:101C600083E710B50020314908704021304800F06A
:101C7000FBFF18B140212E4801F028F820212C4804
:101C800000F0F2FF10B32021294801F01FF8284886
:101C900000F097FF2749087008460078B0B1084661
:101CA0000078302803D10020204908700AE021483C
:101CB0000078312806DB1F480078382802DC012034
:101CC0001A4908701B4800781B49087010BD0000B5
:101CD000002C014063617074757265203D2025649D
:101CE0000A0000003803002034030020006AF84096
:101CF0000000F03F00002A4000004E404379636C32
:101D000065203D20256C64202C50524D5F696E7615
:101D1000203D202564202C52504D203D2025640A72
:101D200000000000680000203C0300202D0300207C
:101D3000003801404C0300202C03002030B521491D
:101D4000B1F1807F01D301201DE021F07F40401ED2
:101D50004FF0E022506150170F22002807DA1307D6
:101D60001D0E194B00F00F04241F1D5503E013072F
:101D70001C0E164B1C5400BF00204FF0E022906157
:101D800007201061002008B100BFFEE74FF0E020FF
:101D9000006920F001004FF0E021086130BD01B57D
:101DA0000B49009808604FF0E020006940F0010006
:101DB0004FF0E021086100BF054800680028FBD112
:101DC00008BD00004019010018ED00E000E400E04B
:101DD00050030020074A126802F0807242B100BF2F
:101DE0004FF060421268002AFAD04FF0604318703A
:101DF00070470000FCED00E010B50446C649601ACB
:101E00008C422FD009DCC548204480B1B0F5806FEA
:101E100016D0B0F5006F4AD11BE0B0F5806F2AD024
:101E2000B0F5006F30D0B0F5406F40D135E0012102
:101E3000042000F0FFFA0021042000F0FBFA37E054
:101E40000121082000F0F6FA0021082000F0F2FA43
:101E50002EE00121102000F0EDFA0021102000F00A
:101E6000E9FA25E00121202000F0E4FA00212020F9
:101E700000F0E0FA1CE00121402000F0DBFA002134
:101E8000402000F0D7FA13E00121802000F0D2FAC0
:101E90000021802000F0CEFA0AE00121080200F0C3
:101EA000C9FA00214FF4807000F0C4FA00E000BFCE
:101EB00000BF10BD10B50121084600F0BBFA00219B
:101EC000012000F0B7FA10BD2DE9F04102460025CF
:101ED0000026002000230024002791F803C00CF006
:101EE0000F0591F803C00CF0100CBCF1000F03D0EB
:101EF00091F802C04CEA050591F800C0BCF1000F52
:101F000031D0146800202BE04FF0010C0CFA00F3E4
:101F1000B1F800C00CEA03069E4220D183004FF0C6
:101F20000F0C0CFA03F7BC4305FA03FC4CEA04045B
:101F300091F803C0BCF1280F06D14FF0010C0CFA48
:101F400000FCC2F814C00AE091F803C0BCF1480FCD
:101F500005D14FF0010C0CFA00FCC2F810C0401C77
:101F60000828D1D31460B1F800C0BCF1FF0F34DDF4
:101F7000546800202EE000F1080C4FF0010808FA28
:101F80000CF3B1F800C00CEA03069E4221D1830095
:101F90004FF00F0C0CFA03F7BC4305FA03FC4CEAB4
:101FA000040491F803C0BCF1280F05D100F1080C1E
:101FB00008FA0CF8C2F8148091F803C0BCF1480F7D
:101FC00007D100F1080C4FF0010808FA0CF8C2F82C
:101FD0001080401C0828CED35460BDE8F0814FF635
:101FE000FF710180022181700421C1707047024697
:101FF000002093680B400BB1012000E000207047E7
:102000000146886880B2704702460020D3680B40C2
:102010000BB1012000E0002070470146C86880B283
:10202000704701617047416170470AB1016100E08A
:1020300041617047C16070474FF480320A4382614A
:102040008161826182698269704702460020344B57
:1020500018684FF68073184040EA02100843304B6E
:10206000186070472F49C8617047F0B50A460023D1
:102070000024002100252A4E7168C0F3034583B275
:1020800000F44016B6F5401F08D121F07061244ECF
:10209000766826F07066224F7E6012E000F48016AB
:1020A000B6F5801F06D1032606FA05F4A14341F0D8
:1020B000706106E0460D360103FA06F6B14341F0C1
:1020C000706122B1460D360103FA06F63143144E13
:1020D0007160F0BD30B500228B071C0F0F2303FA8F
:1020E00004F20F4B08338C1053F8243093430C4CFC
:1020F00008348D1044F8253023468C1053F82430D2
:102100008C07240F00FA04F42343054C08348D1087
:1021100044F8253030BD00000014014000F8FEBF37
:102120000000014000002042DE48006840F001004D
:10213000DC49086008464068DB490840D9494860E6
:1021400008460068D9490840D64908600846006832
:1021500020F4802008600846406820F4FE004860B3
:10216000002088607047CF49096821F48031CD4A4A
:1021700011601146096821F480211160B0F5803F9B
:1021800003D0B0F5802F0ED106E0C649096841F4AE
:102190008031C44A116007E0C249096841F4A021B6
:1021A000C04A116000E000BF00BF704710B5014693
:1021B0000022002300204A11012A02D1B94C2368D1
:1021C00006E0022A02D1B74C236A01E0B54C636AEB
:1021D00001F01F02012494401C400CB1012000E0DA
:1021E000002010BD38B5002000900024002500BF5D
:1021F0003120FFF7DBFF05460098401C00901DB919
:102200000098B0F5A06FF3D13120FFF7CFFF08B1F0
:10221000012400E00024204638BD01460020A14AE8
:10222000106820F0F80040EAC10010607047A04933
:1022300008607047024600209A4B586820F47C10D2
:1022400042EA01031843974B586070479849086663
:10225000704701460020934A506820F0030008436D
:10226000506070478F48406800F00C00704701468E
:1022700000208C4A506820F0F000084350607047FE
:1022800001460020874A506820F4E060084350600F
:10229000704701460020834A506820F4605040EAAD
:1022A000C1005060704729B17E4A527A02437D4B8B
:1022B0005A7204E07B4A527A82437A4B5A727047D0
:1022C0007B49D8310860704701460020754A506844
:1022D00020F440400843506070470021714A20328A
:1022E0001170704A82F82010012802D004280AD107
:1022F00004E001216B4A2032117005E00521694A92
:102300002032117000E000BF00BF704769490860CB
:1023100070476449096A0143624A1162704765491E
:1023200044390860704730B50021002200240023A2
:102330005C4D6D6805F00C0121B1042905D0082918
:1023400023D105E05C4D056022E05B4D05601FE098
:10235000544D6D6805F47012022505EB9242514D03
:102360006D6805F480341CB9544D554305600BE08D
:102370004C4D6D6805F400351DB1504D5543056059
:1023800002E04D4D5543056002E04B4D056000BF36
:1023900000BF444D6D6805F0F0010909484D6B5CC4
:1023A0000568DD4045603F4D6D6805F4E061090A50
:1023B000434D6B5C4568DD4085603A4D6D6805F4C2
:1023C0006051C90A3E4D6B5C4568DD40C560354DC6
:1023D0006D6805F44041890B3A4D6B5CC568B5FBEF
:1023E000F3F5056130BD29B12E4A526902432D4BE8
:1023F0005A6104E02B4A526982432A4B5A61704762
:1024000029B1284A92690243264B9A6104E0254A81
:1024100092698243234B9A61704729B1214AD2695C
:102420000243204BDA6104E01E4AD26982431D4B0D
:10243000DA61704729B11B4AD2680243194BDA604E
:1024400004E0184AD2688243164BDA60704729B11B
:10245000144A12690243134B1A6104E0114A1269CB
:102460008243104B1A617047124940390860704727
:102470000F49C86470470B49C87170470948406AE2
:1024800040F0807007494862704701460020054AC5
:1024900092680A400AB1012000E00020704701491B
:1024A00088727047001002400000FFF8FFFFF6FE40
:1024B000000042428004424200127A0000093D00BE
:1024C0005C0300206C03002001460022C4488142C6
:1024D00001D1042221E0C248814201D104221CE042
:1024E000C048814201D1082217E0BF48814201D192
:1024F000102212E0BD48814201D120220DE0BC48EB
:10250000814201D1402208E0BA48814201D18022B3
:1025100003E0B948814200D1821590B270472DE99D
:10252000F84307460C4615461E464FF00008C146C4
:102530003846FFF7C9FF80462846FFF7C5FF8146AA
:1025400001214046FFF75CFF01214846FFF758FF95
:10255000ADF8004003208DF8020014208DF8030030
:1025600069463846FFF7B0FCADF8006003208DF8EF
:10257000020014208DF8030069462846FFF7A4FCEA
:102580004FF400619648FFF74CFD4FF4805194489A
:10259000FFF747FDBDE8F883052000BF0100A0F16B
:1025A0000100FBD1704710B54FF400618C48FFF774
:1025B00038FDFFF7F1FF4FF480518948FFF731FDF7
:1025C000FFF7EAFF86480830006800F4006008B9A9
:1025D000012010BD4FF400618148FFF724FDFFF793
:1025E000DBFF4FF480517E48FFF71DFDFFF7D4FF5E
:1025F0007B480830006800F40060012801D1022007
:10260000E7E70020E5E710B54FF400617448FFF7F5
:102610000AFDFFF7C1FF4FF480517148FFF701FD3C
:10262000FFF7BAFF4FF400616D48FFF7FAFCFFF7C0
:10263000B3FF10BD10B54FF400616948FFF7F3FC1C
:10264000FFF7AAFF4FF480516548FFF7EAFCFFF758
:10265000A3FF4FF480516248FFF7E5FCFFF79CFFB2
:1026600010BD10B54FF400615D48FFF7DAFCFFF7CD
:1026700093FF4FF480515A48FFF7D3FCFFF78CFFCC
:102680004FF480515648FFF7CEFCFFF785FF10BD91
:1026900070B504464FF480515148FFF7C4FC002543
:1026A00021E004F0800028B14FF400614C48FFF7AE
:1026B000B8FC04E04FF400614948FFF7B4FC600641
:1026C000040EFFF769FF4FF480514548FFF7A9FC5E
:1026D000FFF762FF4FF480514148FFF7A4FCFFF77A
:1026E0005BFF681CC5B2082DDBDB4FF400613C4882
:1026F000FFF797FCFFF750FF4FF480513848FFF782
:1027000090FCFFF749FF36480830006800F400608D
:1027100030B14FF480513248FFF785FC002070BD86
:102720004FF480512E48FFF77EFC0120F7E770B58B
:1027300000244FF400612A48FFF773FC4FF48051E6
:102740002748FFF770FC00BF002519E04FF48051C7
:102750002348FFF766FCFFF71FFF6006040E2048C2
:102760000830006800F4006008B144F001044FF440
:1027700080511B48FFF757FCFFF70EFF681CC5B2DE
:10278000082DE3DB204670BD70B506460C461546A5
:10279000FFF709FF3046FFF77BFF2046FFF778FF82
:1027A0002846FFF775FFFFF72EFF70BD70B5044692
:1027B0000D46FFF7F8FE2046FFF76AFF2846FFF7B1
:1027C00067FFFFF7F0FE611CC8B2FFF761FFFFF77C
:1027D000AEFF0646FFF745FFFFF715FF304670BD19
:1027E00000080140000C01400010014000140140AD
:1027F00000180140001C014000200140002107E0BA
:10280000002200E0521C47F230539A42FADB491C86
:102810008142F5DB704710B56420FFF7EFFF00221F
:102820006B21D020FFF7B0FF07221921D020FFF73E
:10283000ABFF06221A21D020FFF7A6FF18221B218A
:10284000D020FFF7A1FF01221C21D020FFF79CFF21
:102850006420FFF7D3FF10BD10B54FF48053464AF4
:10286000D1141046FFF75BFEFFF7D5FF10BD70B522
:102870000024002500263B21D020FFF797FF0546C6
:102880003C21D020FFF792FF064646EA052004B21D
:10289000204670BD70B50024002500263D21D020C3
:1028A000FFF784FF05463E21D020FFF77FFF064655
:1028B00046EA052004B2204670BD70B5002400250C
:1028C00000263F21D020FFF771FF05464021D02090
:1028D000FFF76CFF064646EA052004B2204670BDAD
:1028E00070B50024002500264321D020FFF75EFFAD
:1028F00005464321D020FFF759FF064646EA05204A
:1029000004B2204670BD70B5002400250026452184
:10291000D020FFF74BFF05464521D020FFF746FFAB
:10292000064646EA052004B2204670BD70B5002474
:10293000002500264721D020FFF738FF0546472114
:10294000D020FFF733FF064646EA052004B22046B2
:1029500070BD70B50024002500264121D020FFF76E
:1029600025FF05464221D020FFF720FF064646EA14
:10297000052004B2204670BD0008014010B5044691
:10298000D749601A8C422BD006DCD648204498B137
:10299000B0F5806F38D119E0B0F5806F2AD0B0F56E
:1029A0006C4F31D101218803FFF744FD00214FF422
:1029B0008040FFF73FFD28E001214804FFF747FD75
:1029C00000214FF40030FFF742FD1EE00121880492
:1029D000FFF73DFD00214FF48020FFF738FD14E0A4
:1029E0000121C804FFF733FD00214FF40020FFF759
:1029F0002EFD0AE001210805FFF729FD00214FF413
:102A00008010FFF724FD00E000BF00BF10BD2DE9DE
:102A1000F04786B005460E460024A24600BF00BF20
:102A200000272F462C8A4CF6FF700440F0880443A0
:102A30002C82AC894EF6F3100440B08831890843EB
:102A4000718908430443AC81AC8A4FF6FF400440CF
:102A5000B0890443AC8201A8FFF765FCA248874215
:102A600002D1DDF810A001E0DDF80CA00AEBCA00ED
:102A700000EB0A1031688900B0FBF1F86420B8FB64
:102A8000F0F004012009642101FB1089322000EBE1
:102A90000910B0FBF1F000F00F0004432C8106B0E8
:102AA000BDE8F0874FF41651016000218180C1809C
:102AB00001810C21418100218181704710B50246BE
:102AC0000020108A4FF2FF0318400B884C882343E4
:102AD0008C882343CC8823431843108210BD0021E7
:102AE000018041808180C180704721B1828942F498
:102AF0000052828104E082894DF6FF731A40828180
:102B00007047F0B503460024002600250020184633
:102B1000C1F3421401F01F06012707FA06F5012C44
:102B200001D10C3004E0022C01D1103000E014304F
:102B30001AB107682F43076002E00768AF430760D8
:102B4000F0BD1AB1838A0B43838202E0838A8B43F0
:102B500083827047028A4FF6F0731A400282028A1B
:102B60000A430282704782894FF2FF731A408281C2
:102B700082890A438281704721B1828942F0020230
:102B8000828104E082894FF6FD731A40828170478A
:102B9000028A4FF6DF731A400282028A0A430282D7
:102BA000704721B1028A42F48042028204E0028A24
:102BB0004BF6FF731A4002827047C1F3080282800D
:102BC000704701468888C0F308007047818941F04A
:102BD000010181817047028BD2B20283028B42EAEB
:102BE000012202837047028B02F47F420283028B30
:102BF0000A430283704721B1828A42F02002828216
:102C000004E0828A4FF6DF731A408282704721B156
:102C1000828A42F01002828204E0828A4FF6EF73C9
:102C20001A408282704721B1828A42F00802828271
:102C300004E0828A4FF6F7731A4082827047828AD4
:102C40004FF6FB731A408282828A0A43828270475F
:102C500021B1828A42F00202828204E0828A4FF627
:102C6000FD731A40828270470246002013880B4091
:102C70000BB1012000E000207047CA43028070477A
:102C800070B502460B460024002100250020C3F346
:102C9000421503F01F01012606FA01F1012D02D1B0
:102CA0009689314006E0022D02D1168A314001E0BA
:102CB000968A31401C12012606FA04F41688344024
:102CC00011B10CB1012000E0002070BD10B5002250
:102CD00000230A1201249440A3B2DC43048010BDF7
:102CE000004C004000BCFFBF0038014010B5044656
:102CF000F749601A8C4245D00CDCB4F1804F1DD0EE
:102D0000F448204418B3B0F5806F29D0B0F5006FB7
:102D100054D12EE0B0F5806F3DD0B0F58E3F03D09A
:102D2000B0F5923F4AD13FE00121C802FFF782FB94
:102D300000214FF40060FFF77DFB40E001210846D1
:102D4000FFF785FB00210120FFF781FB37E0012120
:102D50000220FFF77CFB00210220FFF778FB2EE02A
:102D600001210420FFF773FB00210420FFF76FFB14
:102D700025E001210820FFF76AFB00210820FFF76A
:102D800066FB1CE001211020FFF761FB00211020F1
:102D9000FFF75DFB13E001212020FFF758FB002126
:102DA0002020FFF754FB0AE001214803FFF742FB14
:102DB00000214FF40050FFF73DFB00E000BF00BFD3
:102DC00010BD028802F08F020280CA884B881A4325
:102DD00003881A4302808A8882850A880285BE4A4F
:102DE000904202D0BD4A904201D10A7A0286012265
:102DF0008282704770B5002400220023058C4FF6B4
:102E0000FE7635400584028C8388048B4FF68F75DF
:102E10002C400D882C43751E2A400D892A434D886D
:102E20002A43CD888586AC4DA84202D0AB4DA8423E
:102E300013D14FF6F7752A404D892A434FF6FB759B
:102E40002A408D882A4347F6FF652B4047F6FF55F9
:102E50002B408D892B43CD892B43838004830284AF
:102E600070BD70B5002400220023058C4FF6EF766C
:102E700035400584028C8388048B48F6FF752C400E
:102E80000D884FF6FF7606EA05252C434FF6DF75D1
:102E90002A400D8906EA05152A434D8806EA0515DC
:102EA0002A43CD8805878C4DA84202D08B4DA8427D
:102EB0001DD14FF67F752A404D894FF6FF7606EA01
:102EC00005152A434FF6BF752A408D8806EA051579
:102ED0002A4347F6FF352B4047F2FF752B408D897B
:102EE00006EA85052B43CD8906EA85052B438380B9
:102EF0000483028470BD70B5002400220023058C79
:102F00004FF6FF6635400584028C8388848B4FF62C
:102F10008F752C400D882C434FF6FF552A400D89A4
:102F20004FF6FF7606EA05252A434D8806EA052571
:102F30002A43CD888587684DA84202D0674DA842B4
:102F40001DD14FF2FF752A404D894FF6FF7606EAF4
:102F500005252A434FF6FF352A408D8806EA0525C8
:102F60002A4346F6FF752B4045F6FF752B408D89A9
:102F700006EA05152B43CD8906EA05152B43838008
:102F80008483028470BD70B5002400220023058C68
:102F90004EF6FF7635400584028C8388848B48F694
:102FA000FF752C400D884FF6FF7606EA05252C4369
:102FB0004DF6FF752A400D8906EA05352A434D88EE
:102FC00006EA05352A43CD88A0F84050424DA84274
:102FD00002D0424DA84207D1C3F30D038D894FF6AD
:102FE000FF7606EA85152B4383808483028470BDB7
:102FF000828B4FF2FF331A408283828B4FF6FF732E
:1030000003EA01231A4382837047F0B50C46154644
:10301000002100220026078C4EF6FF7C07EA0C07F1
:103020000784818B028C4FF6FF7707EA043640F65F
:10303000FF4739404FF6FF7707EA05274FF6FF7C39
:103040000CEA033C47EA0C0739434DF6FF773A4058
:1030500046F480573A4381830284F0BD828B4FF659
:10306000F3731A408283828B0A4382837047F0B5E0
:103070000C461546002100220026078C4FF6FF6CF7
:1030800007EA0C070784818B028C4FF6FF7707EA6B
:1030900004264FF60C7739404FF6FF7707EA0317FF
:1030A0002F4339434FF6FF573A4046F480773A436F
:1030B00081830284F0BD028B4FF2FF331A400283FA
:1030C000028B4FF6FF7303EA01231A430283704712
:1030D0000010004000FCFFBF002C01400034014004
:1030E000F0B50C461546002100220026078C4FF64D
:1030F000EF7C07EA0C070784018B028C4FF6FF7701
:1031000007EA041640F6FF4739404FF6FF7707EA13
:10311000033739434FF6FF7707EA052739434FF660
:10312000DF773A4046F010073A4301830284F0BD4E
:10313000028B4FF6F3731A400283028B0A43028319
:103140007047F0B50C46154600210022068C4FF65C
:10315000FE773E400684018B028C4FF60C763140A0
:103160007E1C06EA03162E4331437E1E324044F095
:103170000106324301830284F0BD70B505460C465A
:10318000208850B92389A28861882846FFF7D9FF93
:10319000E1882846FFF7CCFF25E0208804280AD1E3
:1031A0002389A28861882846FFF79AFFE18828468C
:1031B000FFF781FF17E0208808280AD12389A28819
:1031C00061882846FFF753FFE1882846FFF746FF4E
:1031D00009E02389A28861882846FFF716FFE18865
:1031E0002846FFF705FF70BD2DE9F04105460C4666
:1031F00000260127608808B9022600E00026A08882
:10320000012801D1022700E001272088A0B92389E5
:10321000A28861882846FFF794FFE1882846FFF7D7
:1032200087FF23893A4631462846FFF759FFE18850
:103230002846FFF740FF13E02389A28861882846CB
:10324000FFF74EFFE1882846FFF735FF23893A460E
:1032500031462846FFF775FFE1882846FFF768FFEB
:10326000BDE8F0810A884B881A438B881A43CB88C3
:103270001A430B891A434B891A438B891A43A0F8C6
:10328000442070474FF6FF71818000210180C1808A
:103290004180017270470021018041808180C1809E
:1032A000018141818181C18170470021018041807C
:1032B000012181800021C1800181704700210180AE
:1032C00041808180C180018141818181704721B12C
:1032D000028842F00102028004E0028840F2FE33DC
:1032E0001A400280704731B1B0F8442042F40042E5
:1032F000A0F8442005E0B0F84420C2F30E02A0F884
:10330000442070471AB183890B43838102E083898B
:103310008B43838170478182704741EA0203A0F8A2
:10332000483070471AB183890B43838102E0838957
:103330008B438381704701894FF6F87211400181F8
:1033400070470A46002101894FF68F7319401143D7
:103350000181704730B504460D4629462046FFF7E7
:10336000F0FF208940F00700208130BD2DE9F041B9
:1033700004460D4616461F46602D06D13B460122E7
:1033800031462046FFF7ACFE05E03B4601223146C0
:103390002046FFF7D6FE29462046FFF7D2FF2089B8
:1033A00040F007002081BDE8F08170B50C46002197
:1033B0000189C9B244EA02054FF6FF7606EA032600
:1033C00035432943018170BD2DE9F04105460E4684
:1033D00017469846002443463A4631462846FFF7AA
:1033E000E4FF2C894FF6F870044044F007044FF6D0
:1033F0008F70044044F070042C81BDE8F081F0B57A
:1034000004460D4616461F463B4632462946204690
:10341000FFF7CBFF208940F480402081F0BD01857B
:10342000828270470A460021018840F28F3319409A
:10343000114301807047F0B50C4615461E46002129
:10344000002200230189028B038C4FF6F877394064
:1034500021434FF6FC473A4040F201173A434FF6FA
:10346000DD773B404FF6FF7707EA06172F433B43D4
:10347000018102830384F0BD0A460021018B4FF6CF
:103480008F7319401143018370470A460021018B55
:1034900048F6FF7319404FF6FF7303EA02231943FE
:1034A000018370470A460021818B4FF68F731940C4
:1034B0001143818370470A460021818B48F6FF73D0
:1034C00019404FF6FF7303EA0223194381837047C3
:1034D00021B1028842F08002028004E0028840F2BA
:1034E0007F331A400280704721B1828842F0040283
:1034F000828004E082884FF6FB731A408280704716
:1035000021B1828842F00802828004E082884FF66E
:10351000F7731A408280704721B1828842F001021D
:10352000828004E082884FF6FE731A4082807047E2
:103530000A460021018B4FF6F773194011430183AE
:1035400070470A460021018B4FF2FF7319404FF676
:10355000FF7303EA02231943018370470A460021DF
:10356000818B4FF6F77319401143818370470A46E8
:103570000021818B4FF2FF7319404FF6FF7303EA6E
:1035800002231943818370470A460021018B4FF6BD
:10359000FB7319401143018370470A460021018BD8
:1035A0004FF6FF3319404FF6FF7303EA0223194326
:1035B000018370470A460021818B4FF6FB73194047
:1035C0001143818370470A460021818B4FF6FF33F8
:1035D00019404FF6FF7303EA0223194381837047B2
:1035E0000A460021018B4FF67F7319401143018376
:1035F00070470A460021018BC1F30E014FF6FF739D
:1036000003EA02231943018370470A460021818B94
:103610004FF67F7319401143818370470A4600219A
:10362000818BC1F30E014FF6FF7303EA02231943A6
:10363000818370470A460021018C4FF6FD731940C3
:103640001143018470470A460021018C4FF6F7733D
:1036500019401143018470470A460021018C4FF63E
:10366000DF7319404FF6FF7303EA02131943018415
:1036700070470A460021018C4FF67F7319404FF6C0
:10368000FF7303EA02131943018470470A460021BD
:10369000018C4FF6FF5319404FF6FF7303EA0223E4
:1036A0001943018470470A460021018C4FF2FF73D1
:1036B00019404FF6FF7303EA022319430184704750
:1036C0000A460021018C4DF6FF7319404FF6FF7337
:1036D00003EA023319430184704710B5038C0124B7
:1036E0008C40A3430384038C02FA01F4A4B2234365
:1036F000038410BD10B5038C04248C40A3430384C1
:10370000038C02FA01F4A4B22343038410BD30B544
:10371000038C01248C40A343038409B1082918D1E8
:1037200000F1180303EB61031B684FF68F7423400D
:1037300000F1180404EB6104236000F1180303EBAB
:1037400061031B68134300F1180404EB6104236058
:103750001FE00B1FC3F34E0400F118031B5948F67A
:10376000FF7423400C1FC4F34E0500F1180463518D
:103770000B1FC3F34E0400F118031B594FF6FF74DF
:1037800004EA022423430C1FC4F34E0500F118047D
:10379000635130BD21B1028842F00202028004E090
:1037A000028840F2FD331A400280704721B102883E
:1037B00042F00402028004E0028840F2FB331A4027
:1037C0000280704721B1828842F08002828004E04A
:1037D00082884FF67F731A4082807047028840F2D9
:1037E000F7331A40028002880A43028070478288B9
:1037F0004FF68F731A40828082880A438280704716
:1038000002894FF6F8731A40028102890A43028145
:10381000704702894FF67F731A40028102890A437A
:103820000281704781847047818570478186704727
:103830000187704781877047A0F840107047028861
:10384000D2B2028002880A43028070470146888E05
:1038500070470146088F70470146888F70470146C0
:10386000B1F8400070470146888C70470146088DCA
:10387000704702460020138A0B400BB1012000E084
:1038800000207047CA430282704730B502460020CC
:1038900000230024158A05EA0103958905EA01043D
:1038A00013B10CB1012000E0002030BDCA430282F8
:1038B0007047000031490143314A1160704770B5CB
:1038C000002100230F22C47804B32D4C246804F493
:1038D000E064C4F5E064210AC1F10403CA404478FD
:1038E00004FA03F18478144021430901254C067839
:1038F000A155047804F01F050124AC4005786D1132
:10390000AD0005F1E025C5F8004109E0047804F0B8
:103910001F050124AC401C4D0678761145F8264061
:1039200070BD1A4A0A400243154B1B1F1A607047AC
:1039300039B1134A121D12680243114B1B1D1A6044
:1039400006E00F4A121D126882430D4B1B1D1A60C0
:103950007047042808D14FF0E021096941F00401C3
:103960004FF0E022116107E04FF0E021096921F0FA
:1039700004014FF0E0221161704700000000FA05D9
:103980000CED00E000E400E080E100E080FFFF1FBC
:1039900000204C490860091D0860091D0860091DC8
:1039A0000860494847491431086070478179002907
:1039B00046D04449096802689143424A1160111D8A
:1039C0000968026891433F4A121D116001793F4A1C
:1039D0001144D1F800140268114302793B4B1A4498
:1039E000C2F8001437490831096802689143354A22
:1039F00008321160111D096802689143314A0C3286
:103A00001160417910290ED1111F09680268114314
:103A10002C4A08321160111D096802681143294AB5
:103A20000C32116018E04179284A1144D1F8001491
:103A3000026811434279254B1A44C2F800140BE086
:103A40000179224A1144D1F80014026891430279A5
:103A50001E4B1A44C2F80014704700210160017126
:103A60000C2141710021817170471649103109689C
:103A70000143144A10321160704701460020114A78
:103A8000143212680A400AB1012000E00020704799
:103A90000C49143108607047014600200022094B90
:103AA0001B6803EA0102074B14331B680B4013B178
:103AB0000AB1012000E0002070470249143108607B
:103AC0007047000000040140FFFF070000000140B4
:103AD0000CB50020019000904748006840F4803009
:103AE0004549086000BF4448006800F40030009079
:103AF0000198401C0190009818B90198B0F5A06F8A
:103B0000F1D13D48006800F4003010B10120009070
:103B100001E0002000900098012844D13748006857
:103B200040F01000354908600846006820F00300A6
:103B300008600846006840F0020008602E484068AF
:103B40002D4948600846406848600846406840F48F
:103B5000806048600846406820F47C104860084651
:103B6000406840F4E81048600846006840F0807003
:103B7000086000BF2048006800F000700028F9D0FD
:103B80001D48406820F003001B4948600846406813
:103B900040F00200486000BF1748406800F00C0089
:103BA0000828F9D101E000BFFEE70CBD10B5FFF712
:103BB0008FFF10BD10B51048006840F001000E499D
:103BC0000860084640680E4908400B4948600846AE
:103BD00000680C490840084908600846006820F45D
:103BE000802008600846406820F4FE0048600020FD
:103BF0008860FFF7DBFF10BD00100240002002408C
:103C00000000FFF8FFFFF6FEF0B480EA0102D40FD7
:103C10004200B2EB410F02D20246084611464A006A
:103C200042D0C30DDDB2C1F3C752AD1A202D35DA33
:103C3000C1F3160141F4000204B15242C5F120065D
:103C400002FA06F12A411044B3EBD05F23D0C4B18D
:103C5000012DA0EBC35009DCF0BC4FF0004202EA9A
:103C6000C352DBB200F5000000F04BBB400000F196
:103C7000807000EBC350A0F1807040EAD170490021
:103C800009E0490841EAC071A0EBC35000F500000B
:103C9000400800EBC350F0BC00F02ABB6142012297
:103CA00002EB4101001BF6E7F0BC704781F00041D8
:103CB000AAE780F00040A7E780EA010210B502F011
:103CC0000043400022D04A001FD0010E01EB1261D8
:103CD000C0F35600C2F3560240F4000042F4000262
:103CE000A0FB022000047F39140400D0401C50EADD
:103CF000124001D44000491EC2B20C0604EBD010A1
:103D0000401C4008802A02D003E0002010BD20F0B3
:103D10000100002900DA0020184310BD30B480EA09
:103D2000010202F0004530F0004221F0004013D0C3
:103D300090B1C30DD40DC2F31601C0F31600E41AFE
:103D400041F4000140F400027D34914201D3641C2F
:103D500000E04900002C02DA30BC002070474FF42C
:103D600000000023914201D3891A034340084FEA1F
:103D70004101F7D151B1914202D14FF0004105E02C
:103D800002D24FF0010101E06FF0010103EBC450DA
:103D9000284430BC00F0ACBA2DE9FE4F804681EAE1
:103DA0000300C00F0C46009021F0004123F00045B5
:103DB000B8EB0200A94105D24046214690461C4678
:103DC0000B46024623F00040104347D0270DC7F3AF
:103DD0000A00C3F30A510290401A019040286BDA9E
:103DE000C3F3130040F4801B0098924620B10023D7
:103DF000D2EB030A63EB0B0B01985946C0F140026A
:103E0000504600F044FA06460D4650465946019A7F
:103E100000F05CFA10EB08006141002487EA1152BF
:103E200084EAE7731A4340D0009A62B3019A012AE8
:103E30004FEA075215DC001B61EB02014FF0004214
:103E400002EA0752CDE90042001C41F580113246DA
:103E50002B4600F093FA03B0BDE8F08F40462146B0
:103E6000F9E7001B61EB0201001C41F5801300180B
:103E70005B412018A2F5001747EB030140EAD5701B
:103E8000B6196D4111E06D084FEA360645EAC07576
:103E90004FEA0752001B61EB0201001C41F5801143
:103EA00049084FEA30000019514132462B4603B011
:103EB000BDE8F04F00F053BA009801224000002303
:103EC000D0EB020263EBE073009821464FEAE07406
:103ED000B8EB000061EB0401E9E783F000435BE726
:103EE00081F0004158E72DE9FE4F81EA030404F018
:103EF000004421F0004100944FF0000B23F00043F8
:103F000050EA01045ED052EA03045BD0C3F30A54C2
:103F1000C1F30A552C44A4F2F3340194A0FB0254DB
:103F2000C1F3130141F48011C3F3130343F480136D
:103F300001FB024400FB034E840A970A44EA8154C1
:103F400047EA8357A4FB076802958D0A05FB07859E
:103F50004FEA932C04FB0C542705029D4FEA0658A8
:103F600047EA1637B5EB08056EEB070C870E920E85
:103F700047EA811742EA8312A7FB0201B6EB0B0165
:103F800064EB00042B0D43EA0C335E1844EB1C5029
:103F9000DA465146E7FB0201C5F313044FEA0B333F
:103FA00043EA14534FEA0432019C43EA0603A4F1A6
:103FB0000C040294009CCDE900B400F0DFF903B0DA
:103FC000BDE8F08F00200146F9E72DE9F04D81EAC8
:103FD000030404F0004B21F0004514464FF0000AA2
:103FE00023F0004150EA050220D054EA01021DD01E
:103FF000C5F30A570246C5F31303C1F31300C1F317
:104000000A5640F4801543F48013A7EB0608101BF2
:10401000D64608F2FD3873EB050002D308F101081B
:1040200001E092185B41B8F1000F03DA002001466D
:10403000BDE8F08D00204FF48011064684460EE066
:10404000171B73EB050705D3121B63EB0503064330
:104050004CEA010C49084FEA300092185B4150EAE3
:104060000107EDD152EA030012D082EA040083EA8C
:104070000501084305D0101BAB4106D201220023E5
:1040800006E000224FF0004302E06FF001025310FF
:104090001AEB06004CEB085110EB0A0041EB0B0148
:1040A000BDE8F04D00F05BB9C10F80EAE070084454
:1040B000CA079623002100F024B90EB5C10F80EA8B
:1040C000E0700844CA07002140F233438DE80E0037
:1040D0000A460B4600F052F903B000BD00F0004262
:1040E00020F00040C10DC0F3160040F400007F290D
:1040F00001DA00207047962903DCC1F19601C8401F
:1041000001E096398840002AF4D04042704720F000
:104110000040C10DC0F3160040F400007F2901DA11
:1041200000207047962903DCC1F19601C840704712
:1041300096398840704770B5C1F30A5201F00045C6
:104140000024C1F3130140F2FF3341F480119A427D
:1041500001DA002070BD40F233439A42A2F23342AA
:1041600003DC524200F0A2F800E090402C43F1D072
:10417000404270BD00F0004230F000400AD0C10D56
:1041800001F56071C0F3160042EA0151C208400710
:1041900011437047002001467047000030B5041EEF
:1041A00071F1000404DB4FF00044404264EB010174
:1041B000141E73F1000405DB1C464FF0004352420D
:1041C00063EB0403994208BF904230BD01F0004305
:1041D00030B421F0004150EA010206D00A0DA2F5E8
:1041E0006072C1F31301002A02DC30BC002070476A
:1041F000440F44EAC104C100E01830BC00EBC250D7
:1042000000F076B8002801DBC0F10040002901DB96
:10421000C1F1004181427047002801DBC0F100403C
:10422000002901DBC1F10041884270472DE9F05FB0
:104230000546002092469B46884606468146402415
:104240001BE0284641464746224600F02FF85346D9
:104250005A46C01A914110D311461846224600F022
:1042600016F82D1A67EB01084F462246012000215F
:1042700000F00DF817EB00094E41201EA4F10104D7
:10428000DFDC484631462A464346BDE8F09F202AF7
:1042900004DB203A00FA02F1002070479140C2F19D
:1042A000200320FA03F3194390407047202A04DBCF
:1042B000203A21FA02F00021704721FA02F3D0409F
:1042C000C2F120029140084319467047202A06DBBC
:1042D000CB17203A41FA02F043EAE07306E041FAD4
:1042E00002F3D040C2F120029140084319467047C2
:1042F0000029A8BF7047401C490008BF20F00100FA
:10430000704710B4B0FA80FC00FA0CF050EA0104D7
:1043100004BF10BC704749B1CCF1200421FA04F469
:1043200011FA0CF118BF012121430843A3EB0C0142
:10433000CB1D4FEA00614FEA102042BF002010BCA5
:10434000704700EBC35010440029A4BF10BC704755
:10435000401C490008BF20F0010010BC704710B598
:10436000141E73F1000408DA401C41F10001921898
:104370005B411A4301D120F0010010BD2DE9F04D41
:1043800092469B4611B1B1FA81F202E0B0FA80F296
:1043900020329046FFF77BFF04460F4640EA0A00B2
:1043A00041EA0B0153465A46084313D0114653EADB
:1043B000010019D0C8F140025046FFF777FF0546CB
:1043C0000E46504659464246FFF761FF084305D066
:1043D000012004E020463946BDE8F08D0020054369
:1043E00046EAE0762C4337430A986305E40AA0EBDB
:1043F00008000022FD0A44EA47540A3002D5002092
:104400000146E9E7010510196941DDE90845001990
:104410006941BDE8F04DA2E770B521F000430343C8
:104420000CD0C1F30A550024D5EB040564EB04035A
:10443000D617AD1AB34102DB0020014670BD20182B
:1044400041EB025170BD2DE9F04D00231A461B1AB5
:104450008A4103DB00200146BDE8F08DC1F30A521A
:10446000C1F3130141F480154FF0000BD10702D1C5
:1044700000186D41521E0027044640F2FF113846D5
:1044800001EB620A3E468046024600204FF480114E
:10449000FFF70CFFC2197141BB1846EB0100B4EBEA
:1044A000030C75EB000C04D3E41A65EB000517460A
:1044B0000E46241908F101006D4180463428E3DDE1
:1044C000F91946EB0600091BA84103D24FF0FF3251
:1044D000134601E0002213461BEB070046EB0A518E
:1044E000BDE8F04DFFF73BBF064C074D06E0E06826
:1044F00040F0010394E8070098471034AC42F6D32B
:10450000FBF7F8FD584D0008784D000870B58C1881
:1045100010F8015B15F0070301D110F8013B2A11D7
:1045200006D110F8012B03E010F8016B01F8016BC4
:104530005B1EF9D12B0705D40023521E0DD401F8C0
:10454000013BFAE710F8013BCB1A921C03E013F889
:10455000015B01F8015B521EF9D5A142D8D30020BE
:1045600070BD00000FB4054B10B503A9044A0298B2
:1045700000F094F810BC5DF814FB0000D51D000895
:1045800054030020490050EAC12018BF04204A0DFE
:1045900018BF40F0010040F2FF72B2EB515F08BF5C
:1045A00040F00200012808BF052070472DE9F041C6
:1045B0004F1E00EBC7010446D1E9000115461E4617
:1045C00037F006020DD02A463346FFF78CFC7F1EDB
:1045D00004EBC703D3E90023FFF7DEFB37F0060245
:1045E000F1D1022F25D0042F13D0062F18BFBDE81C
:1045F000F0812A463346FFF776FCD4E90A23FFF719
:10460000CBFB2A463346FFF76EFCD4E90823FFF7BD
:10461000C3FB2A463346FFF766FCD4E90623FFF7BF
:10462000BBFB2A463346FFF75EFCD4E90423FFF7C1
:10463000B3FB2A463346FFF756FCD4E90223FFF7C3
:10464000ABFB2A463346FFF74EFCD4E90023BDE816
:10465000F041FFF7A1BB0122FFF7DEBEFFF79CBBD5
:10466000024A00201107FFF7D7BE000001FDFFFF3F
:1046700002E008C8121F08C1002AFAD1704770472B
:10468000002001E001C1121F002AFBD17047000089
:104690000149086070470000700300202DE9FF4FBA
:1046A0008BB09A460F460446002606E025280BD01C
:1046B00052460D999047641C761C20780028F5D14D
:1046C0000FB03046BDE8F08F0025A94601227D4994
:1046D00000E0054314F8013F203B02FA03F00842D2
:1046E000F7D120782E2817D114F8010F45F00405D2
:1046F0002A280ED06FF02F022078A0F1300109296E
:104700000AD809EB890102EB410100EB0109641CA5
:10471000F2E757F8049B641C20786C280DD004DC69
:104720004C2812D06A2811D104E074280DD07A28C0
:104730000CD10AE045F4001507E0617845F48015D6
:10474000814202D1641C05F58015641C207869281B
:104750003ED006DC0028B3D063280BD0642804D1F7
:1047600036E0732810D075285CD052460D999047DA
:10477000761CA5E017F8040B8DF8000000208DF8DA
:104780000100E846012003E057F8048B4FF0FF30AA
:1047900069074FF0000501D40AE06D1C4D450DDAA4
:1047A0008542FADB18F805100029F6D106E06D1CE9
:1047B0008542FCDB18F805100029F8D12E4404E0EE
:1047C00018F8010B52460D9990476D1EF8D277E00C
:1047D00000200A90C5F302504FF00A0B02280CD0BB
:1047E00001CFC117021E71F100020CDA0023D0EBD9
:1047F000030063EB01012D2208E0FF1D27F00707EE
:10480000F7E80201EEE72A0504D52B228DF82420D3
:10481000012203E0EA070FD02022F7E70DF120087C
:10482000089218E000200A90C5F302504FF00A0BDE
:10483000022803D001CF00210022EFE7FF1D27F05F
:104840000707F7E80201F7E75A460A9BFFF7EEFC75
:10485000303208F8012D50EA0102F5D1ADEB080025
:1048600000F1200B680701D44FF00109D94502DDA2
:10487000A9EB0B0000E000208146002506E009A816
:104880005246405D0D9990476D1C761C08988542F4
:10489000F5DB04E0302052460D999047761CB9F1C3
:1048A0000001A9F10109F5DC05E018F8010B5246F9
:1048B0000D999047761CBBF10001ABF1010BF4DCC4
:1048C000641CFAE6092801002DE9F84F04460D465C
:1048D00021F0004000917349814211DC7249884205
:1048E00001DC06D12CB120462946BDE8F84FFFF780
:1048F000B2BE6E48002DCCBF6D496E49BDE8F88F41
:104900006D49814211DD6D498142D8BF4FF0FF36BC
:104910006DDD20462946FFF735FE042808BFFFF766
:104920009FFE20462946BDE8F88F6549654F25F072
:104930000045814233DD6449814219DD002632465B
:104940004FF0804320462946FFF726FA80468A46E4
:10495000012220462946FFF75FFD00223B46FFF774
:10496000BCFA42465346FFF730FB04460D463EE094
:1049700001260022BA463B4620462946FFF70CFA9C
:1049800080460F460022534620462946FFF7A5FAE7
:1049900042463B46FFF719FB04460D4627E04B49CC
:1049A00081421BDDDFF828A1022600225346204663
:1049B0002946FFF798FA00223B46FFF7EDF98046BB
:1049C0000F460022534620462946FFF786FA424604
:1049D0003B46FFF7FAFA04460D4608E00326224656
:1049E0002B4600203B49FFF7F0FA04460D462246CD
:1049F0002B4610461946FFF776FA8B46824602464A
:104A00000B46FFF770FA07460246334888460B46C6
:104A100006217844FFF7CAFD52465B46FFF763FA6A
:104A200082462E488B463A46434605217844FFF796
:104A3000BDFD3A464346FFF756FA02460B46002EA6
:104A4000504659460CDAFFF7A7F922462B46FFF7E6
:104A50004AFA01B022462B46BDE8F04FFFF740BAB4
:104A6000FFF79AF922462B46FFF73DFA1C4A7A4493
:104A700002EBC603D3E90023FFF72FFA22462B46A9
:104A8000FFF72BFA174A7A4402EBC603D3E9002357
:104A9000FFF726FA009A002AB8BF81F00041BDE86E
:104AA000F88F0000000010440000F07F182D4454DF
:104AB000FB21F93FFB21F9BF0000DC3F0000203E55
:104AC0000000F33F0000F03F0000E63F008003409D
:104AD0000000F83F0000F0BF0A030000C802000019
:104AE000660200002E0200002DE9F04D9446CCF144
:104AF000000423F000464CEA0404524F46EAD47402
:104B00009A46884621F00042BC4206D8454240EA17
:104B1000050442EAD474BC4204D9BDE8F04D6246B3
:104B2000FFF79CBDAAF14055A5F17F6555EA0C043D
:104B30000BD0022404EAAA74434DDFF810E144EAE2
:104B4000D87452EA000B04D00CE0BDE8F04DFFF73A
:104B5000BBBE002C14BF012CBDE8F08D022C30D060
:104B6000032C32D056EA0C0B0AD0BE4220D1BA42F6
:104B700009D126F0804622F080423346114617E0E4
:104B800000291ADB25E0DFF8C8B0FB44002C04BF85
:104B9000DBE90001BDE8F08D012C02BFDBE900017B
:104BA00081F00041BDE8F08D022C0AD0032C0CD01E
:104BB000BA4212D1B8F1000F0BDA23482549BDE8FB
:104BC000F08D28462449BDE8F08D28467146BDE8A1
:104BD000F08D1D482149BDE8F08D921B12153C2A2D
:104BE000C4BF19481D490EDCBAF1000FBEBF12F157
:104BF0003C0F0020014606DB6246FFF7E6F921F094
:104C00000041FFF761FE002C08BFBDE8F08D012CCC
:104C100004BF81F00041BDE8F08D114A114B022C18
:104C200007D0FFF75AF92A46BDE8F04D0A4BFFF7C7
:104C300054B9FFF752F92A46BDE8F04D064BFFF78D
:104C40004FB900000000F07F182D4454FB2109C02B
:104C5000C2010000FB21F9BFFB210940FB21F93F04
:104C6000075C143326A6A13C2DE9F04106460F4609
:104C7000FFF7E9FB04000D4618BF0120284320F090
:104C80000040C0F17F6000F1E040C00F0ED0301C4A
:104C900018BF0120384320F00040C0F17F6000F1D0
:104CA000E040C00F04BF0120FFF7F2FC2046294678
:104CB000BDE8F081000000004FBB610567ACDD3F3F
:104CC000182D4454FB21E93F9BF681D20B73EF3F33
:104CD000182D4454FB21F93FE2652F227F2B7A3CAB
:104CE000075C143326A6813CBDCBF07A8807703C64
:104CF000075C143326A6913CC4EB98999999C9BFD7
:104D0000711623FEC671BCBF6D9A74AFF2B0B3BF0B
:104D10009AFDDE522DDEADBF2F6C6A2C44B4A2BFCB
:104D20000D5555555555D53FFF8300922449C23F37
:104D30006E204CC5CD45B73F513DD0A0660DB13F6B
:104D4000EB0D76244B7BA93F11DA22E33AAD903F7D
:104D50000000000000000000784D00080000002066
:104D6000740300000C450008F44E00087403002092
:104D70001407000080460008017032025A0104291D
:104D80000C290432072DA6FFFFFF041AD4041AE7EA
:104D900004325A3204691029041AF1042914320920
:104DA00029105AF804413205320B6910415A08148F
:104DB0002904691029049A1018691029045A1E142C
:104DC0009A06102988290429142908A9AC1AE20492
:104DD0005AECAC2994691029041AF6042914290400
:104DE000691029044169186910419A0A1869102943
:104DF000049A141869102904299C6918691069AC6F
:104E0000291429085A0FE029BC32053204320372F2
:104E1000021AFE801AFD041AFC041AFB041AFA0492
:104E20001AF8043201190713FF31281007FF11FF88
:104E30000107FF12FF0207FF1BFF03052A040510ED
:104E40000B0507FF1CFF0607FF16FF2A08232A0889
:104E5000232A082329051B04081E2A05051606080F
:104E6000FF15FF1A091E28080109FF13FF02092375
:104E700029052B0409231A09412A0605112A0A23A8
:104E80002A0A232A0A232F0AFF14FF040A231A0AD4
:104E9000412B060A232A0B232A0B231A0B1E1B0362
:104EA0000B1E2A04052B050B23150BFF17FF1A0CED
:104EB0001E1B010C411B020C192A03051B040C1EAE
:104EC0002B050C692A0C232A0D232A0D232A0D23D6
:104ED00029052B040D232A0D232A0D23012F051A42
:104EE000803F5E012D010203040440090607080902
:044EF00002040608AA
:0400000508000101ED
:00000001FF
