:020000040800F2
:10000000680A002001010008BD110008BF110008A6
:10001000C3110008C7110008CB1100080000000040
:10002000000000000000000000000000CF110008E8
:10003000D111000800000000D3110008E7110008EA
:100040001701000817010008170100081701000830
:1000500017010008170100081701000835170008EC
:100060001701000817010008170100081701000810
:100070001701000817010008170100081701000800
:1000800017010008170100081701000817010008F0
:1000900017010008170100081701000817010008E0
:1000A00017010008170100081701000817010008D0
:1000B000F916000817010008CF16000817010008FC
:1000C00017010008170100081701000817010008B0
:1000D00017010008170100081701000817010008A0
:1000E000170100081701000817010008DFF80CD0FD
:1000F00003F0BCFF00480047E5100008680A002034
:1001000005480047FEE7FEE7FEE7FEE7FEE7FEE7FD
:10011000FEE7FEE7FEE7FEE7ED000008FD4AFE49C8
:10012000C0E90021FD4AFE49C0E90221FD4AFE491D
:10013000C0E9042100228261C261002101624162A2
:100140000163416300238363C36302644264836485
:10015000C36470472DE9F04F8BB0824616461F46A8
:10016000DDE91645DAE908834246DDE9140103F0CA
:100170008AFCCAE90A01DAE90A834246204629468E
:1001800003F087FCCDE90801DAE90683424603F073
:10019000D9FBCAE90601DAE912834246204629461C
:1001A00003F077FCCDE90001DAE90E83424603F063
:1001B0006AFCCDE90201DAE91083424603F063FCF0
:1001C000CDE90401DAE90083424603F0BBFB224695
:1001D0002B46CDE9060103F05CFCCDE90801DAE924
:1001E0000C83424603F0AEFBCAE90C01DAE9128344
:1001F00042462046294603F04CFCCDE90801DAE9E5
:100200000E83424603F042FCCAE90E01DAE912838A
:1002100042462046294603F03CFCCDE90801DAE9D4
:100220001083424603F032FCCAE9100122462B46F5
:10023000DAE90281404603F02CFCCDE90801DAE955
:100240001283424603F07EFBCAE91201DAE9048315
:100250004246DAE90CB1584603F074FBCAE91A01C8
:10026000DAE91A834246DAE90CB1584603F083FC16
:10027000CAE91401DAE91A834246DAE910B15846AC
:1002800003F079FCCAE91601DAE9068342463046F2
:10029000394603F0F8FBCAE91801DAE91883424647
:1002A000DAE914B1584603F0F4FBCDE90801DAE9C4
:1002B0000683424603F046FBCAE90601DAE91883E1
:1002C0004246DAE916B1584603F0E3FBCDE90801EE
:1002D000DAE90883424603F035FBCAE90801DAE9A6
:1002E0000C834246DAE914B1584603F0D2FBCDE95B
:1002F0000801DAE90C83424603F0C8FBCAE90C01A5
:10030000DAE90E834246DAE914B1584603F0C1FB3C
:10031000CDE90801DAE90E83424603F0B7FBCAE9EA
:100320000E01DAE90C834246DAE916B1584603F0C9
:10033000B0FBCDE90801DAE91083424603F0A6FBE1
:10034000CAE91001DAE90EB35A46DAE916814046E5
:1003500003F09FFBCDE90801DAE91283424603F07E
:1003600095FBCAE91201DAE906010BB0BDE8F08F8E
:10037000C0E9062370470246D2E90A017047C0E986
:1003800000237047C0E902237047C0E90423704787
:100390000246D2E9000170470246D2E902017047E5
:1003A0000246D2E90401704760480068604908606D
:1003B0005E4840685F4908605F4800785F490860B0
:1003C00000205F4908600AE000205E495C4A12682C
:1003D00041F822005A480068401C594908605848B2
:1003E0000068FF28F0DB0020554908600AE0002182
:1003F0005548534A126840F8221051480068401C82
:100400004F4908604E4800680828F0DB00204C493E
:1004100008600AE000204D49494A126841F822006C
:1004200047480068401C4649086045480068042861
:10043000F0DB7047F0B50024454D2C60454D2C6035
:100440003F4D2C60CAE0444C414D2D6854F82510B6
:100450000020B6E03C4C3A4D2D6854F825503E4EF5
:100460003B4C2468641C56F82440A5420BDB364CF8
:10047000334D2D6854F82550354C2468241D56F80A
:100480002440A5420ADD0025324C26682468641CFD
:10049000304F3C602B4C44F826508CE02A4C284DC1
:1004A0002D6854F825502C4E294C2468E41C56F82D
:1004B0002440A54216DC244C214D2D6854F82550CB
:1004C000234C2468A41C56F82440A5420ADB5A2673
:1004D000204C25682468641C1E4F3C60194C44F86D
:1004E000256068E0184C164D2D6854F825501A4EBA
:1004F000174C2468A41C56F82440A5423FDA124C3D
:100500000F4D2D6854F82550114C2468641C56F882
:10051000244023E0FCA9F1D24D62503FFA7E6ABC30
:100520007493683FB81E85EB51B89E3F6C00002065
:1005300010030020140300201802002024030020D0
:100540002003002038040020340800205408002034
:10055000180300201C030020800000202C1BFE4DEF
:100560002D686D1D56F825506C43FC4D2E682D6886
:100570006D1CFA4F3D60FA4D45F826401BE0F94DE1
:10058000F54C2468241D55F82440F74DF74E366885
:1005900055F82650641BF34EEF4D2D68AD1D56F8EF
:1005A00025506C43ED4D2E682D686D1CEB4F3D6062
:1005B000EB4D45F82640E84C2468A41DE64D2C6020
:1005C000401C8842FFF646AFE34C2468641CE24DB1
:1005D0002C60E64C2468641CE44D2C60E34C2468D9
:1005E000E34D2D68AC42FFF62EAFDB4C2268DB4CAE
:1005F00023680024DD4D2C601DE0DA4CD64D2D68BB
:1006000054F8251000200FE00025D44C26682468FB
:10061000641CD24F3C60D24C44F82650CE4C246827
:10062000641CCD4D2C60401C8842EDDBCF4C24680F
:10063000641CCE4D2C60CD4C2468CE4D2D68AC4250
:10064000DBDBC54C2260C54C2360F0BD10B5012238
:100650000023C64C236040E05A2116E0C64B9B683D
:10066000012B0BD1BE4B53F820308B4203DABC4B2D
:1006700053F8203000E00B46194606E0B84B53F81B
:1006800020304B435A2493FBF4F11346521CBB4CCD
:10069000E35C1846FF2BE1D113E0B74BDB68012B7D
:1006A00008D1AF4B53F820308B420ADAAC4B43F8F9
:1006B000201006E0AA4B53F820300B44A84C44F815
:1006C00020301346521CAD4CE35C1846FF2BE4D19E
:1006D000A64B1B685B1CA54C2360A44B1B68A84C55
:1006E0002468A342B8DB10BDF0B500259F4E3560ED
:1006F0005AE000210023984D2E682D686D1C964FFE
:100700003D60984D55F826209B4D2D69012D21D136
:10071000002015E0914D2E682D686D1C8F4F3D60B7
:100720008F4D55F8264021448B4D2E682D686D1C49
:10073000894F3D608B4D55F8265005FB0433401C16
:100740009042E7DB93FBF1F58E4E884F3F6846F809
:10075000275024E0002020E0804D2E682D686D1C7D
:100760007E4F3D607E4D55F8261099420FDD0B46B9
:10077000794D2E682D686D1C774F3D60794D55F889
:100780002650804E794F3F6846F8275004E0724D5E
:100790002D686D1C704E3560401C9042DCDB734D43
:1007A0002D686D1C714E3560704D2D68714E366828
:1007B000B5429EDBF0BD10B5734903C903F07DFA65
:1007C000694908607148006803F05EFA664948604C
:1007D00010BD10B56B4804680068002803DD0120D7
:1007E0006B49086006E067480068002802DA0020CC
:1007F0006749086063490968002902DD61490968A1
:1008000002E0604909684942084603F023FA614959
:10081000086010BD2DE9F04F89B05F48006803F013
:100820006BFA804689465D48006803F065FA8246A7
:1008300042464B4603F01AFF0646594A594B03F00D
:1008400028F9044603F084FA5749086052480168C1
:10085000006803F007F8029050480168006803F050
:1008600001F80190029902F0A5FF039003F044FA09
:10087000064603F0BBFFCDE906014C48006880F056
:100880000046304603F038FACDE90401DDE90623DD
:1008900003F071F9044603F0D9FD8046404A414B0C
:1008A00003F0F7F8824603F053FA4149086009B0B3
:1008B000BDE8F08F00B585B04FF40070ADF81000C2
:1008C00018208DF8130003208DF8120004A9394870
:1008D00001F0ECF84FF48060ADF8100004208DF8C2
:1008E000130004A9334801F0E1F84FF4E13000901F
:1008F0000020ADF80400ADF80600ADF80800ADF832
:100900000C000C20ADF80A0069462B4801F055FE9A
:100910000121294801F0BFFE4021274801F083FF53
:1009200005B000BD10B501F0F1F94FF4803001F0D1
:100930000CFA01F049FA0446012C52D1002001F0D2
:1009400088FA002001F097FAA00201F08BFA4FF428
:10095000E011200432E00000180300201C030020F6
:1009600038040020800000203408002020030020EC
:1009700010030020140300206C0000201802002047
:1009800024030020540800203000002060000020D4
:1009900068000020640000200800002004000020FF
:1009A000F8C1631ADCA54C401800002000000020AC
:1009B0001C000020000801400038014001F02CFA22
:1009C000012001F035FA00BF392001F0E1F90028DB
:1009D000FAD0022001F02FFA00BF01F035FA082802
:1009E000FBD10121C80201F0FDFA0121084601F006
:1009F00006FB0121022001F002FB0121042001F08D
:100A0000FEFA012144F20D0001F0ECFA10BD08B528
:100A10004FF47C40ADF8000003208DF80200102058
:100A20008DF803006946FE4801F040F80120ADF85A
:100A3000000003208DF8020010208DF803006946A5
:100A4000F84801F033F84FF48070ADF8000003204F
:100A50008DF8020010208DF803006946F04801F07F
:100A600025F808BD08B500214FF0006002F02FFD09
:100A70004FF4C06002F0F4FC1C208DF8000001204F
:100A80008DF8010000208DF8020001208DF8030090
:100A9000684602F0EAFC08BD08B500214FF000608E
:100AA00002F015FD4FF4C06002F0DAFC1E208DF854
:100AB000000000208DF801008DF8020001208DF863
:100AC0000300684602F0D1FC08BD0EB56320ADF806
:100AD000040041F61F40ADF800000020ADF8020010
:100AE00069464FF0804001F042FF01220221480791
:100AF00002F0DEF90121880702F0BFF90EBD0EB544
:100B000040F2E730ADF8040041F61F40ADF80000B8
:100B10000020ADF802006946C34801F028FF012219
:100B20000221C14802F0C4F90121BF4802F0A5F931
:100B30000EBD2DE9F04101F06FFC804603F093F803
:100B40000646BA480CC8304602F09DFF044603F042
:100B5000FFF8B749086001F072FC804603F083F8A3
:100B60000646B4480CC8304602F08DFF044603F038
:100B7000EFF8B149086001F075FC044603F06AF82B
:100B8000AE49086001F081FC044603F063F8AC490B
:100B9000086001F08DFC044603F05CF8A949086088
:100BA00001F099FC044603F055F8A7490860BDE838
:100BB000F0812DE9F041002414E001F02DFC804685
:100BC00003F048F80746294602F0F4FD054601F017
:100BD00036FC804603F03EF80746314602F0EAFD57
:100BE0000646641C642CE8DB9849284602F06CFE3B
:100BF000074603F081F88D4A03C29449304602F05B
:100C000063FE074603F078F88A4A03C2BDE8F08124
:100C100070B5FFF7CEFFFFF78CFFFFF7FBFD8C48A9
:100C2000006803F069F8044622460B468948FFF73E
:100C30009FFB87480068884908608548006803F082
:100C40005BF8864A03C28648006803F055F80446FC
:100C500022460B468348FFF78BFB81480068824998
:100C600008607F48006803F047F8804A03C2FFF736
:100C70009BFB7A4903C903F020F87D4908607D4851
:100C8000006803F001F87A49486070BD2DE9F04F23
:100C900087B0DFF8E491FFF74CFFFFF7BBFD684832
:100CA000006803F029F80746744A754B02F063FFA9
:100CB000054603F04DF806906248006803F01CF802
:100CC00007466E4A6E4B02F056FF054603F040F8A9
:100CD0000446069803F010F807466A4A6A4B02F089
:100CE000D8FE054603F034F8624908606749584861
:100CF000006803F049F805D265496648006803F0CA
:100D00004DF80BD362495248006803F047F81ED2F1
:100D10005E496048006803F037F818D24C48006814
:100D200002F0EAFF05462A460B464A48FFF720FB39
:100D30004748006802F0E0FF484A03C244480068A0
:100D40005449086042480068434908601DE048462D
:100D500002F0D2FF07468846069802F0CDFF824691
:100D60008B463B48006802F0C7FF02460B46CDE9C0
:100D700000ABCDE90278CDE904013648FFF7EAF986
:100D8000054602F0E5FF434908604248006802F06A
:100D9000B3FF21F00041054600223F4B02F0C0FFA7
:100DA00001D284F00044484602F0A6FF05460E46F4
:100DB000204602F0A1FF074688462948006802F055
:100DC0009BFF02460B46CDE90078CDE90256CDE9FE
:100DD00004012448FFF7BEF9824602F0B9FF2F490B
:100DE00008604946069802F03DFD05461A4801682C
:100DF000284602F0DFFC184908604946204602F008
:100E000031FD054618480168284602F0D3FC164912
:100E100008600F48006802F06FFF0546204A41E075
:100E2000000C01400008014000080040480000207C
:100E300000000020500000200400002008000020D6
:100E40000C00002010000020140000200000C84208
:100E5000180000205803002020000020300000204F
:100E60001C000020C80300202400002038000020BF
:100E700034080020600000200AD7233CFCA9F1D2EE
:100E80004D6230409A9999999999B93F0000B4C23E
:100E90000000B44228000020008056402C000020B2
:100EA0007B14AE479F4B02F0F4FD82468B464946C9
:100EB000069802F0D7FC039002F01EFF07469A48FE
:100EC0000CC8384602F03EFD0546984A984B02F0A1
:100ED000E0FD52465B46CDE9040102F033FD924A43
:100EE00003C29448006802F007FF0546924A8D4B02
:100EF00002F0CFFD82468B464946204602F0B2FC06
:100F0000039002F0F9FE05468C480CC8284602F012
:100F100019FD0746854A864B02F0BBFD52465B46EB
:100F2000CDE9040102F00EFD844A03C284498548DC
:100F3000006802F029FF05D383498248006802F067
:100F40002DFF03D2814800687E4908607C498048B3
:100F5000006802F019FF05D37B497D48006802F064
:100F60001DFF03D27B480068794908607A48006811
:100F700002F08AFE0546714903C902F09EFE06464C
:100F8000694903C902F099FE07462B4632463946A5
:100F900072A003F0A9F807B0BDE8F08F08B50320F0
:100FA000ADF8000018208DF8030003208DF8020032
:100FB00069467A4800F07AFD08BD30B587B040F246
:100FC0004D140025022540F29920ADF81400ADF82B
:100FD00010500020ADF81600ADF8120004A97048BA
:100FE00001F0C5FC6020ADF800000120ADF8020062
:100FF000ADF806400020ADF808006946684801F0E9
:1010000050FD0120ADF80200ADF806406946644885
:1010100001F08FFD0821624802F076F8082160484F
:1010200002F07BF801215E4802F028F801215C48BB
:1010300001F023FF07B030BD10B5FFF7AFFFFFF79A
:10104000BCFF10BD0EB54FF6FF70ADF8040040F2C6
:10105000CF20ADF800000020ADF8020069465148ED
:1010600001F085FC012202214E4801F021FF0121FF
:101070004C4801F002FF0EBD1FB50220ADF80C0078
:1010800004208DF80F0003208DF80E0003A94648B8
:1010900000F00CFD4FF4C06002F0E2F907208DF87B
:1010A000080001208DF8090002208DF80A000120B7
:1010B0008DF80B0002A802F0D8F90121002000F001
:1010C000FBFD0220009000208DF804000C208DF81C
:1010D000050001208DF80600684602F03DFAFFF792
:1010E000B1FF1FBD02F03CFB00F02CFCFFF71AFC27
:1010F000FFF78DFC01F086F901F063F9FFF788FD39
:10110000FFF7B0FCFFF7E1FCFFF7C6FCFFF7F7FCC9
:10111000FFF792FFFFF7B0FF24A002F0E5FF00BF4A
:10112000FEE70000E17A943F300000205C8FC2F5BA
:10113000285CEF3F1C0000207B14AE4738000020E5
:10114000000034C3200000200000344328000020A9
:10115000240000202C00002060000020636F6D70D0
:10116000416E676C6558203D202564202C20636FFC
:101170006D70416E676C6559203D202564202C20E0
:10118000585F416E67756C61725F76656C6F6369FD
:101190007479203D2025640A00000000000C014005
:1011A00000040040002C014000080140534141531D
:1011B000534144534144534144530A00704700BFD4
:1011C000FEE700BFFEE700BFFEE700BFFEE7704797
:1011D00070477047FE48006820B1FD480068401E17
:1011E000FB490860704700B5FFF7F4FF00BD1FB56D
:1011F0004FF07E51F748006802F0C6FD2AD160200A
:10120000ADF800000120ADF802004220ADF8060064
:101210000020ADF808006946EF4801F042FC0120CB
:10122000ADF802004220ADF806006946EA4801F038
:1012300080FC0821E84801F067FF0821E64801F03A
:101240006CFF0121E44801F019FF0121E24801F09F
:1012500014FE0BE24FF08041DE48006802F094FD7E
:101260002AD16020ADF800000120ADF802008520F1
:10127000ADF806000020ADF808006946D64801F038
:1012800010FC0120ADF802008520ADF8060069468B
:10129000D14801F04EFC0821CF4801F035FF08216C
:1012A000CD4801F03AFF0121CB4801F0E7FE0121D2
:1012B000C94801F0E2FDD9E1C849C648006802F01A
:1012C00063FD2AD16020ADF800000120ADF80200D6
:1012D000C820ADF806000020ADF808006946BE48F9
:1012E00001F0DFFB0120ADF80200C820ADF80600D8
:1012F0006946B94801F01DFC0821B74801F004FF18
:101300000821B54801F009FF0121B34801F0B6FEFC
:101310000121B14801F0B1FDA8E14FF08141AD4894
:10132000006802F031FD2CD16020ADF800000120F2
:10133000ADF802004FF48570ADF806000020ADF85E
:1013400008006946A44801F0ACFB0120ADF802009A
:101350004FF48570ADF8060069469F4801F0E9FB3F
:1013600008219D4801F0D0FE08219B4801F0D5FEE0
:101370000121994801F082FE0121974801F07DFD8D
:1013800074E197499348006802F0FEFC2CD160207C
:10139000ADF800000120ADF8020040F24D10ADF8AC
:1013A00006000020ADF8080069468B4801F079FB83
:1013B0000120ADF8020040F24D10ADF8060069467C
:1013C000854801F0B6FB0821834801F09DFE082105
:1013D000814801F0A2FE01217F4801F04FFE01216A
:1013E0007D4801F04AFD41E17E497A48006802F0FB
:1013F000CBFC2CD16020ADF800000120ADF802003C
:101400004FF4C870ADF806000020ADF8080069463A
:10141000714801F046FB0120ADF802004FF4C8709E
:10142000ADF8060069466C4801F083FB08216A4864
:1014300001F06AFE0821684801F06FFE012166484C
:1014400001F01CFE0121644801F017FD0EE1664920
:101450006048006802F098FC2CD16020ADF80000D4
:101460000120ADF802004FF4E970ADF8060000204D
:10147000ADF808006946584801F013FB0120ADF8AB
:1014800002004FF4E970ADF806006946524801F0D9
:1014900050FB0821504801F037FE08214E4801F06A
:1014A0003CFE01214C4801F0E9FD01214A4801F0D0
:1014B000E4FCDBE04FF082414648006802F064FC47
:1014C0002CD16020ADF800000120ADF8020040F200
:1014D0001520ADF806000020ADF8080069463E482A
:1014E00001F0DFFA0120ADF8020040F21520ADF85E
:1014F00006006946384801F01CFB0821364801F017
:1015000003FE0821344801F008FE0121324801F0B1
:10151000B5FD0121304801F0B0FCA7E033492D486A
:10152000006802F031FC2CD16020ADF800000120F1
:10153000ADF8020040F25720ADF806000020ADF8EB
:1015400008006946244801F0ACFA0120ADF8020019
:1015500040F25720ADF8060069461F4801F0E9FA4D
:1015600008211D4801F0D0FD08211B4801F0D5FDE0
:101570000121194801F082FD0121174801F07DFC8D
:1015800074E01B491348006802F0FEFB3FD1602065
:10159000ADF800000120ADF8020040F29A20ADF84D
:1015A00006000020ADF8080069460B4801F079FA02
:1015B0000120ADF8020040F29A20ADF8060069461D
:1015C000054801F0B6FA0821034801F09DFD11E03D
:1015D0003C03002064000020000400400000404064
:1015E0000000A0400000C0400000E04000001041AA
:1015F000000020410821AD4801F08FFD0121AB48DA
:1016000001F03CFD0121A94801F037FC2EE000214A
:10161000A748006802F0B8FB28D16020ADF80000B0
:101620000120ADF802000020ADF80600ADF808007A
:1016300069469E4801F035FA0120ADF8020000200D
:10164000ADF806006946994801F073FA08219748F9
:1016500001F05AFD0821954801F05FFD01219348F2
:1016600001F00CFD0121914801F007FC1FBD10B5F0
:101670009048006898B94FF400418F4800F0C3FAD1
:101680004FF480618C4800F0C0FA4FF400518A4852
:1016900000F0B9FA4FF40061874800F0B6FA8548C7
:1016A0000068012812D1C103834800F0AEFA4FF45C
:1016B0008061814800F0A7FA4FF400517E4800F0A5
:1016C000A4FA4FF400617C4800F09DFA10BD08B503
:1016D000002000900221794801F0ADFE58B1FFF7DB
:1016E00086FDFFF7C4FF754801F086FE00900221D9
:1016F000724801F0B1FE08BD08B50020009002213B
:10170000480701F098FEA0B1FFF7C0FAFFF753F8C1
:10171000FEF790FEFEF79AFFFEF7E6FFFFF759F897
:101720004FF0804001F068FE00900221480701F070
:1017300093FE08BD2DE9F04F8BB04FF0000A00205A
:101740000990022001F07EFF00287DD05C4801F066
:1017500060FE099001E00AF1010A5A488245FADB6D
:101760000221594800F035FA0028EED057480068A9
:1017700002F070FA04464E480168204602F004FB6D
:101780007BD14F48008800F0010030B901214C485E
:1017900001F073FB0BB0BDE8F08FBDF8240042F2FE
:1017A0001071884203DCBDF82400FA2804DA002115
:1017B000434801F00DFEEDE7BDF8241044A002F00F
:1017C00093FC47480068BDF8241008444449086069
:1017D00000213B4801F0FCFD42480068401C4149A3
:1017E00008600846006802F03EFA06460F463C488C
:1017F000006802F038FA32463B46CDE9000102F0BB
:10180000BAF980460022384B02F0B5F902460B4681
:10181000CDE902010020354902F0ADF90022344B38
:10182000CDE9040102F0A7F904460022314B02F091
:1018300030F9CDE9060102F040FA834629480068F4
:1018400002F011FA044600E024E00D462448006846
:1018500002F009FA064622462B4602F08CF9804631
:1018600002F02BFA5B46024608901E48016800E031
:1018700003E021A002F038FC0CE0002019490860C8
:101880001749086000210E4801F0F7FA00210C48C2
:1018900001F09EFD0648006802F0F6F90B49086069
:1018A000022001F0E0FE00BF74E7000000040040E9
:1018B0006400002068000020000C01400008004087
:1018C000002C0140A08601000008014030030020E8
:1018D00063617074757265203D2025640A00000004
:1018E0002C03002028030020006AF8400000F03F8D
:1018F00000002A4000004E404379636C65203D2083
:10190000256C64202C50524D5F696E76203D202559
:1019100064202C52504D203D2025640A0000000018
:10192000074A126802F0807242B100BF4FF0604275
:101930001268002AFAD04FF0604318707047000018
:10194000FCED00E030B52149B1F1807F01D30120E9
:101950001DE021F07F40401E4FF0E0225061501703
:101960000F22002807DA13071D0E194B00F00F0491
:10197000241F1D5503E013071C0E164B1C5400BFFB
:1019800000204FF0E022906107201061002008B194
:1019900000BFFEE74FF0E020006920F001004FF0AB
:1019A000E021086130BD01B50B49009808604FF097
:1019B000E020006940F001004FF0E021086100BF25
:1019C000054800680028FBD108BD0000401901004F
:1019D00018ED00E000E400E03C03002010B50446F0
:1019E000C649601A8C422FD009DCC548204480B11A
:1019F000B0F5806F16D0B0F5006F4AD11BE0B0F59E
:101A0000806F2AD0B0F5006F30D0B0F5406F40D174
:101A100035E00121042000F0FFFA0021042000F04D
:101A2000FBFA37E00121082000F0F6FA0021082037
:101A300000F0F2FA2EE00121102000F0EDFA002172
:101A4000102000F0E9FA25E00121202000F0E4FA5E
:101A50000021202000F0E0FA1CE00121402000F0ED
:101A6000DBFA0021402000F0D7FA13E001218020AA
:101A700000F0D2FA0021802000F0CEFA0AE0012125
:101A8000080200F0C9FA00214FF4807000F0C4FA97
:101A900000E000BF00BF10BD10B50121084600F0F6
:101AA000BBFA0021012000F0B7FA10BD2DE9F0418A
:101AB000024600250026002000230024002791F87C
:101AC00003C00CF00F0591F803C00CF0100CBCF132
:101AD000000F03D091F802C04CEA050591F800C050
:101AE000BCF1000F31D0146800202BE04FF0010C46
:101AF0000CFA00F3B1F800C00CEA03069E4220D1B4
:101B000083004FF00F0C0CFA03F7BC4305FA03FCFB
:101B10004CEA040491F803C0BCF1280F06D14FF041
:101B2000010C0CFA00FCC2F814C00AE091F803C0E2
:101B3000BCF1480F05D14FF0010C0CFA00FCC2F8C3
:101B400010C0401C0828D1D31460B1F800C0BCF10B
:101B5000FF0F34DD546800202EE000F1080C4FF038
:101B6000010808FA0CF3B1F800C00CEA03069E4223
:101B700021D183004FF00F0C0CFA03F7BC4305FA98
:101B800003FC4CEA040491F803C0BCF1280F05D112
:101B900000F1080C08FA0CF8C2F8148091F803C0A0
:101BA000BCF1480F07D100F1080C4FF0010808FA0A
:101BB0000CF8C2F81080401C0828CED35460BDE851
:101BC000F0814FF6FF710180022181700421C17004
:101BD00070470246002093680B400BB1012000E0E3
:101BE000002070470146886880B270470246002096
:101BF000D3680B400BB1012000E000207047014684
:101C0000C86880B2704701617047416170470AB18E
:101C1000016100E041617047C16070474FF480325C
:101C20000A438261816182618269826970470246EA
:101C30000020344B18684FF68073184040EA0210B9
:101C40000843304B186070472F49C8617047F0B5A2
:101C50000A4600230024002100252A4E7168C0F3A3
:101C6000034583B200F44016B6F5401F08D121F0B9
:101C70007061244E766826F07066224F7E6012E016
:101C800000F48016B6F5801F06D1032606FA05F487
:101C9000A14341F0706106E0460D360103FA06F6F5
:101CA000B14341F0706122B1460D360103FA06F6E8
:101CB0003143144E7160F0BD30B500228B071C0F0C
:101CC0000F2303FA04F20F4B08338C1053F824301F
:101CD00093430C4C08348D1044F8253023468C1067
:101CE00053F824308C07240F00FA04F42343054CE6
:101CF00008348D1044F8253030BD00000014014038
:101D000000F8FEBF0000014000002042DE480068ED
:101D100040F00100DC49086008464068DB490840A3
:101D2000D949486008460068D9490840D649086042
:101D30000846006820F4802008600846406820F4C7
:101D4000FE004860002088607047CF49096821F490
:101D50008031CD4A11601146096821F4802111605B
:101D6000B0F5803F03D0B0F5802F0ED106E0C64914
:101D7000096841F48031C44A116007E0C24909682A
:101D800041F4A021C04A116000E000BF00BF7047CD
:101D900010B501460022002300204A11012A02D179
:101DA000B94C236806E0022A02D1B74C236A01E04D
:101DB000B54C636A01F01F02012494401C400CB131
:101DC000012000E0002010BD38B500200090002464
:101DD000002500BF3120FFF7DBFF05460098401CBF
:101DE00000901DB90098B0F5A06FF3D13120FFF736
:101DF000CFFF08B1012400E00024204638BD014691
:101E00000020A14A106820F0F80040EAC1001060EC
:101E10007047A04908607047024600209A4B5868F6
:101E200020F47C1042EA01031843974B5860704736
:101E300098490866704701460020934A506820F090
:101E400003000843506070478F48406800F00C0062
:101E50007047014600208C4A506820F0F00008438B
:101E60005060704701460020874A506820F4E060C7
:101E700008435060704701460020834A506820F4B0
:101E8000605040EAC1005060704729B17E4A527AE2
:101E900002437D4B5A7204E07B4A527A82437A4B6A
:101EA0005A7270477B49D83108607047014600205C
:101EB000754A506820F44040084350607047002144
:101EC000714A20321170704A82F82010012802D025
:101ED00004280AD104E001216B4A2032117005E088
:101EE0000521694A2032117000E000BF00BF704731
:101EF0006949086070476449096A0143624A11628E
:101F00007047654944390860704730B500210022A8
:101F1000002400235C4D6D6805F00C0121B10429FB
:101F200005D0082923D105E05C4D056022E05B4D1A
:101F300005601FE0544D6D6805F47012022505EB35
:101F40009242514D6D6805F480341CB9544D55438F
:101F500005600BE04C4D6D6805F400351DB1504D2A
:101F60005543056002E04D4D5543056002E04B4D81
:101F7000056000BF00BF444D6D6805F0F001090920
:101F8000484D6B5C0568DD4045603F4D6D6805F46C
:101F9000E061090A434D6B5C4568DD4085603A4D60
:101FA0006D6805F46051C90A3E4D6B5C4568DD40C3
:101FB000C560354D6D6805F44041890B3A4D6B5C49
:101FC000C568B5FBF3F5056130BD29B12E4A5269EC
:101FD00002432D4B5A6104E02B4A526982432A4B3B
:101FE0005A61704729B1284A92690243264B9A6187
:101FF00004E0254A92698243234B9A61704729B1D4
:10200000214AD2690243204BDA6104E01E4AD269B8
:1020100082431D4BDA61704729B11B4AD2680243E3
:10202000194BDA6004E0184AD2688243164BDA6032
:10203000704729B1144A12690243134B1A6104E034
:10204000114A12698243104B1A6170471249403994
:10205000086070470F49C86470470B49C8717047E2
:102060000948406A40F0807007494862704701465D
:102070000020054A92680A400AB1012000E00020D1
:102080007047014988727047001002400000FFF855
:10209000FFFFF6FE000042428004424200127A0036
:1020A00000093D00400300205003002001460022AB
:1020B000B648814201D1042221E0B448814201D1D5
:1020C00004221CE0B248814201D1082217E0B14845
:1020D000814201D1102212E0AF48814201D1202279
:1020E0000DE0AE48814201D1402208E0AC48814277
:1020F00001D1802203E0AB48814200D1821590B229
:1021000070472DE9F84307460C4615461E464FF02A
:102110000008C1463846FFF7C9FF80462846FFF74A
:10212000C5FF814601214046FFF75CFF012148467B
:10213000FFF758FFADF8004003208DF8020014208F
:102140008DF8030069463846FFF7B0FCADF8006033
:1021500003208DF8020014208DF8030069462846FC
:10216000FFF7A4FC80218A48FFF74DFD40218848F5
:10217000FFF749FDBDE8F883052000BF0100A0F18D
:102180000100FBD1704710B580218148FFF73BFD6E
:10219000FFF7F2FF40217E48FFF735FDFFF7ECFF28
:1021A0007B480830006800F0800008B9012010BDAD
:1021B00080217748FFF729FDFFF7DEFF40217448B3
:1021C000FFF723FDFFF7D8FF71480830006800F0E3
:1021D0008000012801D10220E9E70020E7E710B5DF
:1021E00080216B48FFF711FDFFF7C6FF40216848CB
:1021F000FFF709FDFFF7C0FF80216548FFF703FDEA
:10220000FFF7BAFF10BD10B580216148FFF7FDFC54
:10221000FFF7B2FF40215E48FFF7F5FCFFF7ACFF88
:1022200040215B48FFF7F1FCFFF7A6FF10BD10B59A
:1022300080215748FFF7E7FCFFF79EFF40215448F5
:10224000FFF7E1FCFFF798FF40215148FFF7DDFC65
:10225000FFF792FF10BD70B5044640214C48FFF7D0
:10226000D4FC00251DE004F0800020B18021484806
:10227000FFF7C9FC03E080214548FFF7C6FC600674
:10228000040EFFF779FF40214148FFF7BCFCFFF740
:1022900073FF40213E48FFF7B8FCFFF76DFF681C55
:1022A000C5B2082DDFDB80213948FFF7ACFCFFF712
:1022B00063FF40213648FFF7A6FCFFF75DFF344877
:1022C0000830006800F0800028B140213048FFF756
:1022D0009CFC002070BD40212D48FFF796FC01209A
:1022E000F8E770B5002480212948FFF78CFC4021D5
:1022F0002748FFF78AFC00BF002517E0402124484B
:10230000FFF781FCFFF738FF6006040E2048083015
:10231000006800F0800008B144F0010440211C482E
:10232000FFF773FCFFF728FF681CC5B2082DE5DB3B
:10233000204670BD70B506460C461546FFF723FFD4
:102340003046FFF788FF2046FFF785FF2846FFF756
:1023500082FFFFF744FF70BD70B504460D46FFF7DE
:1023600012FF2046FFF777FF2846FFF774FFFFF7BD
:102370000AFF611CC8B2FFF76EFFFFF7B2FF064607
:10238000FFF755FFFFF72BFF304670BD00080140F7
:10239000000C0140001001400014014000180140F1
:1023A000001C014000200140002107E0002200E065
:1023B000521C47F230539A42FADB491C8142F5DB4A
:1023C000704710B56420FFF7EFFF00226B21D0208B
:1023D000FFF7B0FF07221921D020FFF7ABFF06223D
:1023E0001A21D020FFF7A6FF18221B21D020FFF7CB
:1023F000A1FF01221C21D020FFF79CFF6420FFF7E2
:10240000D3FF10BD10B54023464A80211046FFF788
:1024100078FEFFF7D6FF10BD70B50024002500261A
:102420003B21D020FFF798FF05463C21D020FFF745
:1024300093FF064646EA052004B2204670BD70B5FB
:102440000024002500263D21D020FFF785FF05460A
:102450003E21D020FFF780FF064646EA052004B261
:10246000204670BD70B50024002500263F21D020F5
:10247000FFF772FF05464021D020FFF76DFF0646AB
:1024800046EA052004B2204670BD70B50024002540
:1024900000264321D020FFF75FFF05464321D020CF
:1024A000FFF75AFF064646EA052004B2204670BDF3
:1024B00070B50024002500264521D020FFF74CFFF1
:1024C00005464521D020FFF747FF064646EA05208E
:1024D00004B2204670BD70B50024002500264721B7
:1024E000D020FFF739FF05464721D020FFF734FF02
:1024F000064646EA052004B2204670BD70B50024A9
:10250000002500264121D020FFF726FF0546422165
:10251000D020FFF721FF064646EA052004B22046F8
:1025200070BD0000000C014010B50446D749601A88
:102530008C422BD006DCD648204498B1B0F5806F91
:1025400038D119E0B0F5806F2AD0B0F56C4F31D199
:1025500001218803FFF760FD00214FF48040FFF761
:102560005BFD28E001214804FFF763FD00214FF4E3
:102570000030FFF75EFD1EE001218804FFF759FDE2
:1025800000214FF48020FFF754FD14E00121C8041E
:10259000FFF74FFD00214FF40020FFF74AFD0AE04E
:1025A00001210805FFF745FD00214FF48010FFF7DA
:1025B00040FD00E000BF00BF10BD2DE9F04786B030
:1025C00005460E460024A24600BF00BF00272F4646
:1025D0002C8A4CF6FF700440F08804432C82AC89AE
:1025E0004EF6F3100440B0883189084371890843DE
:1025F0000443AC81AC8A4FF6FF400440B0890443E9
:10260000AC8201A8FFF781FCA248874202D1DDF825
:1026100010A001E0DDF80CA00AEBCA0000EB0A10E4
:1026200031688900B0FBF1F86420B8FBF0F00401D8
:102630002009642101FB1089322000EB0910B0FB56
:10264000F1F000F00F0004432C8106B0BDE8F087E4
:102650004FF41651016000218180C18001810C215D
:10266000418100218181704710B502460020108A07
:102670004FF2FF0318400B884C8823438C88234378
:10268000CC8823431843108210BD00210180418073
:102690008180C180704721B1828942F400528281D9
:1026A00004E082894DF6FF731A4082817047F0B5CD
:1026B000034600240026002500201846C1F34214DA
:1026C00001F01F06012707FA06F5012C01D10C3095
:1026D00004E0022C01D1103000E014301AB1076878
:1026E0002F43076002E00768AF430760F0BD1AB1EF
:1026F000838A0B43838202E0838A8B438382704701
:10270000028A4FF6F0731A400282028A0A4302825A
:10271000704782894FF2FF731A40828182890A438F
:102720008281704721B1828942F00202828104E0F5
:1027300082894FF6FD731A4082817047028A4FF6F4
:10274000DF731A400282028A0A430282704721B173
:10275000028A42F48042028204E0028A4BF6FF734E
:102760001A4002827047C1F3080282807047014616
:102770008888C0F308007047818941F00101818198
:102780007047028BD2B20283028B42EA012202839B
:102790007047028B02F47F420283028B0A4302835A
:1027A000704721B1828A42F02002828204E0828A4C
:1027B0004FF6DF731A408282704721B1828A42F05D
:1027C0001002828204E0828A4FF6EF731A408282FE
:1027D000704721B1828A42F00802828204E0828A34
:1027E0004FF6F7731A4082827047828A4FF6FB7366
:1027F0001A408282828A0A438282704721B1828A89
:1028000042F00202828204E0828A4FF6FD731A408F
:10281000828270470246002013880B400BB10120D2
:1028200000E000207047CA430280704770B502463E
:102830000B460024002100250020C3F3421503F0BD
:102840001F01012606FA01F1012D02D196893140BE
:1028500006E0022D02D1168A314001E0968A31400D
:102860001C12012606FA04F41688344011B10CB18A
:10287000012000E0002070BD10B5002200230A12E4
:1028800001249440A3B2DC43048010BD004C0040FE
:1028900000BCFFBF0038014010B50446F749601A7C
:1028A0008C4245D00CDCB4F1804F1DD0F44820445C
:1028B00018B3B0F5806F29D0B0F5006F54D12EE079
:1028C000B0F5806F3DD0B0F58E3F03D0B0F5923FAC
:1028D0004AD13FE00121C802FFF79EFB00214FF4DF
:1028E0000060FFF799FB40E001210846FFF7A1FBDC
:1028F00000210120FFF79DFB37E001210220FFF7B7
:1029000098FB00210220FFF794FB2EE00121042018
:10291000FFF78FFB00210420FFF78BFB25E001214F
:102920000820FFF786FB00210820FFF782FB1CE050
:1029300001211020FFF77DFB00211020FFF779FB1C
:1029400013E001212020FFF774FB00212020FFF776
:1029500070FB0AE001214803FFF75EFB00214FF402
:102960000050FFF759FB00E000BF00BF10BD028818
:1029700002F08F020280CA884B881A4303881A43E8
:1029800002808A8882850A880285BE4A904202D0E7
:10299000BD4A904201D10A7A0286012282827047A2
:1029A00070B5002400220023058C4FF6FE763540DA
:1029B0000584028C8388048B4FF68F752C400D881C
:1029C0002C43751E2A400D892A434D882A43CD8801
:1029D0008586AC4DA84202D0AB4DA84213D14FF62C
:1029E000F7752A404D892A434FF6FB752A408D889A
:1029F0002A4347F6FF652B4047F6FF552B408D894C
:102A00002B43CD892B4383800483028470BD70B532
:102A1000002400220023058C4FF6EF763540058414
:102A2000028C8388048B48F6FF752C400D884FF686
:102A3000FF7606EA05252C434FF6DF752A400D89FF
:102A400006EA05152A434D8806EA05152A43CD886E
:102A500005878C4DA84202D08B4DA8421DD14FF660
:102A60007F752A404D894FF6FF7606EA05152A4301
:102A70004FF6BF752A408D8806EA05152A4347F6AA
:102A8000FF352B4047F2FF752B408D8906EA8505FF
:102A90002B43CD8906EA85052B438380048302847A
:102AA00070BD70B5002400220023058C4FF6FF6630
:102AB00035400584028C8388848B4FF68F752C40BB
:102AC0000D882C434FF6FF552A400D894FF6FF76AF
:102AD00006EA05252A434D8806EA05252A43CD88BE
:102AE0008587684DA84202D0674DA8421DD14FF29C
:102AF000FF752A404D894FF6FF7606EA05252A43E1
:102B00004FF6FF352A408D8806EA05252A4346F60A
:102B1000FF752B4045F6FF752B408D8906EA05159C
:102B20002B43CD8906EA05152B43838084830284D9
:102B300070BD70B5002400220023058C4EF6FF7690
:102B400035400584028C8388848B48F6FF752C40C1
:102B50000D884FF6FF7606EA05252C434DF6FF75E6
:102B60002A400D8906EA05352A434D8806EA0535CF
:102B70002A43CD88A0F84050424DA84202D0424D91
:102B8000A84207D1C3F30D038D894FF6FF7606EAFD
:102B900085152B4383808483028470BD828B4FF222
:102BA000FF331A408283828B4FF6FF7303EA0123BF
:102BB0001A4382837047F0B50C4615460021002267
:102BC0000026078C4EF6FF7C07EA0C070784818BF2
:102BD000028C4FF6FF7707EA043640F6FF4739408C
:102BE0004FF6FF7707EA05274FF6FF7C0CEA033C18
:102BF00047EA0C0739434DF6FF773A4046F48057D1
:102C00003A4381830284F0BD828B4FF6F3731A40FE
:102C10008283828B0A4382837047F0B50C46154647
:102C2000002100220026078C4FF6FF6C07EA0C07F4
:102C30000784818B028C4FF6FF7707EA04264FF654
:102C40000C7739404FF6FF7707EA03172F433943D4
:102C50004FF6FF573A4046F480773A438183028427
:102C6000F0BD028B4FF2FF331A400283028B4FF606
:102C7000FF7303EA01231A430283704700100040E8
:102C800000FCFFBF002C014000340140F0B50C46B1
:102C90001546002100220026078C4FF6EF7C07EA3C
:102CA0000C070784018B028C4FF6FF7707EA0416A6
:102CB00040F6FF4739404FF6FF7707EA03373943BD
:102CC0004FF6FF7707EA052739434FF6DF773A409B
:102CD00046F010073A4301830284F0BD028B4FF6A1
:102CE000F3731A400283028B0A4302837047F0B5E4
:102CF0000C46154600210022068C4FF6FE773E401A
:102D00000684018B028C4FF60C7631407E1C06EA5D
:102D100003162E4331437E1E324044F001063243F7
:102D200001830284F0BD70B505460C46208850B979
:102D30002389A28861882846FFF7D9FFE1882846C1
:102D4000FFF7CCFF25E0208804280AD12389A28838
:102D500061882846FFF79AFFE1882846FFF781FF40
:102D600017E0208808280AD12389A288618828468C
:102D7000FFF753FFE1882846FFF746FF09E0238964
:102D8000A28861882846FFF716FFE1882846FFF7EA
:102D900005FF70BD2DE9F04105460C4600260127D0
:102DA000608808B9022600E00026A088012801D129
:102DB000022700E001272088A0B92389A288618822
:102DC0002846FFF794FFE1882846FFF787FF23890D
:102DD0003A4631462846FFF759FFE1882846FFF773
:102DE00040FF13E02389A28861882846FFF74EFF41
:102DF000E1882846FFF735FF23893A4631462846C1
:102E0000FFF775FFE1882846FFF768FFBDE8F0810E
:102E10000A884B881A438B881A43CB881A430B893C
:102E20001A434B891A438B891A43A0F844207047F0
:102E30004FF6FF71818000210180C18041800172C5
:102E400070470021018041808180C18001814181E2
:102E50008181C181704700210180418001218180F1
:102E60000021C18001817047002101804180818063
:102E7000C180018141818181704721B1028842F086
:102E80000102028004E0028840F2FE331A40028010
:102E9000704731B1B0F8442042F40042A0F8442019
:102EA00005E0B0F84420C2F30E02A0F844207047B9
:102EB0001AB183890B43838102E083898B43838129
:102EC00070478182704741EA0203A0F8483070479A
:102ED0001AB183890B43838102E083898B43838109
:102EE000704701894FF6F8721140018170470A4618
:102EF000002101894FF68F731940114301817047FA
:102F000030B504460D4629462046FFF7F0FF2089DC
:102F100040F00700208130BD2DE9F04104460D4608
:102F200016461F46602D06D13B46012231462046FB
:102F3000FFF7ACFE05E03B46012231462046FFF795
:102F4000D6FE29462046FFF7D2FF208940F0070031
:102F50002081BDE8F08170B50C4600210189C9B21D
:102F600044EA02054FF6FF7606EA03263543294375
:102F7000018170BD2DE9F04105460E461746984681
:102F8000002443463A4631462846FFF7E4FF2C89A1
:102F90004FF6F870044044F007044FF68F70044079
:102FA00044F070042C81BDE8F081F0B504460D4674
:102FB00016461F463B46324629462046FFF7CBFFC2
:102FC000208940F480402081F0BD018582827047D5
:102FD0000A460021018840F28F33194011430180D5
:102FE0007047F0B50C4615461E460021002200230E
:102FF0000189028B038C4FF6F877394021434FF655
:10300000FC473A4040F201173A434FF6DD773B4028
:103010004FF6FF7707EA06172F433B4301810283F0
:103020000384F0BD0A460021018B4FF68F731940CF
:103030001143018370470A460021018B48F6FF7354
:1030400019404FF6FF7303EA0223194301837047C7
:103050000A460021818B4FF68F73194011438183FB
:1030600070470A460021818B48F6FF7319404FF6DE
:10307000FF7303EA022319438183704721B1028859
:1030800042F08002028004E0028840F27F331A405E
:103090000280704721B1828842F00402828004E0FD
:1030A00082884FF6FB731A408280704721B1828874
:1030B00042F00802828004E082884FF6F7731A40DB
:1030C0008280704721B1828842F00102828004E050
:1030D00082884FF6FE731A40828070470A460021AC
:1030E000018B4FF6F77319401143018370470A466D
:1030F0000021018B4FF2FF7319404FF6FF7303EA73
:1031000002231943018370470A460021818B4FF641
:10311000F77319401143818370470A460021818B60
:103120004FF2FF7319404FF6FF7303EA022319436E
:10313000818370470A460021018B4FF6FB731940CB
:103140001143018370470A460021018B4FF6FF337C
:1031500019404FF6FF7303EA0223194301837047B6
:103160000A460021818B4FF6FB731940114381837E
:1031700070470A460021818B4FF6FF3319404FF606
:10318000FF7303EA02231943818370470A46002133
:10319000018B4FF67F7319401143018370470A4634
:1031A0000021018BC1F30E014FF6FF7303EA0223E6
:1031B0001943018370470A460021818B4FF67F73C4
:1031C00019401143818370470A460021818BC1F366
:1031D0000E014FF6FF7303EA022319438183704700
:1031E0000A460021018C4FF6FD73194011430184FA
:1031F00070470A460021018C4FF6F77319401143BE
:10320000018470470A460021018C4FF6DF73194094
:103210004FF6FF7303EA02131943018470470A460D
:103220000021018C4FF67F7319404FF6FF7303EABC
:1032300002131943018470470A460021018C4FF69E
:10324000FF5319404FF6FF7303EA02231943018429
:1032500070470A460021018C4FF2FF7319404FF668
:10326000FF7303EA02231943018470470A460021D1
:10327000018C4DF6FF7319404FF6FF7303EA0233DA
:1032800019430184704710B5038C01248C40A3437B
:103290000384038C02FA01F4A4B22343038410BD17
:1032A00010B5038C04248C40A3430384038C02FADE
:1032B00001F4A4B22343038410BD30B5038C012470
:1032C0008C40A343038409B1082918D100F11803E5
:1032D00003EB61031B684FF68F74234000F1180461
:1032E00004EB6104236000F1180303EB61031B6826
:1032F000134300F1180404EB610423601FE00B1F6B
:10330000C3F34E0400F118031B5948F6FF74234021
:103310000C1FC4F34E0500F1180463510B1FC3F3D7
:103320004E0400F118031B594FF6FF7404EA0224FF
:1033300023430C1FC4F34E0500F11804635130BD44
:1033400021B1028842F00202028004E0028840F2C9
:10335000FD331A400280704721B1028842F0040216
:10336000028004E0028840F2FB331A40028070477A
:1033700021B1828842F08002828004E082884FF688
:103380007F731A4082807047028840F2F7331A40F8
:10339000028002880A430280704782884FF68F734A
:1033A0001A40828082880A438280704702894FF6E1
:1033B000F8731A40028102890A4302817047028928
:1033C0004FF67F731A40028102890A4302817047D7
:1033D0008184704781857047818670470187704777
:1033E00081877047A0F8401070470288D2B20280EF
:1033F00002880A43028070470146888E7047014662
:10340000088F70470146888F70470146B1F8400029
:1034100070470146888C70470146088D7047024608
:103420000020138A0B400BB1012000E00020704700
:10343000CA430282704730B50246002000230024B0
:10344000158A05EA0103958905EA010413B10CB157
:10345000012000E0002030BDCA4302827047000016
:1034600031490143314A1160704770B50021002392
:103470000F22C47804B32D4C246804F4E064C4F52E
:10348000E064210AC1F10403CA40447804FA03F15C
:103490008478144021430901254C0678A15504780D
:1034A00004F01F050124AC4005786D11AD0005F155
:1034B000E025C5F8004109E0047804F01F05012467
:1034C000AC401C4D0678761145F8264070BD1A4A6E
:1034D0000A400243154B1B1F1A60704739B1134A4B
:1034E000121D12680243114B1B1D1A6006E00F4AA1
:1034F000121D126882430D4B1B1D1A607047042871
:1035000008D14FF0E021096941F004014FF0E022B9
:10351000116107E04FF0E021096921F004014FF04B
:10352000E0221161704700000000FA050CED00E098
:1035300000E400E080E100E080FFFF1F00204C4934
:103540000860091D0860091D0860091D08604948D8
:1035500047491431086070478179002946D04449B1
:10356000096802689143424A1160111D09680268A6
:1035700091433F4A121D116001793F4A1144D1F82D
:1035800000140268114302793B4B1A44C2F800143C
:1035900037490831096802689143354A0832116099
:1035A000111D096802689143314A0C32116041795A
:1035B00010290ED1111F0968026811432C4A0832E4
:1035C0001160111D096802681143294A0C3211600B
:1035D00018E04179284A1144D1F8001402681143D7
:1035E0004279254B1A44C2F800140BE00179224AB3
:1035F0001144D1F800140268914302791E4B1A4419
:10360000C2F8001470470021016001710C21417162
:103610000021817170471649103109680143144A2D
:1036200010321160704701460020114A14321268AE
:103630000A400AB1012000E0002070470C49143113
:1036400008607047014600200022094B1B6803EA0E
:103650000102074B14331B680B4013B10AB1012060
:1036600000E00020704702491431086070470000F4
:1036700000040140FFFF0700000001400CB50020DE
:10368000019000904748006840F480304549086048
:1036900000BF4448006800F4003000900198401CCE
:1036A0000190009818B90198B0F5A06FF1D13D488C
:1036B000006800F4003010B10120009001E000200B
:1036C00000900098012844D13748006840F010006D
:1036D000354908600846006820F003000860084685
:1036E000006840F0020008602E4840682D4948609C
:1036F0000846406848600846406840F4806048607A
:103700000846406820F47C1048600846406840F451
:10371000E81048600846006840F08070086000BF0C
:103720002048006800F000700028F9D01D4840686B
:1037300020F003001B4948600846406840F0020042
:10374000486000BF1748406800F00C000828F9D115
:1037500001E000BFFEE70CBD10B5FFF78FFF10BD05
:1037600010B51048006840F001000E490860084696
:1037700040680E4908400B494860084600680C49FB
:103780000840084908600846006820F48020086066
:103790000846406820F4FE00486000208860FFF77B
:1037A000DBFF10BD00100240002002400000FFF8C7
:1037B000FFFFF6FEF0B480EA0102D40F4200B2EB44
:1037C000410F02D20246084611464A0042D0C30DBC
:1037D000DDB2C1F3C752AD1A202D35DAC1F316019F
:1037E00041F4000204B15242C5F1200602FA06F18A
:1037F0002A411044B3EBD05F23D0C4B1012DA0EB1C
:10380000C35009DCF0BC4FF0004202EAC352DBB205
:1038100000F5000000F037BB400000F1807000EBC5
:10382000C350A0F1807040EAD170490009E0490816
:1038300041EAC071A0EBC35000F50000400800EB66
:10384000C350F0BC00F016BB6142012202EB410103
:10385000001BF6E7F0BC704781F00041AAE780F05A
:103860000040A7E780EA010210B502F000434000E3
:1038700022D04A001FD0010E01EB1261C0F35600A6
:10388000C2F3560240F4000042F40002A0FB022002
:1038900000047F39140400D0401C50EA124001D4C7
:1038A0004000491EC2B20C0604EBD010401C400878
:1038B000802A02D003E0002010BD20F00100002982
:1038C00000DA0020184310BD30B480EA010202F093
:1038D000004530F0004221F0004013D090B1C30DFC
:1038E000D40DC2F31601C0F31600E41A41F400012E
:1038F00040F400027D34914201D3641C00E0490091
:10390000002C02DA30BC002070474FF40000002386
:10391000914201D3891A034340084FEA4101F7D18C
:1039200051B1914202D14FF0004105E002D24FF077
:10393000010101E06FF0010103EBC450284430BCE9
:1039400000F098BA2DE9FE4F804681EA0300C00FCF
:103950000C46009021F0004123F00045B8EB020036
:10396000A94105D24046214690461C460B460246D8
:1039700023F00040104347D0270DC7F30A00C3F3DC
:103980000A510290401A019040286BDAC3F31300E9
:1039900040F4801B0098924620B10023D2EB030A2A
:1039A00063EB0B0B01985946C0F14002504600F002
:1039B00030FA06460D4650465946019A00F048FA3C
:1039C00010EB08006141002487EA115284EAE77392
:1039D0001A4340D0009A62B3019A012A4FEA075273
:1039E00015DC001B61EB02014FF0004202EA0752B6
:1039F000CDE90042001C41F5801132462B4600F013
:103A00007FFA03B0BDE8F08F40462146F9E7001B7E
:103A100061EB0201001C41F5801300185B41201886
:103A2000A2F5001747EB030140EAD570B6196D41C6
:103A300011E06D084FEA360645EAC0754FEA0752B5
:103A4000001B61EB0201001C41F5801149084FEA9F
:103A500030000019514132462B4603B0BDE8F04F0B
:103A600000F03FBA0098012240000023D0EB020290
:103A700063EBE073009821464FEAE074B8EB000076
:103A800061EB0401E9E783F000435BE781F000416B
:103A900058E72DE9FE4F81EA030404F0004421F0C9
:103AA000004100944FF0000B23F0004350EA010462
:103AB0005ED052EA03045BD0C3F30A54C1F30A5543
:103AC0002C44A4F2F3340194A0FB0254C1F313017B
:103AD00041F48011C3F3130343F4801301FB024448
:103AE00000FB034E840A970A44EA815447EA83574D
:103AF000A4FB076802958D0A05FB07854FEA932C06
:103B000004FB0C542705029D4FEA065847EA163776
:103B1000B5EB08056EEB070C870E920E47EA81178E
:103B200042EA8312A7FB0201B6EB0B0164EB00042F
:103B30002B0D43EA0C335E1844EB1C50DA46514619
:103B4000E7FB0201C5F313044FEA0B3343EA1453B6
:103B50004FEA0432019C43EA0603A4F10C040294E8
:103B6000009CCDE900B400F0CBF903B0BDE8F08FC4
:103B700000200146F9E72DE9F04D81EA030404F045
:103B8000004B21F0004514464FF0000A23F000419D
:103B900050EA050220D054EA01021DD0C5F30A57AD
:103BA0000246C5F31303C1F31300C1F30A5640F4F0
:103BB000801543F48013A7EB0608101BD64608F2C5
:103BC000FD3873EB050002D308F1010801E09218FB
:103BD0005B41B8F1000F03DA00200146BDE8F08D2B
:103BE00000204FF48011064684460EE0171B73EB4D
:103BF000050705D3121B63EB050306434CEA010CD2
:103C000049084FEA300092185B4150EA0107EDD1B4
:103C100052EA030012D082EA040083EA0501084355
:103C200005D0101BAB4106D20122002306E0002282
:103C30004FF0004302E06FF0010253101AEB060050
:103C40004CEB085110EB0A0041EB0B01BDE8F04DC5
:103C500000F047B9C10F80EAE0700844CA07962314
:103C6000002100F010B90EB5C10F80EAE0700844E1
:103C7000CA07002140F233438DE80E000A460B4686
:103C800000F03EF903B000BD00F0004220F000401B
:103C9000C10DC0F3160040F400007F2901DA0020B6
:103CA0007047962903DCC1F19601C84001E09639BE
:103CB0008840002AF4D04042704770B5C1F30A52E0
:103CC00001F000450024C1F3130140F2FF3341F439
:103CD00080119A4201DA002070BD40F233439A42CB
:103CE000A2F2334203DC524200F0A2F800E090401E
:103CF0002C43F1D0404270BD00F0004230F0004053
:103D00000AD0C10D01F56071C0F3160042EA0151FD
:103D1000C208400711437047002001467047000069
:103D200030B5041E71F1000404DB4FF00044404242
:103D300064EB0101141E73F1000405DB1C464FF017
:103D40000043524263EB0403994208BF904230BDE6
:103D500001F0004330B421F0004150EA010206D0E6
:103D60000A0DA2F56072C1F31301002A02DC30BC17
:103D700000207047440F44EAC104C100E01830BC81
:103D800000EBC25000F076B8002801DBC0F1004023
:103D9000002901DBC1F1004181427047002801DBAD
:103DA000C0F10040002901DBC1F1004188427047A9
:103DB0002DE9F05F0546002092469B468846064660
:103DC000814640241BE0284641464746224600F0F3
:103DD0002FF853465A46C01A914110D3114618463F
:103DE000224600F016F82D1A67EB01084F462246CE
:103DF0000120002100F00DF817EB00094E41201EB4
:103E0000A4F10104DFDC484631462A464346BDE8BA
:103E1000F09F202A04DB203A00FA02F100207047CC
:103E20009140C2F1200320FA03F3194390407047F8
:103E3000202A04DB203A21FA02F00021704721FAFF
:103E400002F3D040C2F12002914008431946704766
:103E5000202A06DBCB17203A41FA02F043EAE0734E
:103E600006E041FA02F3D040C2F12002914008433B
:103E7000194670470029A8BF7047401C490008BF79
:103E800020F00100704710B4B0FA80FC00FA0CF08A
:103E900050EA010404BF10BC704749B1CCF12004C2
:103EA00021FA04F411FA0CF118BF0121214308434F
:103EB000A3EB0C01CB1D4FEA00614FEA102042BF7B
:103EC000002010BC704700EBC35010440029A4BF71
:103ED00010BC7047401C490008BF20F0010010BC16
:103EE000704710B5141E73F1000408DA401C41F14C
:103EF000000192185B411A4301D120F0010010BD6E
:103F00002DE9F04D92469B4611B1B1FA81F202E0E3
:103F1000B0FA80F220329046FFF77BFF04460F464E
:103F200040EA0A0041EA0B0153465A46084313D0BF
:103F3000114653EA010019D0C8F140025046FFF77C
:103F400077FF05460E46504659464246FFF761FF49
:103F5000084305D0012004E020463946BDE8F08D35
:103F60000020054346EAE0762C4337430A98630570
:103F7000E40AA0EB08000022FD0A44EA47540A3094
:103F800002D500200146E9E7010510196941DDE984
:103F9000084500196941BDE8F04DA2E770B521F070
:103FA000004303430CD0C1F30A550024D5EB0405AC
:103FB00064EB0403D617AD1AB34102DB00200146BF
:103FC00070BD201841EB025170BD2DE9F04D00236A
:103FD0001A461B1A8A4103DB00200146BDE8F08D1A
:103FE000C1F30A52C1F3130141F480154FF0000BE5
:103FF000D10702D100186D41521E0027044640F23D
:10400000FF11384601EB620A3E4680460246002018
:104010004FF48011FFF70CFFC2197141BB1846EB3A
:104020000100B4EB030C75EB000C04D3E41A65EB50
:10403000000517460E46241908F101006D4180461F
:104040003428E3DDF91946EB0600091BA84103D229
:104050004FF0FF32134601E0002213461BEB07002E
:1040600046EB0A51BDE8F04DFFF73BBF064C074D4C
:1040700006E0E06840F0010394E807009847103438
:10408000AC42F6D3FCF736F8D8480008F8480008E8
:1040900070B58C1810F8015B15F0070301D110F80A
:1040A000013B2A1106D110F8012B03E010F8016B37
:1040B00001F8016B5B1EF9D12B0705D40023521EBA
:1040C0000DD401F8013BFAE710F8013BCB1A921C22
:1040D00003E013F8015B01F8015B521EF9D5A14220
:1040E000D8D3002070BD00000FB4054B10B503A954
:1040F000044A029800F094F810BC5DF814FB00002C
:104100002119000834030020490050EAC12018BFDB
:1041100004204A0D18BF40F0010040F2FF72B2EBDC
:10412000515F08BF40F00200012808BF052070471A
:104130002DE9F0414F1E00EBC7010446D1E9000113
:1041400015461E4637F006020DD02A463346FFF7C5
:10415000A0FC7F1E04EBC703D3E90023FFF7F2FBAB
:1041600037F00602F1D1022F25D0042F13D0062FED
:1041700018BFBDE8F0812A463346FFF78AFCD4E930
:104180000A23FFF7DFFB2A463346FFF782FCD4E918
:104190000823FFF7D7FB2A463346FFF77AFCD4E91A
:1041A0000623FFF7CFFB2A463346FFF772FCD4E91C
:1041B0000423FFF7C7FB2A463346FFF76AFCD4E91E
:1041C0000223FFF7BFFB2A463346FFF762FCD4E920
:1041D0000023BDE8F041FFF7B5BB0122FFF7DEBECB
:1041E000FFF7B0BB024A00201107FFF7D7BE00005F
:1041F00001FDFFFF02E008C8121F08C1002AFAD122
:1042000070477047002001E001C1121F002AFBD156
:104210007047000001490860704700005403002007
:104220002DE9FF4F8BB09A460F460446002606E064
:1042300025280BD052460D999047641C761C207897
:104240000028F5D10FB03046BDE8F08F0025A94613
:1042500001227D4900E0054314F8013F203B02FAAA
:1042600003F00842F7D120782E2817D114F8010F57
:1042700045F004052A280ED06FF02F022078A0F117
:10428000300109290AD809EB890102EB410100EB51
:104290000109641CF2E757F8049B641C20786C2821
:1042A0000DD004DC4C2812D06A2811D104E0742807
:1042B0000DD07A280CD10AE045F4001507E06178AA
:1042C00045F48015814202D1641C05F58015641CFB
:1042D000207869283ED006DC0028B3D063280BD0B4
:1042E000642804D136E0732810D075285CD052467B
:1042F0000D999047761CA5E017F8040B8DF8000087
:1043000000208DF80100E846012003E057F8048BF7
:104310004FF0FF3069074FF0000501D40AE06D1C33
:104320004D450DDA8542FADB18F805100029F6D163
:1043300006E06D1C8542FCDB18F805100029F8D159
:104340002E4404E018F8010B52460D9990476D1E5B
:10435000F8D277E000200A90C5F302504FF00A0B24
:1043600002280CD001CFC117021E71F100020CDA35
:104370000023D0EB030063EB01012D2208E0FF1DB9
:1043800027F00707F7E80201EEE72A0504D52B22FC
:104390008DF82420012203E0EA070FD02022F7E75E
:1043A0000DF12008089218E000200A90C5F3025091
:1043B0004FF00A0B022803D001CF00210022EFE7C3
:1043C000FF1D27F00707F7E80201F7E75A460A9BA7
:1043D000FFF7EEFC303208F8012D50EA0102F5D16A
:1043E000ADEB080000F1200B680701D44FF0010984
:1043F000D94502DDA9EB0B0000E000208146002535
:1044000006E009A85246405D0D9990476D1C761C48
:1044100008988542F5DB04E0302052460D9990471C
:10442000761CB9F10001A9F10109F5DC05E018F8E5
:10443000010B52460D999047761CBBF10001ABF180
:10444000010BF4DC641CFAE6092801002DE9F84FA1
:1044500004460D4621F0004000917349814211DC71
:104460007249884201DC06D12CB120462946BDE8BC
:10447000F84FFFF7B2BE6E48002DCCBF6D496E49B4
:10448000BDE8F88F6D49814211DD6D498142D8BF89
:104490004FF0FF366DDD20462946FFF735FE042834
:1044A00008BFFFF79FFE20462946BDE8F88F654903
:1044B000654F25F00045814233DD6449814219DDB5
:1044C000002632464FF0804320462946FFF73AFA4D
:1044D00080468A46012220462946FFF75FFD0022DA
:1044E0003B46FFF7D0FA42465346FFF744FB0446EB
:1044F0000D463EE001260022BA463B4620462946AC
:10450000FFF720FA80460F460022534620462946F0
:10451000FFF7B9FA42463B46FFF72DFB04460D462E
:1045200027E04B4981421BDDDFF828A1022600224B
:10453000534620462946FFF7ACFA00223B46FFF7D8
:1045400001FA80460F460022534620462946FFF7CF
:104550009AFA42463B46FFF70EFB04460D4608E03A
:10456000032622462B4600203B49FFF704FB044666
:104570000D4622462B4610461946FFF78AFA8B460F
:10458000824602460B46FFF784FA07460246334846
:1045900088460B4606217844FFF7CAFD52465B4623
:1045A000FFF777FA82462E488B463A464346052166
:1045B0007844FFF7BDFD3A464346FFF76AFA0246E4
:1045C0000B46002E504659460CDAFFF7BBF922463F
:1045D0002B46FFF75EFA01B022462B46BDE8F04FAE
:1045E000FFF754BAFFF7AEF922462B46FFF751FA10
:1045F0001C4A7A4402EBC603D3E90023FFF743FACF
:1046000022462B46FFF73FFA174A7A4402EBC603CD
:10461000D3E90023FFF73AFA009A002AB8BF81F0E5
:104620000041BDE8F88F0000000010440000F07F5A
:10463000182D4454FB21F93FFB21F9BF0000DC3F5A
:104640000000203E0000F33F0000F03F0000E63F86
:10465000008003400000F83F0000F0BF06030000A8
:10466000C4020000620200002A0200002DE9F04DA1
:104670009446CCF1000423F000464CEA0404524F67
:1046800046EAD4749A46884621F00042BC4206D8D5
:10469000454240EA050442EAD474BC4204D9BDE86C
:1046A000F04D6246FFF79CBDAAF14055A5F17F652C
:1046B00055EA0C040BD0022404EAAA74434DDFF837
:1046C00010E144EAD87452EA000B04D00CE0BDE8D3
:1046D000F04DFFF7BBBE002C14BF012CBDE8F08DE0
:1046E000022C30D0032C32D056EA0C0B0AD0BE423A
:1046F00020D1BA4209D126F0804622F080423346CA
:10470000114617E000291ADB25E0DFF8C8B0FB44AA
:10471000002C04BFDBE90001BDE8F08D012C02BFD5
:10472000DBE9000181F00041BDE8F08D022C0AD0E8
:10473000032C0CD0BA4212D1B8F1000F0BDA234887
:104740002549BDE8F08D28462449BDE8F08D28466E
:104750007146BDE8F08D1D482149BDE8F08D921BE2
:1047600012153C2AC4BF19481D490EDCBAF1000FCE
:10477000BEBF12F13C0F0020014606DB6246FFF788
:10478000FAF921F00041FFF761FE002C08BFBDE8F7
:10479000F08D012C04BF81F00041BDE8F08D114A7D
:1047A000114B022C07D0FFF76EF92A46BDE8F04DF9
:1047B0000A4BFFF768B9FFF766F92A46BDE8F04DE6
:1047C000064BFFF763B900000000F07F182D44543A
:1047D000FB2109C0BE010000FB21F9BFFB210940FC
:1047E000FB21F93F075C143326A6A13C2DE9F041DB
:1047F00006460F46FFF7E9FB04000D4618BF0120EF
:10480000284320F00040C0F17F6000F1E040C00F7D
:104810000ED0301C18BF0120384320F00040C0F1FA
:104820007F6000F1E040C00F04BF0120FFF7F2FC01
:1048300020462946BDE8F0814FBB610567ACDD3FEE
:10484000182D4454FB21E93F9BF681D20B73EF3FB7
:10485000182D4454FB21F93FE2652F227F2B7A3C2F
:10486000075C143326A6813CBDCBF07A8807703CE8
:10487000075C143326A6913CC4EB98999999C9BF5B
:10488000711623FEC671BCBF6D9A74AFF2B0B3BF90
:104890009AFDDE522DDEADBF2F6C6A2C44B4A2BF50
:1048A0000D5555555555D53FFF8300922449C23FBC
:1048B0006E204CC5CD45B73F513DD0A0660DB13FF0
:1048C000EB0D76244B7BA93F11DA22E33AAD903F02
:1048D0000000000000000000F84800080000002070
:1048E0005803000090400008784A00085803002050
:1048F0001007000004420008016C32025A0104292A
:104900000C290432072DA6FFFFFF041AD4041AE76E
:1049100004325A3204691029041AF10429143209A4
:104920006910290441291432066910415A0A1429D0
:104930001C691029045A10149A0F1029045A1E7465
:10494000293469102988290429142908A9AC1AE2F4
:10495000045AECAC2950691029041AF604291429C8
:10496000046910290469AC29046910699C6918A9B3
:10497000AC9A141869102904299C6918691069AC4B
:104980002914290829E05A08BC5A05DC32037202AE
:104990001AFE801AFD041AFC041AFB041AFA041AFF
:1049A000F8043201190713FF312E07FF0EFF01052E
:1049B0002A0205280C0307FF13FF0407FF14FF0555
:1049C00005160607FF16FF2A082329052A020528CF
:1049D000080308FF10FF040823100A08FF18FF0649
:1049E00008FF19FF2A092329051B02091E2B0309A9
:1049F000462A09232A09232A0923180C0AFF11FF32
:104A0000010AFF12FF020A1E1B030A1E1808040AED
:104A1000FF15FF050A6416060AFF17FF2A0B462931
:104A2000052B020B231A0B1E1B040B1E1B050B412F
:104A30002A0605112A0C231F0CFF0FFF020C412B25
:104A4000030C231A0C642B050C232905111A0D1EC7
:104A50001B010D872B020D232A0D232A0D232A0D5E
:104A600023290501362D0102030404400906070825
:084A7000090204060800000021
:0400000508000101ED
:00000001FF
