:020000040800F2
:10000000900A002001010008391300083B13000882
:100010003F130008431300084713000800000000C6
:100020000000000000000000000000004B1300086A
:100030004D130008000000004F1300086313000870
:100040001701000817010008170100081701000830
:10005000170100081701000817010008F91C000823
:100060001701000817010008170100081701000810
:100070001701000817010008170100081701000800
:1000800017010008170100081701000817010008F0
:1000900017010008170100081701000817010008E0
:1000A00017010008170100081701000817010008D0
:1000B000BD1C000817010008931C00081701000868
:1000C00017010008170100081701000817010008B0
:1000D000170100086D1E000817010008170100082D
:1000E000170100081701000817010008DFF80CD0FD
:1000F00004F030FB00480047FD120008900A002081
:1001000005480047FEE7FEE7FEE7FEE7FEE7FEE7FD
:10011000FEE7FEE7FEE7FEE7ED000008FD4AFE49C8
:10012000C0E90021FD4AFE49C0E90221FD4AFE491D
:10013000C0E9042100228261C261002101624162A2
:100140000163416300238363C36302644264836485
:10015000C36470472DE9F04F8BB0824616461F46A8
:10016000DDE91645DAE908834246DDE9140103F0CA
:10017000D2FFCAE90A01DAE90A8342462046294643
:1001800003F0CFFFCDE90801DAE90683424603F028
:1001900021FFCAE90601DAE91283424620462946D0
:1001A00003F0BFFFCDE90001DAE90E83424603F018
:1001B000B2FFCDE90201DAE91083424603F0ABFF5A
:1001C000CDE90401DAE90083424603F003FF224649
:1001D0002B46CDE9060103F0A4FFCDE90801DAE9D9
:1001E0000C83424603F0F6FECAE90C01DAE91283F9
:1001F00042462046294603F094FFCDE90801DAE99A
:100200000E83424603F08AFFCAE90E01DAE912833F
:1002100042462046294603F084FFCDE90801DAE989
:100220001083424603F07AFFCAE9100122462B46AA
:10023000DAE90281404603F074FFCDE90801DAE90A
:100240001283424603F0C6FECAE91201DAE90483CA
:100250004246DAE90CB1584603F0BCFECAE91A017D
:10026000DAE91A834246DAE90CB1584603F0CBFFCB
:10027000CAE91401DAE91A834246DAE910B15846AC
:1002800003F0C1FFCAE91601DAE9068342463046A7
:10029000394603F040FFCAE91801DAE918834246FB
:1002A000DAE914B1584603F03CFFCDE90801DAE978
:1002B0000683424603F08EFECAE90601DAE9188396
:1002C0004246DAE916B1584603F02BFFCDE90801A2
:1002D000DAE90883424603F07DFECAE90801DAE95B
:1002E0000C834246DAE914B1584603F01AFFCDE90F
:1002F0000801DAE90C83424603F010FFCAE90C0159
:10030000DAE90E834246DAE914B1584603F009FFF0
:10031000CDE90801DAE90E83424603F0FFFECAE99F
:100320000E01DAE90C834246DAE916B1584603F0C9
:10033000F8FECDE90801DAE91083424603F0EEFE4B
:10034000CAE91001DAE90EB35A46DAE916814046E5
:1003500003F0E7FECDE90801DAE91283424603F033
:10036000DDFECAE91201DAE906010BB0BDE8F08F43
:10037000C0E9062370470246D2E90A017047C0E986
:1003800000237047C0E902237047C0E90423704787
:100390000246D2E9000170470246D2E902017047E5
:1003A0000246D2E90401704760480068604908606D
:1003B0005E4840685F4908605F4800785F490860B0
:1003C00000205F4908600AE000205E495C4A12682C
:1003D00041F822005A480068401C594908605848B2
:1003E0000068FF28F0DB0020554908600AE0002182
:1003F0005548534A126840F8221051480068401C82
:100400004F4908604E4800680828F0DB00204C493E
:1004100008600AE000204D49494A126841F822006C
:1004200047480068401C4649086045480068042861
:10043000F0DB7047F0B50024454D2C60454D2C6035
:100440003F4D2C60CAE0444C414D2D6854F82510B6
:100450000020B6E03C4C3A4D2D6854F825503E4EF5
:100460003B4C2468641C56F82440A5420BDB364CF8
:10047000334D2D6854F82550354C2468241D56F80A
:100480002440A5420ADD0025324C26682468641CFD
:10049000304F3C602B4C44F826508CE02A4C284DC1
:1004A0002D6854F825502C4E294C2468E41C56F82D
:1004B0002440A54216DC244C214D2D6854F82550CB
:1004C000234C2468A41C56F82440A5420ADB5A2673
:1004D000204C25682468641C1E4F3C60194C44F86D
:1004E000256068E0184C164D2D6854F825501A4EBA
:1004F000174C2468A41C56F82440A5423FDA124C3D
:100500000F4D2D6854F82550114C2468641C56F882
:10051000244023E0FCA9F1D24D62503FFA7E6ABC30
:100520007493683FB81E85EB51B89E3F740000205D
:10053000180300201C030020200200202C030020B0
:1005400028030020600400205C0800207C080020B4
:100550002003002024030020880000202C1BFE4DD7
:100560002D686D1D56F825506C43FC4D2E682D6886
:100570006D1CFA4F3D60FA4D45F826401BE0F94DE1
:10058000F54C2468241D55F82440F74DF74E366885
:1005900055F82650641BF34EEF4D2D68AD1D56F8EF
:1005A00025506C43ED4D2E682D686D1CEB4F3D6062
:1005B000EB4D45F82640E84C2468A41DE64D2C6020
:1005C000401C8842FFF646AFE34C2468641CE24DB1
:1005D0002C60E64C2468641CE44D2C60E34C2468D9
:1005E000E34D2D68AC42FFF62EAFDB4C2268DB4CAE
:1005F00023680024DD4D2C601DE0DA4CD64D2D68BB
:1006000054F8251000200FE00025D44C26682468FB
:10061000641CD24F3C60D24C44F82650CE4C246827
:10062000641CCD4D2C60401C8842EDDBCF4C24680F
:10063000641CCE4D2C60CD4C2468CE4D2D68AC4250
:10064000DBDBC54C2260C54C2360F0BD10B5012238
:100650000023C64C236040E05A2116E0C64B9B683D
:10066000012B0BD1BE4B53F820308B4203DABC4B2D
:1006700053F8203000E00B46194606E0B84B53F81B
:1006800020304B435A2493FBF4F11346521CBB4CCD
:10069000E35C1846FF2BE1D113E0B74BDB68012B7D
:1006A00008D1AF4B53F820308B420ADAAC4B43F8F9
:1006B000201006E0AA4B53F820300B44A84C44F815
:1006C00020301346521CAD4CE35C1846FF2BE4D19E
:1006D000A64B1B685B1CA54C2360A44B1B68A84C55
:1006E0002468A342B8DB10BDF0B500259F4E3560ED
:1006F0005AE000210023984D2E682D686D1C964FFE
:100700003D60984D55F826209B4D2D69012D21D136
:10071000002015E0914D2E682D686D1C8F4F3D60B7
:100720008F4D55F8264021448B4D2E682D686D1C49
:10073000894F3D608B4D55F8265005FB0433401C16
:100740009042E7DB93FBF1F58E4E884F3F6846F809
:10075000275024E0002020E0804D2E682D686D1C7D
:100760007E4F3D607E4D55F8261099420FDD0B46B9
:10077000794D2E682D686D1C774F3D60794D55F889
:100780002650804E794F3F6846F8275004E0724D5E
:100790002D686D1C704E3560401C9042DCDB734D43
:1007A0002D686D1C714E3560704D2D68714E366828
:1007B000B5429EDBF0BD10B50022734B734903C9EF
:1007C00003F022FE03D850206749086005E06F4916
:1007D00003C903F0CEFD644908606D48006803F06A
:1007E0009BFD6149486010BD10B56648046800680B
:1007F000002803DD01206749086006E061480068C1
:10080000002802DA0020634908605E49096800296F
:1008100002DD5C49096802E05A4909684942084614
:1008200003F060FD5C49086010BD2DE9F04F89B010
:100830005A48006803F0BCFD804689465848006865
:1008400003F0B6FD824642464B4604F083FA064664
:10085000544A554B03F065FC044603F0EDFD534943
:1008600008604E480168006803F044FB02904C4861
:100870000168006803F03EFB0190029903F0E2FA80
:10088000039003F095FD064604F024FBCDE9060134
:100890004748006880F00046304603F089FDCDE906
:1008A0000401DDE9062303F0AEFC044604F042F93E
:1008B00080463C4A3C4B03F034FC824603F0BCFDCE
:1008C0003C49086009B0BDE8F08F00B587B04FF42F
:1008D000C06003F00DF925208DF8040000208DF88C
:1008E00005008DF8060001208DF80700252000F096
:1008F0001F0201219140304A430942F8231000BFF2
:1009000001A803F0FAF8252000F01F020121914010
:100910004209920002F1E022C2F8001100BF012159
:1009200044F2040001F08AFE4FF40070ADF81800A4
:1009300018208DF81B0003208DF81A0006A91F4807
:1009400001F0E0FB4FF48060ADF8180004208DF852
:100950001B0006A9194833E02003002024030020CF
:1009600060040020880000205C080020280300208C
:10097000180300201C030020740000202002002027
:100980002C0300207C080020000054403800002088
:10099000640000206C000020680000200800002097
:1009A00004000020F8C1631ADCA54C4018000020A8
:1009B000000000201C00002080E200E00008014050
:1009C00001F0A0FB4FF4165002900020ADF80C008F
:1009D000ADF80E00ADF81000ADF814000C20ADF825
:1009E000120002A9FE4802F030F9012240F225511E
:1009F000FB4802F0A4F90121F94802F094F907B08C
:100A000000BD10B501F0AEFC4FF4803001F0C9FC20
:100A100001F006FD0446012C1ED1002001F045FD29
:100A2000002001F054FDA00201F048FD4FF4E01158
:100A3000200401F01DFD012001F026FD00BF39203A
:100A400001F0D2FC0028FAD0022001F020FD00BF06
:100A500001F026FD0828FBD10121C80201F0EEFDBE
:100A60000121084601F0F7FD0121022001F0F3FD0C
:100A70000121042001F0EFFD01210D2001F0DEFD38
:100A80000121880401F0E7FD10BD08B50121D5481A
:100A900001F009FC4FF48150ADF8000003208DF8FF
:100AA000020010208DF803006946CF4801F02AFBB0
:100AB0001320ADF8000003208DF8020010208DF8FF
:100AC00003006946C84801F01DFB48F20C00ADF870
:100AD000000003208DF8020010208DF80300694605
:100AE000C24801F00FFB0820ADF8000003208DF88C
:100AF000020018208DF803006946BC4801F002FB93
:100B00004FF48070ADF8000003208DF8020018202B
:100B10008DF803006946B44801F0F4FA08BD08B541
:100B200000214FF0006003F01AF84FF4C06002F0AB
:100B3000DFFF1C208DF8000000208DF8010001204F
:100B40008DF802008DF80300684602F0D6FF08BD5C
:100B500008B500214FF0006003F001F84FF4C060C9
:100B600002F0C6FF1E208DF8000001208DF8010064
:100B70008DF802008DF80300684602F0BEFF08BD44
:100B80000EB56320ADF8040041F61F40ADF800003B
:100B90000020ADF802006946954802F030FA0122C3
:100BA0000221480702F0CCFC0121880702F0ADFCCD
:100BB0000EBD0EB50920ADF8040040F26710ADF887
:100BC00000000020ADF8020069468A4802F017FADA
:100BD00001220221874802F0B3FC0121854802F07E
:100BE00094FC0EBD2DE9F04101F05FFF804603F05B
:100BF00082FB064680480CC8304603F08CFA044657
:100C000003F01AFC7D49086001F062FF804603F0A2
:100C100072FB06467A480CC8304603F07CFA04465C
:100C200003F00AFC7749086001F065FF044603F011
:100C300059FB7549086001F071FF044603F052FB4F
:100C4000724908607248006873214843C0097049BE
:100C500008600846006841F6AA11884203D90020BE
:100C60006C49086002E001206A4908600021674879
:100C7000006803F0FDFB00D11DE001F062FF0446B7
:100C800003F030FB6449086000216348006803F00A
:100C9000EFFB00D10FE001F067FF044603F022FBF9
:100CA0005E49086000215D48006803F0E1FB00D167
:100CB00001E0BDE8F081564800686430544908609E
:100CC00000BFF6E72DE9F041002414E001F0EDFE4D
:100CD000804603F007FB0746294603F0B3F80546B4
:100CE00001F0F6FE804603F0FDFA0746314603F0B8
:100CF000A9F80646641C642CE8DB4949284603F041
:100D00002BF9074603F054FB3B4A03C244493046E3
:100D100003F022F9074603F04BFB394A03C2BDE852
:100D2000F08170B5FFF7CEFFFFF75CFFFFF77DFDA9
:100D30003C48006803F03CFB044622460B463A4818
:100D4000FFF716FB374800683849086035480068E7
:100D500003F02EFB364A03C23648006803F028FB36
:100D6000044622460B463448FFF702FB3148006830
:100D7000324908602F48006803F01AFB304A03C26A
:100D8000FFF712FB2A4903C903F0F3FA2D49086063
:100D90002D48006803F0C0FA2A49486070BD2DE96B
:100DA000F04F87B0DFF8A490FFF71CFFFFF73DFD81
:100DB0001648006803F0FCFA0746254A254B03F065
:100DC00022FA054603F038FB06901348006803F04A
:100DD000EFFA07461E4A1F4B03F015FA05463BE0A3
:100DE0000038014000023000000C014000080140C2
:100DF000002C0140000800404800002000000020B6
:100E00005000002004000020080000200C000020FA
:100E1000300300207000002010000020140000208B
:100E20000000C8421800002080030020200000209D
:100E3000300000201C000020F003002024000020CF
:100E4000380000205C080020600000200AD7233C06
:100E5000FCA9F1D24D62304003F0EEFA0446069848
:100E600003F0A6FA0746FA4AFA4B03F05AF9054688
:100E700003F0E2FAF8490860204603F099FA0746C1
:100E8000F34AF44B03F04DF9054603F0D5FAF34964
:100E90000860F349F348006803F0EAFA05D2F24922
:100EA000F248006803F0EEFA0BD3EF49ED48006812
:100EB00003F0E8FA1ED2EA49EC48006803F0D8FAD9
:100EC00018D2E848006803F073FA05462A460B4634
:100ED000E748FFF74DFAE348006803F069FAE54A8E
:100EE00003C2E0480068E1490860DE480068E24962
:100EF00008601EE0484603F05BFA82468B4606987F
:100F000003F056FACDE90401D648006803F050FA20
:100F100005460B46CDE902ABDDE904012A46CDE9E1
:100F20000001D348FFF716F9074603F085FACF49C9
:100F30000860CE48006803F03BFA21F00041054606
:100F40000022CE4B03F060FA01D284F00044484600
:100F500003F02EFA82468B46204603F029FACDE9AB
:100F60000401C748006803F023FA05460B46CDE9A3
:100F700002ABDDE904012A46CDE90001C148FFF7D3
:100F8000E9F8074603F058FABF4908604946069851
:100F900002F0B0FF0546B8480168284602F052FF4B
:100FA000B54908604946204602F0A4FF0546B74807
:100FB0000168284602F046FFB4490860A948006865
:100FC00003F0F6F90546B24AB24B03F0AAF882469E
:100FD0008B464946069802F08DFF039003F0E8F92E
:100FE0000746A4480CC8384602F0F4FF0546AA4A52
:100FF000AA4B03F096F852465B46CDE9040102F095
:10100000E9FF9C4A03C29E48006803F0D1F90546F7
:101010009F4AA04B03F085F882468B4649462046FE
:1010200002F068FF039003F0C3F907469C480CC820
:10103000384602F0CFFF0546974A984B03F071F807
:1010400052465B46CDE9040102F0C4FF944A03C254
:1010500094498948006803F00BFA05D39249864801
:10106000006803F00FFA03D28048006882490860E4
:101070008C498648006803F0FBF905D38A49834808
:10108000006803F0FFF903D27F4800687F490860D9
:10109000834903C903F06DF9002804DD804903C9C1
:1010A00003F067F904E07E4903C903F062F94042A6
:1010B000502812DD00221346794903C903F0A4F930
:1010C00001D8012001E04FF0FF3000EB8000050166
:1010D000284603F010F9724A03C26048006803F022
:1010E0001BF905466E4903C903F043F906466149F9
:1010F00003C903F03EF907462B46324639466BA03A
:1011000003F066FB07B0BDE8F08F08B5C020ADF86E
:10111000000018208DF8030003208DF802006946B6
:10112000724800F0EFFF08BD30B587B000240025FD
:10113000022540F29920ADF81400ADF810500020BF
:10114000ADF81600ADF8120004A9694801F057FF88
:101150006020ADF800000120ADF80200ADF80640B7
:101160000020ADF808006946614801F061FF0120E8
:10117000ADF80200ADF8064069465D4801F08FFF0A
:1011800008215B4802F0F2FA0821594802F0F7FA08
:101190000121574802F0BAFA0121554802F0B5F989
:1011A00007B030BD10B5FFF7B0FFFFF7BDFF10BDB2
:1011B0000EB54FF6FF70ADF8040040F2CF20ADF849
:1011C00000000020ADF8020069464A4801F017FF10
:1011D00001220221474802F0B3F90121454802F0FB
:1011E00094F90EBD1FB50220ADF80C0004208DF857
:1011F0000F0003208DF80E0003A93F4800F082FF86
:101200004FF4C06002F074FC07208DF80800012044
:101210008DF8090002208DF80A0001208DF80B00DE
:1012200002A802F06AFC0121002001F071F80220FE
:10123000009000208DF804000C208DF8050001209E
:101240008DF80600684602F0CFFCFFF7B1FF1FBD26
:101250009A9999999999B93F6000002064000020FB
:101260000000B4C2180000200000B4422800002092
:101270008003002030000020200000200080564025
:101280001C000020F00300202C000020240000207F
:101290007B14AE47E17A943F5C8FC2F5285CEF3F48
:1012A00038000020000034C300003443636F6D70C9
:1012B000416E676C6558203D202564202C20636FAB
:1012C0006D70416E676C6559203D202564202C208F
:1012D000595F416E67756C61725F76656C6F6369AB
:1012E0007479203D2025640A00000000000C0140B4
:1012F00000080040002C01400008014002F078FD89
:1013000000F03AFEFFF77DFBFFF7BFFBFFF7DDFACA
:1013100001F0C0FB01F09DFBFFF703FDFFF7FFFBB2
:10132000FFF72EFCFFF714FCFFF743FCFFF73AFF33
:10133000FFF758FF00BFFEE7704700BFFEE700BFA2
:10134000FEE700BFFEE700BFFEE77047704770474B
:10135000FE48006820B1FD480068401EFB49086057
:10136000704700B5FFF7F4FF00BD2DE9F04F8DB0D9
:10137000F748006888B1F6480068401C02F0BBFFDF
:1013800007463A460B460020F24902F03CFF05466C
:1013900003F052F8F049086003E04FF07E50EE4948
:1013A0000860EE48007810B14FF064095BE300215B
:1013B000EB48006803F066F802D2E948006804E0F0
:1013C000E7480168E74802F095FD0546E64903F065
:1013D0004FF87BD20021E548006803F049F876D049
:1013E0000021E248006803F04DF801D2012001E03D
:1013F0004FF0FF3000EB80004FEAC00A504602F089
:101400007AFFCDE904010021D848006803F03AF8DA
:1014100002D2D648006804E0D4480168D14802F0FE
:1014200069FD019002F0C4FF82468B4600221346FC
:10143000CF4903C902F0E8FF02D2CD4903C905E054
:10144000CB480CC80020CB4902F06BFE52465B46ED
:10145000CDE9020102F065FE0746DDE9042302F052
:10146000B9FD05460022134602F0CEFF41D200210D
:10147000BE48006803F006F801D2012001E04FF0F9
:10148000FF3000EB8000C700384602F034FFCDE9A2
:1014900004010021B548006802F0F4FF02D2B3480D
:1014A000006804E0B1480168AE4802F023FD0390F3
:1014B00002F07EFF0746884600221346AC4903C966
:1014C00002F0A2FF04D2AA4903C907E05FE05BE093
:1014D000A7480CC80020A74902F023FE82463A46DE
:1014E000434602F01EFE0546DDE9042302F072FDCC
:1014F00044E000219D48006802F0C4FF01D20120B1
:1015000001E04FF0FF3000EB8000C700384602F0EA
:10151000F2FECDE9040100219448006802F0B2FF18
:1015200002D29248006804E0904801688D4802F0B9
:10153000E1FC039002F03CFF82468B4600221346FA
:101540008B4903C902F060FF02D2894903C905E053
:1015500087480CC80020874902F0E3FD0022854B34
:10156000CDE9020102F0DDFD074652465B4602F07E
:10157000D8FD0546DDE9042302F02CFDCDE9060186
:1015800002F0F7FE814665E24FF0000962E20021B9
:101590007648006802F06CFF30D00022764B744928
:1015A00003C902F031FF29D200216D48006802F022
:1015B00069FF23D26C496A48006802F09BFC074629
:1015C00002F0F6FE05460E466848006802F0F0FE9E
:1015D000074667480CC8384602F0A3FD2A46334642
:1015E000CDE9060102F097FD824602F0C2FE0446F4
:1015F000002C01DD204600E06042814600225E4B67
:101600005B4903C902F0E8FE75D200215448006826
:1016100002F038FFF8D259495148006802F06AFCDC
:10162000074602F0C5FECDE906015048006802F009
:10163000BFFE07464E480CC8384602F072FD05460C
:10164000DDE9062302F067FD824602F092FE0446C1
:101650004A494348006802F04DFC824602F0A8FE69
:10166000CDE9040100214148006802F00BFF02D2DD
:101670003E48006804E03D4801683A4802F03AFC00
:10168000039002F095FE824639480CC8504602F09D
:1016900048FD0746DDE9042302F03DFD0546002232
:1016A000134602F0B1FE27D234492D48006802F0FB
:1016B00021FC074602F07CFE82468B4600212B4827
:1016C000006802F0DFFE02D22848006804E02748E4
:1016D0000168244802F00EFC059002F069FE0746FE
:1016E00023480CC8384602F01CFD054652465B46AE
:1016F00002F011FD48E04CE020491948006802F072
:10170000F9FB074602F054FECDE904010021174819
:10171000006802F0B7FE02D21448006804E01348E3
:101720000168104802F0E6FB039002F041FE824699
:101730008B460F480CC800200E4902F0F2FC074609
:1017400052465B4602F0EDFC054619E058030020C6
:10175000380300200000F03F48030020350300203C
:1017600064000020000080BF0000204168000020CD
:10177000380000200000F0BF000024400000A0401E
:10178000DDE9042302F0C7FCCDE9060102F0F1FD1A
:1017900081460022FD4BFE4903C902F01DFE39D2ED
:1017A0000021FC48006802F06DFE33D2FA49F94886
:1017B000006802F09FFB824602F0FAFDCDE90601C7
:1017C000F648006802F0F4FD00221346CDE904015A
:1017D000EF4903C902F018FE02D2ED4903C905E042
:1017E000EB480CC80020EE4902F09BFC8246DDE984
:1017F000042302F096FC0546DDE9062302F0EAFB2D
:10180000074602F0B6FD0446002C01DD204600E04C
:10181000604281460022DD4BDD4903C902F0DCFD58
:1018200039D20021DB48006802F02CFE33D2DD49BA
:10183000D848006802F05EFB824602F0B9FDCDE9AF
:101840000601D648006802F0B3FD00221346CDE938
:101850000401CF4903C902F0D7FD02D2CC4903C924
:1018600005E0CB480CC80020CD4902F05AFC824666
:10187000DDE9042302F055FC0746DDE9062302F00A
:10188000A9FB054602F075FD0446002C01DD20464B
:1018900000E0604281460022BC4BBD4903C902F012
:1018A000B3FD29D20021BB48006802F0E1FD23D23C
:1018B000B949B848006802F01DFB079002F078FDB6
:1018C00005460E46B548006802F072FDCDE90601F6
:1018D000AF480CC8069802F024FC07462A46334657
:1018E00002F078FB824602F044FD0446002C01DD44
:1018F000204600E0604281460022A44BA44903C96F
:1019000002F082FD24D20021A248006802F0B0FD5E
:101910001ED2A4499F48006802F0ECFA054602F086
:1019200047FD074688469D48006802F041FD054690
:1019300097480CC8284602F0F4FB3A464346CDE9E6
:10194000060102F047FB824602F013FD0446A14661
:1019500000228E4B8E4903C902F03EFD39D2002190
:101960008C48006802F084FD33D28B4989480068B6
:1019700002F0C0FA824602F01BFDCDE9060187485D
:10198000006802F015FD00221346CDE904018049EC
:1019900003C902F039FD02D27D4903C905E07C4844
:1019A0000CC800207E4902F0BCFB8246DDE904231E
:1019B00002F0B7FB0746DDE9062302F0ACFB054663
:1019C00002F0D7FC0446002C01DD204600E0604216
:1019D000814600226D4B6E4903C902F0FDFC39D2ED
:1019E00000216C48006802F043FD33D26D4969481C
:1019F000006802F07FFA824602F0DAFCCDE90601C7
:101A00006648006802F0D4FC00221346CDE90401C8
:101A10005F4903C902F0F8FC02D25D4903C905E041
:101A20005B480CC800205E4902F07BFB8246DDE982
:101A3000042302F076FB0546DDE9062302F06BFB8A
:101A4000074602F096FC0446002C01DD204600E02B
:101A50006042814640F29A20814502DAB9F1000FD6
:101A600001DA4FF0000900214F48006802F000FD44
:101A700002D94E48006808B94FF000096020ADF85F
:101A800020000120ADF82200484602F02BFC06465B
:101A900047480168304602F02DFA054602F055FC31
:101AA00080B2ADF826000020ADF8280008A9414812
:101AB00001F0BEFA0120ADF82200484602F012FC07
:101AC00006463B480168304602F014FA054602F02B
:101AD0003CFC80B2ADF8260008A9364801F0DFFAD8
:101AE0000821344801F042FE0821324801F047FE47
:101AF0000121304801F00AFE01212E4801F005FDC8
:101B00000DB0BDE8F08F10B52B4800682B4909686F
:101B100088420DD12A480068401E294908600846BD
:101B2000006868B96420086000202649086007E062
:101B300064202349086023480068401C214908604C
:101B40001E4800681C4908601F48007800286ED0B5
:101B50001E48007800286AD01B48007831380828D1
:101B60005DD2DFE800F00440414243595A5B102146
:101B7000174800F074FB2021154800F072FB4FF469
:101B80008051134800F06BFB24E00000000024406B
:101B90003800002064000020000020416800002080
:101BA0000000F0BF0000A0400800002070000020EE
:101BB0004803002000080040500300206C00002073
:101BC0004C0300203803002034030020350300209C
:101BD000000C01404FF40041BF4800F042FBBFA0A1
:101BE00002F0F6FD22E021E020E01FE01021BE48D7
:101BF00000F037FB2021BC4800F031FB4FF480514E
:101C0000B94800F02EFB4FF40041B34800F027FB29
:101C1000B6A002F0DDFD09E008E007E006E0B6A0AE
:101C200002F0D6FD0020B649087000BF00BFB548DD
:101C30000068A0B9B448007888B91021AA4800F01B
:101C40000EFB2021A84800F00CFB4FF48051A64861
:101C500000F005FB4FF400419F4800F002FBA9484B
:101C60000068012814D1A848007888B910219E483E
:101C700000F0F7FA20219C4800F0F1FA4FF480516F
:101C8000994800F0EEFA4FF40041934800F0E7FA6B
:101C900010BD08B50020009002219C4801F013FF00
:101CA00058B1FFF730FFFFF760FB984801F0ECFEFA
:101CB00000900221954801F017FF08BD08B50020EB
:101CC00000900221480701F0FEFEA0B1FFF767F87F
:101CD000FEF771FDFEF7AEFBFEF7B8FCFEF704FD64
:101CE000FEF782FD4FF0804001F0CEFE0090022111
:101CF000480701F0F9FE08BD2DE9F04F8BB04FF019
:101D0000000A00200990022001F0E4FF00287DD0A5
:101D10007F4801F0C6FE099001E00AF1010A7D4802
:101D20008245FADB02216C4800F07FFA0028EED0F1
:101D30007948006802F0D6FA0446784801682046DF
:101D400002F096FB7AD17248008800F0010030B9A9
:101D500001216F4801F0D9FB0BB0BDE8F08FBDF851
:101D6000240042F21071884203DCBDF82400FA28F6
:101D700004DA0021664801F073FEEDE7BDF8241097
:101D800067A002F025FD6A480068BDF824100844E9
:101D90006749086000215E4801F062FE65480068FE
:101DA000401C644908600846006802F0A4FA064630
:101DB0000F465F48006802F09EFA32463B46CDE986
:101DC000000102F020FA804600225B4B02F01BFA71
:101DD00002460B46CDE902010020584902F013FAF1
:101DE0000022574BCDE9040102F00DFA044600220F
:101DF000544B02F096F9CDE9060102F0BAFA834697
:101E00004C48006802F077FA044600E023E00D46F3
:101E10004748006802F06FFA064622462B4602F059
:101E2000F2F9804602F0A5FA5B4602460890414866
:101E3000016845A002F0CCFC0DE0FFE700203D4921
:101E400008603B4908600021314801F05EFB002139
:101E50002F4801F005FE3148006802F05DFA2E4976
:101E60000860022001F047FF00BF75E710B50020B1
:101E70002549087040213E4801F014F818B140216E
:101E80003B4801F041F82021394801F00BF810B32C
:101E90002021374801F038F8354800F0B0FF3549C7
:101EA000087008460078B0B108460078302803D1A1
:101EB0000020154908700AE02E480078312806DB1A
:101EC0002C480078382802DC01200F490870294886
:101ED00000780B49087010BD00080140666F7277EA
:101EE0006172640A00000000000C01406261636BD3
:101EF000776172640A00000073746F700A0000005A
:101F0000340300206C00002035030020000800404E
:101F1000002C0140A086010044030020680000203E
:101F200063617074757265203D2025640A000000AD
:101F3000400300203C030020006AF8400000F03F0E
:101F400000002A4000004E404379636C65203D202C
:101F5000256C64202C50524D5F696E76203D202503
:101F600064202C52504D203D2025640A00000000C2
:101F7000003801405403002030B52149B1F1807F81
:101F800001D301201DE021F07F40401E4FF0E022F0
:101F9000506150170F22002807DA13071D0E194B46
:101FA00000F00F04241F1D5503E013071C0E164BF1
:101FB0001C5400BF00204FF0E02290610720106108
:101FC000002008B100BFFEE74FF0E020006920F0DC
:101FD00001004FF0E021086130BD01B50B490098C8
:101FE00008604FF0E020006940F001004FF0E02170
:101FF000086100BF054800680028FBD108BD00004B
:102000004019010018ED00E000E400E05803002052
:10201000074A126802F0807242B100BF4FF060427E
:102020001268002AFAD04FF0604318707047000021
:10203000FCED00E010B50446C649601A8C422FD072
:1020400009DCC548204480B1B0F5806F16D0B0F5EA
:10205000006F4AD11BE0B0F5806F2AD0B0F5006F59
:1020600030D0B0F5406F40D135E00121042000F0C0
:10207000FFFA0021042000F0FBFA37E001210820DC
:1020800000F0F6FA0021082000F0F2FA2EE001211B
:10209000102000F0EDFA0021102000F0E9FA25E010
:1020A0000121202000F0E4FA0021202000F0E0FAD5
:1020B0001CE00121402000F0DBFA0021402000F06C
:1020C000D7FA13E00121802000F0D2FA002180200D
:1020D00000F0CEFA0AE00121080200F0C9FA00215E
:1020E0004FF4807000F0C4FA00E000BF00BF10BDE4
:1020F00010B50121084600F0BBFA0021012000F0D4
:10210000B7FA10BD2DE9F041024600250026002057
:1021100000230024002791F803C00CF00F0591F86C
:1021200003C00CF0100CBCF1000F03D091F802C0FA
:102130004CEA050591F800C0BCF1000F31D01468DD
:1021400000202BE04FF0010C0CFA00F3B1F800C0B6
:102150000CEA03069E4220D183004FF00F0C0CFACC
:1021600003F7BC4305FA03FC4CEA040491F803C0EE
:10217000BCF1280F06D14FF0010C0CFA00FCC2F89C
:1021800014C00AE091F803C0BCF1480F05D14FF02C
:10219000010C0CFA00FCC2F810C0401C0828D1D376
:1021A0001460B1F800C0BCF1FF0F34DD54680020AA
:1021B0002EE000F1080C4FF0010808FA0CF3B1F81A
:1021C00000C00CEA03069E4221D183004FF00F0CA1
:1021D0000CFA03F7BC4305FA03FC4CEA040491F83B
:1021E00003C0BCF1280F05D100F1080C08FA0CF867
:1021F000C2F8148091F803C0BCF1480F07D100F178
:10220000080C4FF0010808FA0CF8C2F81080401CC6
:102210000828CED35460BDE8F0814FF6FF710180ED
:10222000022181700421C17070470246002093682A
:102230000B400BB1012000E0002070470146886888
:1022400080B2704702460020D3680B400BB10120DA
:1022500000E0002070470146C86880B27047016105
:102260007047416170470AB1016100E04161704708
:10227000C16070474FF480320A438261816182619C
:1022800082698269704702460020344B18684FF615
:102290008073184040EA02100843304B18607047C2
:1022A0002F49C8617047F0B50A4600230024002179
:1022B00000252A4E7168C0F3034583B200F440162E
:1022C000B6F5401F08D121F07061244E766826F0E3
:1022D0007066224F7E6012E000F48016B6F5801F13
:1022E00006D1032606FA05F4A14341F0706106E029
:1022F000460D360103FA06F6B14341F0706122B192
:10230000460D360103FA06F63143144E7160F0BDF6
:1023100030B500228B071C0F0F2303FA04F20F4B7A
:1023200008338C1053F8243093430C4C08348D1030
:1023300044F8253023468C1053F824308C07240FA2
:1023400000FA04F42343054C08348D1044F825307A
:1023500030BD00000014014000F8FEBF0000014045
:1023600000002042DE48006840F00100DC490860BF
:1023700008464068DB490840D9494860084600687B
:10238000D9490840D64908600846006820F48020F2
:1023900008600846406820F4FE004860002088601D
:1023A0007047CF49096821F48031CD4A1160114648
:1023B000096821F480211160B0F5803F03D0B0F5A9
:1023C000802F0ED106E0C649096841F48031C44A25
:1023D000116007E0C249096841F4A021C04A1160B8
:1023E00000E000BF00BF704710B501460022002387
:1023F00000204A11012A02D1B94C236806E0022AC2
:1024000002D1B74C236A01E0B54C636A01F01F02A8
:10241000012494401C400CB1012000E0002010BDBC
:1024200038B5002000900024002500BF3120FFF7C0
:10243000DBFF05460098401C00901DB90098B0F5E0
:10244000A06FF3D13120FFF7CFFF08B1012400E0E6
:102450000024204638BD01460020A14A106820F023
:10246000F80040EAC10010607047A049086070475A
:10247000024600209A4B586820F47C1042EA01037F
:102480001843974B58607047984908667047014653
:102490000020934A506820F00300084350607047C2
:1024A0008F48406800F00C007047014600208C4ABD
:1024B000506820F0F000084350607047014600204B
:1024C000874A506820F4E060084350607047014636
:1024D0000020834A506820F4605040EAC1005060F8
:1024E000704729B17E4A527A02437D4B5A7204E00A
:1024F0007B4A527A82437A4B5A7270477B49D83171
:102500000860704701460020754A506820F440403A
:102510000843506070470021714A20321170704AA0
:1025200082F82010012802D004280AD104E00121F9
:102530006B4A2032117005E00521694A2032117082
:1025400000E000BF00BF70476949086070476449F8
:10255000096A0143624A116270476549443908605B
:10256000704730B500210022002400235C4D6D68C7
:1025700005F00C0121B1042905D0082923D105E07B
:102580005C4D056022E05B4D05601FE0544D6D68B9
:1025900005F47012022505EB9242514D6D6805F469
:1025A00080341CB9544D554305600BE04C4D6D68AB
:1025B00005F400351DB1504D5543056002E04D4D09
:1025C0005543056002E04B4D056000BF00BF444D20
:1025D0006D6805F0F0010909484D6B5C0568DD4048
:1025E00045603F4D6D6805F4E061090A434D6B5C41
:1025F0004568DD4085603A4D6D6805F46051C90A53
:102600003E4D6B5C4568DD40C560354D6D6805F439
:102610004041890B3A4D6B5CC568B5FBF3F505612C
:1026200030BD29B12E4A526902432D4B5A6104E054
:102630002B4A526982432A4B5A61704729B1284A72
:1026400092690243264B9A6104E0254A92698243CB
:10265000234B9A61704729B1214AD2690243204B2A
:10266000DA6104E01E4AD26982431D4BDA61704789
:1026700029B11B4AD2680243194BDA6004E0184AB8
:10268000D2688243164BDA60704729B1144A126946
:102690000243134B1A6104E0114A12698243104B42
:1026A0001A61704712494039086070470F49C86481
:1026B00070470B49C87170470948406A40F0807004
:1026C00007494862704701460020054A92680A405F
:1026D0000AB1012000E0002070470149887270476C
:1026E000001002400000FFF8FFFFF6FE000042422B
:1026F0008004424200127A0000093D006403002079
:102700007403002001460022C448814201D1042202
:1027100021E0C248814201D104221CE0C04881422C
:1027200001D1082217E0BF48814201D1102212E0F6
:10273000BD48814201D120220DE0BC48814201D137
:10274000402208E0BA48814201D1802203E0B94822
:10275000814200D1821590B270472DE9F8430746B7
:102760000C4615461E464FF00008C1463846FFF796
:10277000C9FF80462846FFF7C5FF81460121404634
:10278000FFF75CFF01214846FFF758FFADF8004016
:1027900003208DF8020014208DF8030069463846A6
:1027A000FFF7B0FCADF8006003208DF802001420A4
:1027B0008DF8030069462846FFF7A4FC4FF400613A
:1027C0009648FFF74CFD4FF480519448FFF747FDC2
:1027D000BDE8F883052000BF0100A0F10100FBD196
:1027E000704710B54FF400618C48FFF738FDFFF7D4
:1027F000F1FF4FF480518948FFF731FDFFF7EAFF01
:1028000086480830006800F4006008B9012010BD57
:102810004FF400618148FFF724FDFFF7DBFF4FF421
:1028200080517E48FFF71DFDFFF7D4FF7B4808303D
:10283000006800F40060012801D10220E7E70020D1
:10284000E5E710B54FF400617448FFF70AFDFFF7A4
:10285000C1FF4FF480517148FFF701FDFFF7BAFF48
:102860004FF400616D48FFF7FAFCFFF7B3FF10BDAE
:1028700010B54FF400616948FFF7F3FCFFF7AAFFBA
:102880004FF480516548FFF7EAFCFFF7A3FF4FF4D0
:1028900080516248FFF7E5FCFFF79CFF10BD10B5C3
:1028A0004FF400615D48FFF7DAFCFFF793FF4FF448
:1028B00080515A48FFF7D3FCFFF78CFF4FF480514B
:1028C0005648FFF7CEFCFFF785FF10BD70B50446F4
:1028D0004FF480515148FFF7C4FC002521E004F07B
:1028E000800028B14FF400614C48FFF7B8FC04E0C9
:1028F0004FF400614948FFF7B4FC6006040EFFF78F
:1029000069FF4FF480514548FFF7A9FCFFF762FFCC
:102910004FF480514148FFF7A4FCFFF75BFF681CB0
:10292000C5B2082DDBDB4FF400613C48FFF797FC94
:10293000FFF750FF4FF480513848FFF790FCFFF746
:1029400049FF36480830006800F4006030B14FF4A9
:1029500080513248FFF785FC002070BD4FF4805154
:102960002E48FFF77EFC0120F7E770B500244FF4F6
:1029700000612A48FFF773FC4FF480512748FFF7A6
:1029800070FC00BF002519E04FF480512348FFF789
:1029900066FCFFF71FFF6006040E20480830006841
:1029A00000F4006008B144F001044FF480511B486A
:1029B000FFF757FCFFF70EFF681CC5B2082DE3DBDD
:1029C000204670BD70B506460C461546FFF709FF58
:1029D0003046FFF77BFF2046FFF778FF2846FFF7DA
:1029E00075FFFFF72EFF70BD70B504460D46FFF76B
:1029F000F8FE2046FFF76AFF2846FFF767FFFFF75C
:102A0000F0FE611CC8B2FFF761FFFFF7AEFF06469C
:102A1000FFF745FFFFF715FF304670BD0008014086
:102A2000000C01400010014000140140001801405A
:102A3000001C014000200140002107E0002200E0CE
:102A4000521C47F230539A42FADB491C8142F5DBB3
:102A5000704710B56420FFF7EFFF00226B21D020F4
:102A6000FFF7B0FF07221921D020FFF7ABFF0622A6
:102A70001A21D020FFF7A6FF18221B21D020FFF734
:102A8000A1FF01221C21D020FFF79CFF6420FFF74B
:102A9000D3FF10BD10B54FF48053464AD1141046F1
:102AA000FFF75BFEFFF7D5FF10BD70B500240025D2
:102AB00000263B21D020FFF797FF05463C21D02080
:102AC000FFF792FF064646EA052004B2204670BD95
:102AD00070B50024002500263D21D020FFF784FF9B
:102AE00005463E21D020FFF77FFF064646EA052037
:102AF00004B2204670BD70B50024002500263F2199
:102B0000D020FFF771FF05464021D020FFF76CFF72
:102B1000064646EA052004B2204670BD70B5002482
:102B2000002500264321D020FFF75EFF0546432104
:102B3000D020FFF759FF064646EA052004B220469A
:102B400070BD70B50024002500264521D020FFF778
:102B50004BFF05464521D020FFF746FF064646EAD3
:102B6000052004B2204670BD70B500240025002663
:102B70004721D020FFF738FF05464721D020FFF737
:102B800033FF064646EA052004B2204670BD70B504
:102B90000024002500264121D020FFF725FF05460F
:102BA0004221D020FFF720FF064646EA052004B266
:102BB000204670BD0008014010B50446D749601A90
:102BC0008C422BD006DCD648204498B1B0F5806FFB
:102BD00038D119E0B0F5806F2AD0B0F56C4F31D103
:102BE00001218803FFF744FD00214FF48040FFF7E7
:102BF0003FFD28E001214804FFF747FD00214FF485
:102C00000030FFF742FD1EE001218804FFF73DFD83
:102C100000214FF48020FFF738FD14E00121C804A3
:102C2000FFF733FD00214FF40020FFF72EFD0AE0EF
:102C300001210805FFF729FD00214FF48010FFF75F
:102C400024FD00E000BF00BF10BD2DE9F04786B0B5
:102C500005460E460024A24600BF00BF00272F46AF
:102C60002C8A4CF6FF700440F08804432C82AC8917
:102C70004EF6F3100440B088318908437189084347
:102C80000443AC81AC8A4FF6FF400440B089044352
:102C9000AC8201A8FFF765FCA248874202D1DDF8AB
:102CA00010A001E0DDF80CA00AEBCA0000EB0A104E
:102CB00031688900B0FBF1F86420B8FBF0F0040142
:102CC0002009642101FB1089322000EB0910B0FBC0
:102CD000F1F000F00F0004432C8106B0BDE8F0874E
:102CE0004FF41651016000218180C18001810C21C7
:102CF000418100218181704710B502460020108A71
:102D00004FF2FF0318400B884C8823438C882343E1
:102D1000CC8823431843108210BD002101804180DC
:102D20008180C180704721B1828942F40052828142
:102D300004E082894DF6FF731A4082817047F0B536
:102D4000034600240026002500201846C1F3421443
:102D500001F01F06012707FA06F5012C01D10C30FE
:102D600004E0022C01D1103000E014301AB10768E1
:102D70002F43076002E00768AF430760F0BD1AB158
:102D8000838A0B43838202E0838A8B43838270476A
:102D9000028A4FF6F0731A400282028A0A430282C4
:102DA000704782894FF2FF731A40828182890A43F9
:102DB0008281704721B1828942F00202828104E05F
:102DC00082894FF6FD731A4082817047028A4FF65E
:102DD000DF731A400282028A0A430282704721B1DD
:102DE000028A42F48042028204E0028A4BF6FF73B8
:102DF0001A4002827047C1F3080282807047014680
:102E00008888C0F308007047818941F00101818101
:102E10007047028BD2B20283028B42EA0122028304
:102E20007047028B02F47F420283028B0A430283C3
:102E3000704721B1828A42F02002828204E0828AB5
:102E40004FF6DF731A408282704721B1828A42F0C6
:102E50001002828204E0828A4FF6EF731A40828267
:102E6000704721B1828A42F00802828204E0828A9D
:102E70004FF6F7731A4082827047828A4FF6FB73CF
:102E80001A408282828A0A438282704721B1828AF2
:102E900042F00202828204E0828A4FF6FD731A40F9
:102EA000828270470246002013880B400BB101203C
:102EB00000E000207047CA430280704770B50246A8
:102EC0000B460024002100250020C3F3421503F027
:102ED0001F01012606FA01F1012D02D19689314028
:102EE00006E0022D02D1168A314001E0968A314077
:102EF0001C12012606FA04F41688344011B10CB1F4
:102F0000012000E0002070BD10B5002200230A124D
:102F100001249440A3B2DC43048010BD004C004067
:102F200000BCFFBF0038014010B50446F749601AE5
:102F30008C4245D00CDCB4F1804F1DD0F4482044C5
:102F400018B3B0F5806F29D0B0F5006F54D12EE0E2
:102F5000B0F5806F3DD0B0F58E3F03D0B0F5923F15
:102F60004AD13FE00121C802FFF782FB00214FF464
:102F70000060FFF77DFB40E001210846FFF785FB7D
:102F800000210120FFF781FB37E001210220FFF73C
:102F90007CFB00210220FFF778FB2EE001210420BA
:102FA000FFF773FB00210420FFF76FFB25E00121F1
:102FB0000820FFF76AFB00210820FFF766FB1CE0F2
:102FC00001211020FFF761FB00211020FFF75DFBBE
:102FD00013E001212020FFF758FB00212020FFF7FC
:102FE00054FB0AE001214803FFF742FB00214FF4A4
:102FF0000050FFF73DFB00E000BF00BF10BD02889E
:1030000002F08F020280CA884B881A4303881A4351
:1030100002808A8882850A880285BE4A904202D050
:10302000BD4A904201D10A7A02860122828270470B
:1030300070B5002400220023058C4FF6FE76354043
:103040000584028C8388048B4FF68F752C400D8885
:103050002C43751E2A400D892A434D882A43CD886A
:103060008586AC4DA84202D0AB4DA84213D14FF695
:10307000F7752A404D892A434FF6FB752A408D8803
:103080002A4347F6FF652B4047F6FF552B408D89B5
:103090002B43CD892B4383800483028470BD70B59C
:1030A000002400220023058C4FF6EF76354005847E
:1030B000028C8388048B48F6FF752C400D884FF6F0
:1030C000FF7606EA05252C434FF6DF752A400D8969
:1030D00006EA05152A434D8806EA05152A43CD88D8
:1030E00005878C4DA84202D08B4DA8421DD14FF6CA
:1030F0007F752A404D894FF6FF7606EA05152A436B
:103100004FF6BF752A408D8806EA05152A4347F613
:10311000FF352B4047F2FF752B408D8906EA850568
:103120002B43CD8906EA85052B43838004830284E3
:1031300070BD70B5002400220023058C4FF6FF6699
:1031400035400584028C8388848B4FF68F752C4024
:103150000D882C434FF6FF552A400D894FF6FF7618
:1031600006EA05252A434D8806EA05252A43CD8827
:103170008587684DA84202D0674DA8421DD14FF205
:10318000FF752A404D894FF6FF7606EA05252A434A
:103190004FF6FF352A408D8806EA05252A4346F674
:1031A000FF752B4045F6FF752B408D8906EA051506
:1031B0002B43CD8906EA05152B4383808483028443
:1031C00070BD70B5002400220023058C4EF6FF76FA
:1031D00035400584028C8388848B48F6FF752C402B
:1031E0000D884FF6FF7606EA05252C434DF6FF7550
:1031F0002A400D8906EA05352A434D8806EA053539
:103200002A43CD88A0F84050424DA84202D0424DFA
:10321000A84207D1C3F30D038D894FF6FF7606EA66
:1032200085152B4383808483028470BD828B4FF28B
:10323000FF331A408283828B4FF6FF7303EA012328
:103240001A4382837047F0B50C46154600210022D0
:103250000026078C4EF6FF7C07EA0C070784818B5B
:10326000028C4FF6FF7707EA043640F6FF473940F5
:103270004FF6FF7707EA05274FF6FF7C0CEA033C81
:1032800047EA0C0739434DF6FF773A4046F480573A
:103290003A4381830284F0BD828B4FF6F3731A4068
:1032A0008283828B0A4382837047F0B50C461546B1
:1032B000002100220026078C4FF6FF6C07EA0C075E
:1032C0000784818B028C4FF6FF7707EA04264FF6BE
:1032D0000C7739404FF6FF7707EA03172F4339433E
:1032E0004FF6FF573A4046F480773A438183028491
:1032F000F0BD028B4FF2FF331A400283028B4FF670
:10330000FF7303EA01231A43028370470010004051
:1033100000FCFFBF002C014000340140F0B50C461A
:103320001546002100220026078C4FF6EF7C07EAA5
:103330000C070784018B028C4FF6FF7707EA04160F
:1033400040F6FF4739404FF6FF7707EA0337394326
:103350004FF6FF7707EA052739434FF6DF773A4004
:1033600046F010073A4301830284F0BD028B4FF60A
:10337000F3731A400283028B0A4302837047F0B54D
:103380000C46154600210022068C4FF6FE773E4083
:103390000684018B028C4FF60C7631407E1C06EAC7
:1033A00003162E4331437E1E324044F00106324361
:1033B00001830284F0BD70B505460C46208850B9E3
:1033C0002389A28861882846FFF7D9FFE18828462B
:1033D000FFF7CCFF25E0208804280AD12389A288A2
:1033E00061882846FFF79AFFE1882846FFF781FFAA
:1033F00017E0208808280AD12389A28861882846F6
:10340000FFF753FFE1882846FFF746FF09E02389CD
:10341000A28861882846FFF716FFE1882846FFF753
:1034200005FF70BD2DE9F04105460C460026012739
:10343000608808B9022600E00026A088012801D192
:10344000022700E001272088A0B92389A28861888B
:103450002846FFF794FFE1882846FFF787FF238976
:103460003A4631462846FFF759FFE1882846FFF7DC
:1034700040FF13E02389A28861882846FFF74EFFAA
:10348000E1882846FFF735FF23893A46314628462A
:10349000FFF775FFE1882846FFF768FFBDE8F08178
:1034A0000A884B881A438B881A43CB881A430B89A6
:1034B0001A434B891A438B891A43A0F8442070475A
:1034C0004FF6FF71818000210180C180418001722F
:1034D00070470021018041808180C180018141814C
:1034E0008181C1817047002101804180012181805B
:1034F0000021C180018170470021018041808180CD
:10350000C180018141818181704721B1028842F0EF
:103510000102028004E0028840F2FE331A40028079
:10352000704731B1B0F8442042F40042A0F8442082
:1035300005E0B0F84420C2F30E02A0F84420704722
:103540001AB183890B43838102E083898B43838192
:1035500070478182704741EA0203A0F84830704703
:103560001AB183890B43838102E083898B43838172
:10357000704701894FF6F8721140018170470A4681
:10358000002101894FF68F73194011430181704763
:1035900030B504460D4629462046FFF7F0FF208946
:1035A00040F00700208130BD2DE9F04104460D4672
:1035B00016461F46602D06D13B4601223146204665
:1035C000FFF7ACFE05E03B46012231462046FFF7FF
:1035D000D6FE29462046FFF7D2FF208940F007009B
:1035E0002081BDE8F08170B50C4600210189C9B287
:1035F00044EA02054FF6FF7606EA032635432943DF
:10360000018170BD2DE9F04105460E4617469846EA
:10361000002443463A4631462846FFF7E4FF2C890A
:103620004FF6F870044044F007044FF68F700440E2
:1036300044F070042C81BDE8F081F0B504460D46DD
:1036400016461F463B46324629462046FFF7CBFF2B
:10365000208940F480402081F0BD0185828270473E
:103660000A460021018840F28F331940114301803E
:103670007047F0B50C4615461E4600210022002377
:103680000189028B038C4FF6F877394021434FF6BE
:10369000FC473A4040F201173A434FF6DD773B4092
:1036A0004FF6FF7707EA06172F433B43018102835A
:1036B0000384F0BD0A460021018B4FF68F73194039
:1036C0001143018370470A460021018B48F6FF73BE
:1036D00019404FF6FF7303EA022319430183704731
:1036E0000A460021818B4FF68F7319401143818365
:1036F00070470A460021818B48F6FF7319404FF648
:10370000FF7303EA022319438183704721B10288C2
:1037100042F08002028004E0028840F27F331A40C7
:103720000280704721B1828842F00402828004E066
:1037300082884FF6FB731A408280704721B18288DD
:1037400042F00802828004E082884FF6F7731A4044
:103750008280704721B1828842F00102828004E0B9
:1037600082884FF6FE731A40828070470A46002115
:10377000018B4FF6F77319401143018370470A46D6
:103780000021018B4FF2FF7319404FF6FF7303EADC
:1037900002231943018370470A460021818B4FF6AB
:1037A000F77319401143818370470A460021818BCA
:1037B0004FF2FF7319404FF6FF7303EA02231943D8
:1037C000818370470A460021018B4FF6FB73194035
:1037D0001143018370470A460021018B4FF6FF33E6
:1037E00019404FF6FF7303EA022319430183704720
:1037F0000A460021818B4FF6FB73194011438183E8
:1038000070470A460021818B4FF6FF3319404FF66F
:10381000FF7303EA02231943818370470A4600219C
:10382000018B4FF67F7319401143018370470A469D
:103830000021018BC1F30E014FF6FF7303EA02234F
:103840001943018370470A460021818B4FF67F732D
:1038500019401143818370470A460021818BC1F3CF
:103860000E014FF6FF7303EA022319438183704769
:103870000A460021018C4FF6FD7319401143018463
:1038800070470A460021018C4FF6F7731940114327
:10389000018470470A460021018C4FF6DF731940FE
:1038A0004FF6FF7303EA02131943018470470A4677
:1038B0000021018C4FF67F7319404FF6FF7303EA26
:1038C00002131943018470470A460021018C4FF608
:1038D000FF5319404FF6FF7303EA02231943018493
:1038E00070470A460021018C4FF2FF7319404FF6D2
:1038F000FF7303EA02231943018470470A4600213B
:10390000018C4DF6FF7319404FF6FF7303EA023343
:1039100019430184704710B5038C01248C40A343E4
:103920000384038C02FA01F4A4B22343038410BD80
:1039300010B5038C04248C40A3430384038C02FA47
:1039400001F4A4B22343038410BD30B5038C0124D9
:103950008C40A343038409B1082918D100F118034E
:1039600003EB61031B684FF68F74234000F11804CA
:1039700004EB6104236000F1180303EB61031B688F
:10398000134300F1180404EB610423601FE00B1FD4
:10399000C3F34E0400F118031B5948F6FF7423408B
:1039A0000C1FC4F34E0500F1180463510B1FC3F341
:1039B0004E0400F118031B594FF6FF7404EA022469
:1039C00023430C1FC4F34E0500F11804635130BDAE
:1039D00021B1028842F00202028004E0028840F233
:1039E000FD331A400280704721B1028842F0040280
:1039F000028004E0028840F2FB331A4002807047E4
:103A000021B1828842F08002828004E082884FF6F1
:103A10007F731A4082807047028840F2F7331A4061
:103A2000028002880A430280704782884FF68F73B3
:103A30001A40828082880A438280704702894FF64A
:103A4000F8731A40028102890A4302817047028991
:103A50004FF67F731A40028102890A430281704740
:103A600081847047818570478186704701877047E0
:103A700081877047A0F8401070470288D2B2028058
:103A800002880A43028070470146888E70470146CB
:103A9000088F70470146888F70470146B1F8400093
:103AA00070470146888C70470146088D7047024672
:103AB0000020138A0B400BB1012000E0002070476A
:103AC000CA430282704730B502460020002300241A
:103AD000158A05EA0103958905EA010413B10CB1C1
:103AE000012000E0002030BDCA4302827047000080
:103AF00031490143314A1160704770B500210023FC
:103B00000F22C47804B32D4C246804F4E064C4F597
:103B1000E064210AC1F10403CA40447804FA03F1C5
:103B20008478144021430901254C0678A155047876
:103B300004F01F050124AC4005786D11AD0005F1BE
:103B4000E025C5F8004109E0047804F01F050124D0
:103B5000AC401C4D0678761145F8264070BD1A4AD7
:103B60000A400243154B1B1F1A60704739B1134AB4
:103B7000121D12680243114B1B1D1A6006E00F4A0A
:103B8000121D126882430D4B1B1D1A6070470428DA
:103B900008D14FF0E021096941F004014FF0E02223
:103BA000116107E04FF0E021096921F004014FF0B5
:103BB000E0221161704700000000FA050CED00E002
:103BC00000E400E080E100E080FFFF1F00204C499E
:103BD0000860091D0860091D0860091D0860494842
:103BE00047491431086070478179002946D044491B
:103BF000096802689143424A1160111D0968026810
:103C000091433F4A121D116001793F4A1144D1F896
:103C100000140268114302793B4B1A44C2F80014A5
:103C200037490831096802689143354A0832116002
:103C3000111D096802689143314A0C3211604179C3
:103C400010290ED1111F0968026811432C4A08324D
:103C50001160111D096802681143294A0C32116074
:103C600018E04179284A1144D1F800140268114340
:103C70004279254B1A44C2F800140BE00179224A1C
:103C80001144D1F800140268914302791E4B1A4482
:103C9000C2F8001470470021016001710C214171CC
:103CA0000021817170471649103109680143144A97
:103CB00010321160704701460020114A1432126818
:103CC0000A400AB1012000E0002070470C4914317D
:103CD00008607047014600200022094B1B6803EA78
:103CE0000102074B14331B680B4013B10AB10120CA
:103CF00000E000207047024914310860704700005E
:103D000000040140FFFF0700000001400CB5002047
:103D1000019000904748006840F4803045490860B1
:103D200000BF4448006800F4003000900198401C37
:103D30000190009818B90198B0F5A06FF1D13D48F5
:103D4000006800F4003010B10120009001E0002074
:103D500000900098012844D13748006840F01000D6
:103D6000354908600846006820F0030008600846EE
:103D7000006840F0020008602E4840682D49486005
:103D80000846406848600846406840F480604860E3
:103D90000846406820F47C1048600846406840F4BB
:103DA000E81048600846006840F08070086000BF76
:103DB0002048006800F000700028F9D01D484068D5
:103DC00020F003001B4948600846406840F00200AC
:103DD000486000BF1748406800F00C000828F9D17F
:103DE00001E000BFFEE70CBD10B5FFF78FFF10BD6F
:103DF00010B51048006840F001000E490860084600
:103E000040680E4908400B494860084600680C4964
:103E10000840084908600846006820F480200860CF
:103E20000846406820F4FE00486000208860FFF7E4
:103E3000DBFF10BD00100240002002400000FFF830
:103E4000FFFFF6FEF0B480EA0102D40F4200B2EBAD
:103E5000410F02D20246084611464A0042D0C30D25
:103E6000DDB2C1F3C752AD1A202D35DAC1F3160108
:103E700041F4000204B15242C5F1200602FA06F1F3
:103E80002A411044B3EBD05F23D0C4B1012DA0EB85
:103E9000C35009DCF0BC4FF0004202EAC352DBB26F
:103EA00000F5000000F063BB400000F1807000EB03
:103EB000C350A0F1807040EAD170490009E0490880
:103EC00041EAC071A0EBC35000F50000400800EBD0
:103ED000C350F0BC00F042BB6142012202EB410141
:103EE000001BF6E7F0BC704781F00041AAE780F0C4
:103EF0000040A7E780EA010210B502F0004340004D
:103F000022D04A001FD0010E01EB1261C0F356000F
:103F1000C2F3560240F4000042F40002A0FB02206B
:103F200000047F39140400D0401C50EA124001D430
:103F30004000491EC2B20C0604EBD010401C4008E1
:103F4000802A02D003E0002010BD20F001000029EB
:103F500000DA0020184310BD30B480EA010202F0FC
:103F6000004530F0004221F0004013D090B1C30D65
:103F7000D40DC2F31601C0F31600E41A41F4000197
:103F800040F400027D34914201D3641C00E04900FA
:103F9000002C02DA30BC002070474FF400000023F0
:103FA000914201D3891A034340084FEA4101F7D1F6
:103FB00051B1914202D14FF0004105E002D24FF0E1
:103FC000010101E06FF0010103EBC450284430BC53
:103FD00000F0C4BA2DE9FE4F804681EA0300C00F0D
:103FE0000C46009021F0004123F00045B8EB0200A0
:103FF000A94105D24046214690461C460B46024642
:1040000023F00040104347D0270DC7F30A00C3F345
:104010000A510290401A019040286BDAC3F3130052
:1040200040F4801B0098924620B10023D2EB030A93
:1040300063EB0B0B01985946C0F14002504600F06B
:104040005CFA06460D4650465946019A00F074FA4D
:1040500010EB08006141002487EA115284EAE773FB
:104060001A4340D0009A62B3019A012A4FEA0752DC
:1040700015DC001B61EB02014FF0004202EA07521F
:10408000CDE90042001C41F5801132462B4600F07C
:10409000ABFA03B0BDE8F08F40462146F9E7001BBC
:1040A00061EB0201001C41F5801300185B412018F0
:1040B000A2F5001747EB030140EAD570B6196D4130
:1040C00011E06D084FEA360645EAC0754FEA07521F
:1040D000001B61EB0201001C41F5801149084FEA09
:1040E00030000019514132462B4603B0BDE8F04F75
:1040F00000F06BBA0098012240000023D0EB0202CE
:1041000063EBE073009821464FEAE074B8EB0000DF
:1041100061EB0401E9E783F000435BE781F00041D4
:1041200058E72DE9FE4F81EA030404F0004421F032
:10413000004100944FF0000B23F0004350EA0104CB
:104140005ED052EA03045BD0C3F30A54C1F30A55AC
:104150002C44A4F2F3340194A0FB0254C1F31301E4
:1041600041F48011C3F3130343F4801301FB0244B1
:1041700000FB034E840A970A44EA815447EA8357B6
:10418000A4FB076802958D0A05FB07854FEA932C6F
:1041900004FB0C542705029D4FEA065847EA1637E0
:1041A000B5EB08056EEB070C870E920E47EA8117F8
:1041B00042EA8312A7FB0201B6EB0B0164EB000499
:1041C0002B0D43EA0C335E1844EB1C50DA46514683
:1041D000E7FB0201C5F313044FEA0B3343EA145320
:1041E0004FEA0432019C43EA0603A4F10C04029452
:1041F000009CCDE900B400F0F7F903B0BDE8F08F02
:1042000000200146F9E72DE9F04D81EA030404F0AE
:10421000004B21F0004514464FF0000A23F0004106
:1042200050EA050220D054EA01021DD0C5F30A5716
:104230000246C5F31303C1F31300C1F30A5640F459
:10424000801543F48013A7EB0608101BD64608F22E
:10425000FD3873EB050002D308F1010801E0921864
:104260005B41B8F1000F03DA00200146BDE8F08D94
:1042700000204FF48011064684460EE0171B73EBB6
:10428000050705D3121B63EB050306434CEA010C3B
:1042900049084FEA300092185B4150EA0107EDD11E
:1042A00052EA030012D082EA040083EA05010843BF
:1042B00005D0101BAB4106D20122002306E00022EC
:1042C0004FF0004302E06FF0010253101AEB0600BA
:1042D0004CEB085110EB0A0041EB0B01BDE8F04D2F
:1042E00000F073B9C10F80EAE0700844CA07962352
:1042F000002100F03CB90EB5C10F80EAE07008441F
:10430000CA07002140F233438DE80E000A460B46EF
:1043100000F06AF903B000BD00F0004220F0004058
:10432000C10DC0F3160040F400007F2901DA00201F
:104330007047962903DCC1F19601C84001E0963927
:104340008840002AF4D04042704720F00040C10D60
:10435000C0F3160040F400007F2901DA0020704706
:10436000962903DCC1F19601C84070479639884010
:10437000704770B5C1F30A5201F000450024C1F343
:10438000130140F2FF3341F480119A4201DA002018
:1043900070BD40F233439A42A2F2334203DC5242F0
:1043A00000F0BAF800E090402C43F1D0404270BDDC
:1043B00000F0004230F000400AD0C10D01F56071FC
:1043C000C0F3160042EA0151C2084007114370478A
:1043D000002001467047000030B5041E71F1000452
:1043E00004DB4FF00044404264EB0101141E73F102
:1043F000000405DB1C464FF00043524263EB04030C
:104400008B4208BF824230BD30B5041E71F10004FA
:1044100004DB4FF00044404264EB0101141E73F1D1
:10442000000405DB1C464FF00043524263EB0403DB
:10443000994208BF904230BD01F0004330B421F0F2
:10444000004150EA010206D00A0DA2F56072C1F3E4
:104450001301002A02DC30BC00207047440F44EAFC
:10446000C104C100E01830BC00EBC25000F076B8C7
:10447000002801DBC0F10040002901DBC1F100414F
:1044800081427047002801DBC0F10040002901DBB8
:10449000C1F10041884270472DE9F05F05460020D8
:1044A00092469B4688460646814640241BE02846A5
:1044B00041464746224600F02FF853465A46C01A56
:1044C000914110D311461846224600F016F82D1AD5
:1044D00067EB01084F4622460120002100F00DF84D
:1044E00017EB00094E41201EA4F10104DFDC484611
:1044F00031462A464346BDE8F09F202A04DB203A95
:1045000000FA02F1002070479140C2F1200320FA26
:1045100003F3194390407047202A04DB203A21FA24
:1045200002F00021704721FA02F3D040C2F12002CC
:104530009140084319467047202A06DBCB17203AE2
:1045400041FA02F043EAE07306E041FA02F3D04098
:10455000C2F1200291400843194670470029A8BFC4
:104560007047401C490008BF20F00100704710B49C
:10457000B0FA80FC00FA0CF050EA010404BF10BC51
:10458000704749B1CCF1200421FA04F411FA0CF17E
:1045900018BF012121430843A3EB0C01CB1D4FEAB7
:1045A00000614FEA102042BF002010BC704700EBB2
:1045B000C35010440029A4BF10BC7047401C4900E0
:1045C00008BF20F0010010BC704710B5141E73F135
:1045D000000408DA401C41F1000192185B411A43C3
:1045E00001D120F0010010BD2DE9F04D92469B460F
:1045F00011B1B1FA81F202E0B0FA80F220329046B5
:10460000FFF77BFF04460F4640EA0A0041EA0B0130
:1046100053465A46084313D0114653EA010019D0B5
:10462000C8F140025046FFF777FF05460E46504658
:1046300059464246FFF761FF084305D0012004E0D8
:1046400020463946BDE8F08D0020054346EAE07675
:104650002C4337430A986305E40AA0EB08000022C4
:10466000FD0A44EA47540A3002D500200146E9E732
:10467000010510196941DDE9084500196941BDE8E6
:10468000F04DA2E770B521F0004303430CD0C1F315
:104690000A550024D5EB040564EB0403D617AD1AC4
:1046A000B34102DB0020014670BD201841EB0251EE
:1046B00070BD2DE9F04D00231A461B1A8A4103DB19
:1046C00000200146BDE8F08DC1F30A52C1F3130189
:1046D00041F480154FF0000BD10702D100186D4155
:1046E000521E0027044640F2FF11384601EB620AD1
:1046F0003E468046024600204FF48011FFF70CFF33
:10470000C2197141BB1846EB0100B4EB030C75EB09
:10471000000C04D3E41A65EB000517460E46241975
:1047200008F101006D4180463428E3DDF91946EBBC
:104730000600091BA84103D24FF0FF32134601E0E7
:10474000002213461BEB070046EB0A51BDE8F04D73
:10475000FFF73BBF064C074D06E0E06840F0010361
:1047600094E8070098471034AC42F6D3FBF7C2FC3C
:10477000C04F0008E04F000870B58C1810F8015BBE
:1047800015F0070301D110F8013B2A1106D110F8EA
:10479000012B03E010F8016B01F8016B5B1EF9D1EE
:1047A0002B0705D40023521E0DD401F8013BFAE774
:1047B00010F8013BCB1A921C03E013F8015B01F8DF
:1047C000015B521EF9D5A142D8D3002070BD000074
:1047D0000FB4054B10B503A9044A029800F094F8F1
:1047E00010BC5DF814FB0000112000085C030020E1
:1047F000490050EAC12018BF04204A0D18BF40F0FC
:10480000010040F2FF72B2EB515F08BF40F00200BE
:10481000012808BF052070472DE9F0414F1E00EB2D
:10482000C7010446D1E9000115461E4637F00602CD
:104830000DD02A463346FFF774FC7F1E04EBC703F6
:10484000D3E90023FFF7C6FB37F00602F1D1022FB0
:1048500025D0042F13D0062F18BFBDE8F0812A46BB
:104860003346FFF75EFCD4E90A23FFF7B3FB2A4681
:104870003346FFF756FCD4E90823FFF7ABFB2A4683
:104880003346FFF74EFCD4E90623FFF7A3FB2A4685
:104890003346FFF746FCD4E90423FFF79BFB2A4687
:1048A0003346FFF73EFCD4E90223FFF793FB2A4689
:1048B0003346FFF736FCD4E90023BDE8F041FFF7AB
:1048C00089BB0122FFF7DEBEFFF784BB024A00204E
:1048D0001107FFF7D7BE000001FDFFFF02E008C887
:1048E000121F08C1002AFAD170477047002001E06A
:1048F00001C1121F002AFBD1704700000149086066
:1049000070470000780300202DE9FF4F8BB09A46D6
:104910000F460446002606E025280BD052460D9986
:104920009047641C761C20780028F5D10FB03046E3
:10493000BDE8F08F0025A94601227D4900E005432E
:1049400014F8013F203B02FA03F00842F7D1207827
:104950002E2817D114F8010F45F004052A280ED08F
:104960006FF02F022078A0F1300109290AD809EB55
:10497000890102EB410100EB0109641CF2E757F8E1
:10498000049B641C20786C280DD004DC4C2812D0C9
:104990006A2811D104E074280DD07A280CD10AE0DD
:1049A00045F4001507E0617845F48015814202D195
:1049B000641C05F58015641C207869283ED006DC4F
:1049C0000028B3D063280BD0642804D136E07328C4
:1049D00010D075285CD052460D999047761CA5E002
:1049E00017F8040B8DF8000000208DF80100E84650
:1049F000012003E057F8048B4FF0FF3069074FF0B8
:104A0000000501D40AE06D1C4D450DDA8542FADB44
:104A100018F805100029F6D106E06D1C8542FCDB74
:104A200018F805100029F8D12E4404E018F8010BFD
:104A300052460D9990476D1EF8D277E000200A90FB
:104A4000C5F302504FF00A0B02280CD001CFC1175A
:104A5000021E71F100020CDA0023D0EB030063EBBD
:104A600001012D2208E0FF1D27F00707F7E80201EA
:104A7000EEE72A0504D52B228DF82420012203E03D
:104A8000EA070FD02022F7E70DF12008089218E07E
:104A900000200A90C5F302504FF00A0B022803D001
:104AA00001CF00210022EFE7FF1D27F00707F7E8FD
:104AB0000201F7E75A460A9BFFF7EEFC303208F88E
:104AC000012D50EA0102F5D1ADEB080000F1200BF9
:104AD000680701D44FF00109D94502DDA9EB0B00AD
:104AE00000E000208146002506E009A85246405D0E
:104AF0000D9990476D1C761C08988542F5DB04E003
:104B0000302052460D999047761CB9F10001A9F169
:104B10000109F5DC05E018F8010B52460D999047A4
:104B2000761CBBF10001ABF1010BF4DC641CFAE66E
:104B3000092801002DE9F84F04460D4621F00040F8
:104B400000917349814211DC7249884201DC06D12F
:104B50002CB120462946BDE8F84FFFF7B2BE6E489B
:104B6000002DCCBF6D496E49BDE8F88F6D4981427B
:104B700011DD6D498142D8BF4FF0FF366DDD204613
:104B80002946FFF735FE042808BFFFF79FFE2046A1
:104B90002946BDE8F88F6549654F25F000458142FB
:104BA00033DD6449814219DD002632464FF08043EF
:104BB00020462946FFF70EFA80468A460122204603
:104BC0002946FFF75FFD00223B46FFF7A4FA424665
:104BD0005346FFF718FB04460D463EE0012600222F
:104BE000BA463B4620462946FFF7F4F980460F4671
:104BF0000022534620462946FFF78DFA42463B469F
:104C0000FFF701FB04460D4627E04B4981421BDDBF
:104C1000DFF828A102260022534620462946FFF746
:104C200080FA00223B46FFF7D5F980460F46002266
:104C3000534620462946FFF76EFA42463B46FFF7A9
:104C4000E2FA04460D4608E0032622462B460020E1
:104C50003B49FFF7D8FA04460D4622462B4610463C
:104C60001946FFF75EFA8B46824602460B46FFF76F
:104C700058FA07460246334888460B4606217844D0
:104C8000FFF7CAFD52465B46FFF74BFA82462E48B5
:104C90008B463A46434605217844FFF7BDFD3A4628
:104CA0004346FFF73EFA02460B46002E5046594651
:104CB0000CDAFFF78FF922462B46FFF732FA01B0E4
:104CC00022462B46BDE8F04FFFF728BAFFF782F9DE
:104CD00022462B46FFF725FA1C4A7A4402EBC6030C
:104CE000D3E90023FFF717FA22462B46FFF713FA02
:104CF000174A7A4402EBC603D3E90023FFF70EFA02
:104D0000009A002AB8BF81F00041BDE8F88F00008A
:104D1000000010440000F07F182D4454FB21F93F9F
:104D2000FB21F9BF0000DC3F0000203E0000F33F04
:104D30000000F03F0000E63F008003400000F83F25
:104D40000000F0BF06030000C40200006202000081
:104D50002A0200002DE9F04D9446CCF1000423F026
:104D600000464CEA0404524F46EAD4749A468846F8
:104D700021F00042BC4206D8454240EA050442EA1E
:104D8000D474BC4204D9BDE8F04D6246FFF79CBD27
:104D9000AAF14055A5F17F6555EA0C040BD0022419
:104DA00004EAAA74434DDFF810E144EAD87452EAE9
:104DB000000B04D00CE0BDE8F04DFFF7BBBE002CAB
:104DC00014BF012CBDE8F08D022C30D0032C32D062
:104DD00056EA0C0B0AD0BE4220D1BA4209D126F0C5
:104DE000804622F080423346114617E000291ADB44
:104DF00025E0DFF8C8B0FB44002C04BFDBE900016C
:104E0000BDE8F08D012C02BFDBE9000181F000411B
:104E1000BDE8F08D022C0AD0032C0CD0BA4212D17E
:104E2000B8F1000F0BDA23482549BDE8F08D28467C
:104E30002449BDE8F08D28467146BDE8F08D1D4837
:104E40002149BDE8F08D921B12153C2AC4BF1948B8
:104E50001D490EDCBAF1000FBEBF12F13C0F00205D
:104E6000014606DB6246FFF7CEF921F00041FFF76D
:104E700061FE002C08BFBDE8F08D012C04BF81F05D
:104E80000041BDE8F08D114A114B022C07D0FFF70D
:104E900042F92A46BDE8F04D0A4BFFF73CB9FFF74F
:104EA0003AF92A46BDE8F04D064BFFF737B9000046
:104EB0000000F07F182D4454FB2109C0BE01000002
:104EC000FB21F9BFFB210940FB21F93F075C1433AB
:104ED00026A6A13C2DE9F04106460F46FFF7E9FB67
:104EE00004000D4618BF0120284320F00040C0F107
:104EF0007F6000F1E040C00F0ED0301C18BF0120D1
:104F0000384320F00040C0F17F6000F1E040C00F66
:104F100004BF0120FFF7F2FC20462946BDE8F081DE
:104F20004FBB610567ACDD3F182D4454FB21E93FC1
:104F30009BF681D20B73EF3F182D4454FB21F93FB0
:104F4000E2652F227F2B7A3C075C143326A6813C36
:104F5000BDCBF07A8807703C075C143326A6913CE1
:104F6000C4EB98999999C9BF711623FEC671BCBF4D
:104F70006D9A74AFF2B0B3BF9AFDDE522DDEADBFB5
:104F80002F6C6A2C44B4A2BF0D5555555555D53FCD
:104F9000FF8300922449C23F6E204CC5CD45B73FE8
:104FA000513DD0A0660DB13FEB0D76244B7BA93F60
:104FB00011DA22E33AAD903F00000000000000004B
:104FC000E04F0008000000207C0300007847000844
:104FD0004C5100087C03002014070000EC48000836
:104FE000017432025A0104290C290432072DA6FF4C
:104FF000FFFF041AD4041AE704325A320469102954
:10500000041AF1042914320929105AF8044132050E
:10501000320B6910415A08142904691029049A10A6
:1050200018691029045A1E149A061029882904297F
:10503000142908A9AC1AE2045AECAC299469102985
:10504000041AF6042914290469102904416918690D
:1050500010419A0A18691029049A14186910290431
:10506000299C6918691069AC29142908320F0A159E
:105070000204411AFE800912043201190713FF319C
:10508000281007FF11FF0107FF12FF0207FF1BFF98
:1050900003052A0405100B0507FF1CFF0607FF1672
:1050A000FF2A08232A08232A082329051B04081E8F
:1050B0002A0505160608FF15FF1A091E280801090A
:1050C000FF13FF02092329052B0409231A09412A8A
:1050D0000605112A0A232A0A232A0A232F0AFF1463
:1050E000FF040A231A0A412B060A232A0B232A0B40
:1050F000231A0B1E1B030B1E2A04052B050B23155D
:105100000BFF17FF1A0C1E1B010C411B020C192A66
:1051100003051B040C1E2B050C692A0C232A0D23E6
:105120002A0D232A0D2329052B040D232A0D232ABA
:105130000D230133041B803F642D0102030404404E
:0C51400009060708090204060800000028
:0400000508000101ED
:00000001FF
