:020000040800F2
:100000000004002047010008B5020008B7020008FC
:10001000BB020008BF020008C30200080000000085
:10002000000000000000000000000000C7020008FF
:10003000C902000800000000CB020008CD02000841
:1000400067010008670100086701000867010008F0
:1000500067010008670100086701000867010008E0
:1000600067010008670100086701000867010008D0
:1000700067010008670100086701000867010008C0
:1000800067010008670100086701000867010008B0
:1000900067010008670100086701000867010008A0
:1000A0006701000867010008670100086701000890
:1000B0006701000867010008670100086701000880
:1000C0006701000867010008670100086701000870
:1000D0006701000867010008670100086701000860
:1000E0006701000867010008670100086701000850
:1000F0006701000867010008670100086701000840
:10010000670100086701000867010008670100082F
:10011000670100086701000867010008670100081F
:10012000670100086701000867010008670100080F
:10013000DFF80CD001F0C8FA004800473F02000881
:1001400018020020704708488047084981F3088852
:1001500007480047FEE7FEE7FEE7FEE7FEE7FEE7AB
:10016000FEE7FEE7FEE7FEE7450100081802002073
:100170003101000800B587B00020ADF80400ADF8EB
:1001800006004FF40070ADF808000020ADF80A003A
:1001900001A9404800F0DCFE4FF4E130039000205C
:1001A000ADF81000ADF81200ADF81400ADF818006D
:1001B0000C20ADF8160003A9364800F072FE0121AC
:1001C000344800F0DCFE07B000BD10B500F04EFA78
:1001D0004FF4803000F069FA00F0A6FA0446012CD2
:1001E0001ED1002000F0E5FA002000F0F4FAA00291
:1001F00000F0E8FA4FF4E011200400F0BDFA01200D
:1002000000F0C6FA00BF392000F072FA0028FAD0D8
:10021000022000F0C0FA00BF00F0C6FA0828FBD1A7
:10022000012144F2040000F08DFB10BD01B502E095
:100230000098401E009000980028F9D108BD08B52C
:1002400001F002FA00F0A6FDFFF7BFFF00F040F852
:10025000FFF790FF00F0F2FC0FA001F047FA00F06A
:100260002EFD054629460EA001F040FA11E00AA035
:1002700001F03CFA082304224821D020009400F029
:10028000EBFCE1B207A001F031FA4FF40010FFF7E8
:10029000CDFFECE7003801403132330A00000000A6
:1002A00025640A000A4D505530783438203D202509
:1002B000640A0000704700BFFEE700BFFEE700BF12
:1002C000FEE700BFFEE770477047704770470000C9
:1002D00008B50121102000F035FB4FF40050ADF8B7
:1002E000000010208DF8030003208DF802006946FD
:1002F000104800F08BF84FF400510E4800F033F92D
:100300004FF40070ADF8000018208DF803000320B2
:100310008DF802006946084800F078F84FF48060D4
:10032000ADF8000004208DF803006946024800F093
:100330006DF808BD001001400008014010B50446EA
:10034000C649601A8C422FD009DCC548204480B1D0
:10035000B0F5806F16D0B0F5006F4AD11BE0B0F554
:10036000806F2AD0B0F5006F30D0B0F5406F40D12B
:1003700035E00121042000F0FFFA0021042000F004
:10038000FBFA37E00121082000F0F6FA00210820EE
:1003900000F0F2FA2EE00121102000F0EDFA002129
:1003A000102000F0E9FA25E00121202000F0E4FA15
:1003B0000021202000F0E0FA1CE00121402000F0A4
:1003C000DBFA0021402000F0D7FA13E00121802061
:1003D00000F0D2FA0021802000F0CEFA0AE00121DC
:1003E000080200F0C9FA00214FF4807000F0C4FA4E
:1003F00000E000BF00BF10BD10B50121084600F0AD
:10040000BBFA0021012000F0B7FA10BD2DE9F04140
:10041000024600250026002000230024002791F832
:1004200003C00CF00F0591F803C00CF0100CBCF1E8
:10043000000F03D091F802C04CEA050591F800C006
:10044000BCF1000F31D0146800202BE04FF0010CFC
:100450000CFA00F3B1F800C00CEA03069E4220D16A
:1004600083004FF00F0C0CFA03F7BC4305FA03FCB2
:100470004CEA040491F803C0BCF1280F06D14FF0F8
:10048000010C0CFA00FCC2F814C00AE091F803C099
:10049000BCF1480F05D14FF0010C0CFA00FCC2F87A
:1004A00010C0401C0828D1D31460B1F800C0BCF1C2
:1004B000FF0F34DD546800202EE000F1080C4FF0EF
:1004C000010808FA0CF3B1F800C00CEA03069E42DA
:1004D00021D183004FF00F0C0CFA03F7BC4305FA4F
:1004E00003FC4CEA040491F803C0BCF1280F05D1C9
:1004F00000F1080C08FA0CF8C2F8148091F803C057
:10050000BCF1480F07D100F1080C4FF0010808FAC0
:100510000CF8C2F81080401C0828CED35460BDE807
:10052000F0814FF6FF710180022181700421C170BA
:1005300070470246002093680B400BB1012000E099
:10054000002070470146886880B27047024600204C
:10055000D3680B400BB1012000E00020704701463A
:10056000C86880B2704701617047416170470AB145
:10057000016100E041617047C16070474FF4803213
:100580000A438261816182618269826970470246A1
:100590000020344B18684FF68073184040EA021070
:1005A0000843304B186070472F49C8617047F0B559
:1005B0000A4600230024002100252A4E7168C0F35A
:1005C000034583B200F44016B6F5401F08D121F070
:1005D0007061244E766826F07066224F7E6012E0CD
:1005E00000F48016B6F5801F06D1032606FA05F43E
:1005F000A14341F0706106E0460D360103FA06F6AC
:10060000B14341F0706122B1460D360103FA06F69E
:100610003143144E7160F0BD30B500228B071C0FC2
:100620000F2303FA04F20F4B08338C1053F82430D5
:1006300093430C4C08348D1044F8253023468C101D
:1006400053F824308C07240F00FA04F42343054C9C
:1006500008348D1044F8253030BD000000140140EE
:1006600000F8FEBF0000014000002042DE480068A4
:1006700040F00100DC49086008464068DB4908405A
:10068000D949486008460068D9490840D6490860F9
:100690000846006820F4802008600846406820F47E
:1006A000FE004860002088607047CF49096821F447
:1006B0008031CD4A11601146096821F48021116012
:1006C000B0F5803F03D0B0F5802F0ED106E0C649CB
:1006D000096841F48031C44A116007E0C2490968E1
:1006E00041F4A021C04A116000E000BF00BF704784
:1006F00010B501460022002300204A11012A02D130
:10070000B94C236806E0022A02D1B74C236A01E003
:10071000B54C636A01F01F02012494401C400CB1E7
:10072000012000E0002010BD38B50020009000241A
:10073000002500BF3120FFF7DBFF05460098401C75
:1007400000901DB90098B0F5A06FF3D13120FFF7EC
:10075000CFFF08B1012400E00024204638BD014647
:100760000020A14A106820F0F80040EAC1001060A3
:100770007047A04908607047024600209A4B5868AD
:1007800020F47C1042EA01031843974B58607047ED
:1007900098490866704701460020934A506820F047
:1007A00003000843506070478F48406800F00C0019
:1007B0007047014600208C4A506820F0F000084342
:1007C0005060704701460020874A506820F4E0607E
:1007D00008435060704701460020834A506820F467
:1007E000605040EAC1005060704729B17E4A527A99
:1007F00002437D4B5A7204E07B4A527A82437A4B21
:100800005A7270477B49D831086070470146002012
:10081000754A506820F440400843506070470021FA
:10082000714A20321170704A82F82010012802D0DB
:1008300004280AD104E001216B4A2032117005E03E
:100840000521694A2032117000E000BF00BF7047E7
:100850006949086070476449096A0143624A116244
:100860007047654944390860704730B5002100225F
:10087000002400235C4D6D6805F00C0121B10429B2
:1008800005D0082923D105E05C4D056022E05B4DD1
:1008900005601FE0544D6D6805F47012022505EBEC
:1008A0009242514D6D6805F480341CB9544D554346
:1008B00005600BE04C4D6D6805F400351DB1504DE1
:1008C0005543056002E04D4D5543056002E04B4D38
:1008D000056000BF00BF444D6D6805F0F0010909D7
:1008E000484D6B5C0568DD4045603F4D6D6805F423
:1008F000E061090A434D6B5C4568DD4085603A4D17
:100900006D6805F46051C90A3E4D6B5C4568DD4079
:10091000C560354D6D6805F44041890B3A4D6B5CFF
:10092000C568B5FBF3F5056130BD29B12E4A5269A2
:1009300002432D4B5A6104E02B4A526982432A4BF1
:100940005A61704729B1284A92690243264B9A613D
:1009500004E0254A92698243234B9A61704729B18A
:10096000214AD2690243204BDA6104E01E4AD2696F
:1009700082431D4BDA61704729B11B4AD26802439A
:10098000194BDA6004E0184AD2688243164BDA60E9
:10099000704729B1144A12690243134B1A6104E0EB
:1009A000114A12698243104B1A617047124940394B
:1009B000086070470F49C86470470B49C871704799
:1009C0000948406A40F08070074948627047014614
:1009D0000020054A92680A400AB1012000E0002088
:1009E0007047014988727047001002400000FFF80C
:1009F000FFFFF6FE000042428004424200127A00ED
:100A000000093D00000000201000002070B50446E1
:100A10000D4616460121F94800F074FC00BFF84964
:100A2000F64800F047FD0028F9D000222146F3489F
:100A300000F0BEFC00BFF349F04800F03BFD002889
:100A4000F9D03146ED4800F0ADFC00BFED49891CFE
:100A5000EA4800F02FFD0028F8D02978E74800F098
:100A6000A1FC00BFE749891CE44800F023FD0028F1
:100A7000F8D00121E14800F051FC70BD2DE9F041B2
:100A800006460D4617461C4600BF4FF40031DB48B2
:100A900000F023FD0028F8D10121D84800F032FCF5
:100AA00000BFD749D54800F005FD0028F9D0002245
:100AB0003146D24800F07CFC00BFD249CF4800F05C
:100AC000F9FC0028F9D00121CC4800F0F7FB3946A9
:100AD000CA4800F067FC00BFCA49891CC74800F03B
:100AE000E9FC0028F8D00121C44800F00BFC00BF4D
:100AF000C349C24800F0DEFC0028F9D0012231468B
:100B0000BE4800F055FC00BFBD49491CBB4800F081
:100B1000D1FC0028F8D016E0012C07D10021B748FD
:100B200000F008FC0121B54800F0F8FBB4493F3162
:100B3000B24800F0BFFC30B1B04800F035FC28707E
:100B40006D1C601E84B2002CE6D10121AB4800F080
:100B5000F1FBBDE8F081F8B507460D4614461E4688
:100B600001232A4669463846FFF788FF2EB1012047
:100B7000A0409DF80010084305E00120A0409DF82A
:100B8000001021EA0000C0B200902A4669463846AB
:100B9000FFF73CFFF8BD10B50446234606226B2143
:100BA000D020FFF7D8FF10BD2DE9F84381460F464E
:100BB00015461C46089E01233A4669464846FFF7FB
:100BC0005DFF0120A040401E291B491C884000F009
:100BD000FF08281B401C06FA00F0C6B206EA080609
:100BE0009DF8000020EA080000909DF800003043C6
:100BF00000903A4669464846FFF708FFBDE8F8838B
:100C000038B50446022304221C21D0200094FFF7AB
:100C1000CBFF38BD38B50446022304221B21D02067
:100C20000094FFF7C1FF38BD38B504460323022204
:100C30006B21D0200094FFF7B7FF38BD10B501201D
:100C4000FFF7F2FF0020FFF7E5FF0020FFF7D8FFD6
:100C50000020FFF7A0FF10BD2DE9F84307460E4620
:100C600015461C46DDF82080012332466946384689
:100C7000FFF704FF0120A040401E291B491C8840AB
:100C800000F0FF099DF8000000EA09000090281B11
:100C9000401C9DF80010014100919DF8000088F86B
:100CA0000000BDE8F8831CB501A806231A4675218B
:100CB0000090D020FFF7D0FF9DF804001CBD10B5B8
:100CC000FFF7F1FF342801D1012010BD0020FCE71F
:100CD0001CB501A8022304221B210090D020FFF79D
:100CE000BBFF9DF804001CBD1CB501A80223042213
:100CF0001C210090D020FFF7AFFF9DF804001CBD21
:100D0000F8B507460C4615461E460123224669469D
:100D10003846FFF7B3FE0120A8409DF800100840B8
:100D20003070F8BD08B56B4606226B21D020FFF766
:100D3000E7FF9DF8000008B1012008BD0020FCE796
:100D40007FB505460E233B226946D020FFF796FE6D
:100D500000240BE01DF814006100491C1DF801106F
:100D600001EB002000B225F81400641C032CF1DB19
:100D700004240CE01DF814006100491C1DF801104A
:100D800001EB002001B2601E25F81010641C072C36
:100D9000F0DB7FBD00B585B001214805FFF7DFFD21
:100DA00001210820FFF7CEFDC020ADF80000032090
:100DB0008DF802001C208DF8030069461248FFF7E9
:100DC00025FB0020ADF804004BF6FF70ADF80600DF
:100DD000D020ADF808004FF48060ADF80A000001A3
:100DE000ADF80C000948049001A9044800F0E8F9A6
:100DF0000121024800F062FA05B000BD0054004035
:100E00000100030082000700000C0140A0860100E1
:100E100010B50446D749601A8C422BD006DCD64860
:100E2000204498B1B0F5806F38D119E0B0F5806FEB
:100E30002AD0B0F56C4F31D101218803FFF79CFD1A
:100E400000214FF48040FFF797FD28E0012148047E
:100E5000FFF79FFD00214FF40030FFF79AFD1EE0E1
:100E600001218804FFF795FD00214FF48020FFF752
:100E700090FD14E00121C804FFF78BFD00214FF421
:100E80000020FFF786FD0AE001210805FFF781FD3C
:100E900000214FF48010FFF77CFD00E000BF00BF91
:100EA00010BD2DE9F04786B005460E460024A24647
:100EB00000BF00BF00272F462C8A4CF6FF7004406D
:100EC000F08804432C82AC894EF6F3100440B088BD
:100ED00031890843718908430443AC81AC8A4FF6D9
:100EE000FF400440B0890443AC8201A8FFF7BDFC79
:100EF000A248874202D1DDF810A001E0DDF80CA085
:100F00000AEBCA0000EB0A1031688900B0FBF1F867
:100F10006420B8FBF0F004012009642101FB108972
:100F2000322000EB0910B0FBF1F000F00F00044399
:100F30002C8106B0BDE8F0874FF416510160002106
:100F40008180C18001810C21418100218181704714
:100F500010B502460020108A4FF2FF0318400B889C
:100F60004C8823438C882343CC8823431843108226
:100F700010BD0021018041808180C180704721B176
:100F8000828942F40052828104E082894DF6FF7327
:100F90001A4082817047F0B50346002400260025E0
:100FA00000201846C1F3421401F01F06012707FA7A
:100FB00006F5012C01D10C3004E0022C01D11030D7
:100FC00000E014301AB107682F43076002E0076899
:100FD000AF430760F0BD1AB1838A0B43838202E0FE
:100FE000838A8B4383827047028A4FF6F0731A40DC
:100FF0000282028A0A430282704782894FF2FF739B
:101000001A40828182890A438281704721B1828994
:1010100042F00202828104E082894FF6FD731A4099
:1010200082817047028A4FF6DF731A400282028A79
:101030000A430282704721B1028A42F4804202824E
:1010400004E0028A4BF6FF731A4002827047C1F334
:1010500008028280704701468888C0F30800704704
:10106000818941F0010181817047028BD2B20283F4
:10107000028B42EA012202837047028B02F47F4214
:101080000283028B0A430283704721B1828A42F0B5
:101090002002828204E0828A4FF6DF731A40828245
:1010A000704721B1828A42F01002828204E0828A73
:1010B0004FF6EF731A408282704721B1828A42F064
:1010C0000802828204E0828A4FF6F7731A40828215
:1010D0007047828A4FF6FB731A408282828A0A43E3
:1010E0008282704721B1828A42F00202828204E049
:1010F000828A4FF6FD731A408282704702460020B2
:1011000013880B400BB1012000E000207047CA4358
:101110000280704770B502460B460024002100256E
:101120000020C3F3421503F01F01012606FA01F166
:10113000012D02D19689314006E0022D02D1168A96
:10114000314001E0968A31401C12012606FA04F46F
:101150001688344011B10CB1012000E0002070BDB0
:1011600010B5002200230A1201249440A3B2DC43EC
:10117000048010BD004C004000BCFFBF003801409F
:1011800010B50446F348204418B1B0F5806F14D16F
:1011900009E001214805FFF7FCFB00214FF4001096
:1011A000FFF7F7FB0AE001218805FFF7F2FB0021BA
:1011B0004FF48000FFF7EDFB00E000BF00BF10BD63
:1011C0002DE9F04385B004460D460026B1460427BC
:1011D000DFF88483A6884FF6C07006406846FFF7A4
:1011E00044FBDDF80880DD48B8FBF0F01FFA80F919
:1011F00046EA0906A68020884FF6FE710840208046
:101200000026D749E86888420CD8E8684000B8FB57
:10121000F0F087B2042F00DA04273E4309F1010001
:10122000208427E068884BF6FF71884206D1E86881
:1012300000EB4000B8FBF0F087B209E0E86800EB93
:10124000C00101EB0010B8FBF0F087B247F4804713
:10125000C7F30B0008B947F0010747F40040064305
:101260004FF4967009FB00F04FF47A7190FBF1F0A7
:10127000401C2084A683208840F00100208026881E
:101280004FF6F53006402888E98808430643268053
:101290002889A9880843208105B0BDE8F083002192
:1012A00001804BF6FF71418000218180C1804FF4A5
:1012B0008041018141F28831C160704721B10288CB
:1012C00042F00102028004E002884FF6FE731A40E9
:1012D0000280704721B1828842F40062828004E07B
:1012E00082884FF2FF731A408280704721B1828852
:1012F00042F48052828004E082884EF6FF731A40E6
:101300008280704721B1028842F48072028004E03A
:1013100002884FF6FF631A400280704721B10288AD
:1013200042F40072028004E002884FF6FF531A4034
:101330000280704721B1028842F48062028004E09A
:1013400002884FF6FF331A40028070470A46002198
:1013500081894FF60173194002F0FE031943818120
:10136000704721B1828942F00102828104E08289C2
:101370004FF6FE731A408281704721B1028842F015
:101380004002028004E002884FF6BF731A400280D8
:1013900070471AB183880B43838002E083888B43B4
:1013A00083807047018270470146088AC0B2704747
:1013B00012B141F0010102E04FF6FE7319400182C3
:1013C00070470246505A704721B1028842F40042E9
:1013D000028003E00288C2F30E0202807047B1F57A
:1013E000005F04D1028842F40052028004E00288C7
:1013F0004DF6FF731A400280704721B1028842F413
:101400008052028004E002884EF6FF731A40028088
:101410007047B1F5006F04D1028842F40062028087
:1014200004E002884FF2FF731A400280704721B136
:10143000028842F02002028004E002884FF6DF7347
:101440001A40028070470146088B0012704721B194
:10145000028842F01002028004E002884FF6EF7327
:101460001A400280704721B9028842F0800202804F
:1014700004E002884FF67F731A4002807047B1F58E
:10148000804F05D0828B4BF6FF731A40828303E0B6
:10149000828B42F480428283704710B5014600205F
:1014A000002300228B8A0A8B120443EA020424F0F0
:1014B0007F4010BD70B502460024002500230020A7
:1014C000958A138B1B0445EA030626F07F448C4261
:1014D00001D1012000E0002070BD0CB502460020C3
:1014E00000230193009300920B0F019321F07F41A1
:1014F000019B1BB1009B1433009303E0090C009B7C
:1015000018330093009B1B680B400BB1012000E0D7
:1015100000200CBD002221F07F42D343838270471C
:1015200030B5024600200023948801F0E06504EA0B
:10153000154321F07F41948A0C4014B10BB1012076
:1015400000E0002030BD002221F07F42D34383829F
:101550007047000000ACFFBF00127A0040420F004D
:10156000A08601000CB5002001900090474800685B
:1015700040F480304549086000BF4448006800F4EA
:10158000003000900198401C0190009818B9019813
:10159000B0F5A06FF1D13D48006800F4003010B103
:1015A0000120009001E0002000900098012844D123
:1015B0003748006840F01000354908600846006868
:1015C00020F0030008600846006840F00200086050
:1015D0002E4840682D4948600846406848600846E3
:1015E000406840F4806048600846406820F47C1001
:1015F00048600846406840F4E810486008460068C3
:1016000040F08070086000BF2048006800F0007063
:101610000028F9D01D48406820F003001B494860AD
:101620000846406840F00200486000BF1748406824
:1016300000F00C000828F9D101E000BFFEE70CBD66
:1016400010B5FFF78FFF10BD10B51048006840F0CF
:1016500001000E490860084640680E4908400B49E1
:101660004860084600680C49084008490860084678
:10167000006820F4802008600846406820F4FE00DE
:10168000486000208860FFF7DBFF10BD00100240BB
:10169000002002400000FFF8FFFFF6FE30B50B46C9
:1016A000014600202022012409E021FA02F59D4292
:1016B00005D303FA02F5491B04FA02F52844151E66
:1016C000A2F10102F1DC30BD064C074D06E0E068F6
:1016D00040F0010394E8070098471034AC42F6D379
:1016E000FEF72AFD94180008B41800080FB4054B43
:1016F00010B503A9044A029800F018F810BC5DF870
:1017000014FB0000811800081400002002E008C843
:10171000121F08C1002AFAD170477047002001E06B
:1017200001C1121F002AFBD1704700002DE9FF4FB5
:1017300089B09B460446002506E025280BD05A4672
:101740000B999047641C6D1C20780028F5D10DB0D2
:101750002846BDE8F08F0027B8460122474900E03F
:10176000074314F8013F203B02FA03F00842F7D187
:1017700020782E2819D114F8010F47F004072A28E1
:101780000ED06FF02F022078A0F1300109290CD87B
:1017900008EB880102EB410100EB0108641CF2E751
:1017A0000A98641C50F8048B0A9020780028CED048
:1017B000642808D0692806D075281ED05A460B998F
:1017C00090476D1C58E00A994FF00A0901C90A9127
:1017D000002802DA40422D2102E0390504D52B21F0
:1017E0008DF82010012103E0F90704D02021F7E74C
:1017F0008A4608AE0DE00021FAE70A994FF00A097F
:1018000001C90A91F7E74946FFF748FF303106F86A
:10181000011D0028F7D1ADEB060000F12009780783
:1018200001D44FF00108C84502DDA8EB090000E033
:1018300000208046002706E008A85A46C05D0B99A4
:1018400090476D1C7F1C5745F6DB04E030205A465C
:101850000B9990476D1CB8F10001A8F10108F5DC67
:1018600005E016F8010B5A460B9990476D1CB9F12B
:101870000001A9F10109F4DC641C65E709280100F5
:1018800038B504468DF8000069460320ABBE2046FB
:1018900038BD0000B4180008000000201800000047
:1018A0000C170008CC1800081800002000020000E7
:1018B0001C170008000000000102030401020304D9
:0C18C000060708090204060800000000EA
:0400000508000147A7
:00000001FF
